:020000041000EA
:10000000F2EB8871AC400010D8400010A400001042
:1000100090A31AE7D3DEFFFF420101114403000061
:100020003600001000200820FF040000106D0000C2
:10003000793512AB69A8973100109381E1611721DE
:100040000810130121FC173500101305B5A3731018
:100050005530732540F125ED170700001307C7043D
:100060000C4391C55043144731070D28D5BF973530
:1000700000109385E5BD1386818221A023A0050091
:100080009105E39DC5FEEF3000478122EF304046E9
:100090000290FDBF884108C291051106E36CD6FEAF
:1000A00082800100D8400010000000204C2C00206D
:1000B000246D00100000082000000820246D0010AE
:1000C0000010082000100820000000008280216538
:1000D0001305C5DF02853735002037370020930729
:1000E000C5C41307C7C46308F7009307000081C79E
:1000F0001305C5C482878280373500209307C5C4A5
:10010000373700209305C7C49D8D93D72540FD81C7
:10011000BE95858599C59307000081C71305C5C4A1
:1001200082878280411122C437340020834704DD56
:1001300006C685E34D379307000089CB374500108D
:100140001305C5C397000000E7000000854723089A
:10015000F4DCB2402244410182809307000095C341
:10016000B7350020374500104111938545DD130553
:10017000C5C306C697000000E7000000B240410179
:10018000A5BF9DBFAA85374500104111130505C4C1
:1001900006C6EF30207FB240B73700200547238ADC
:1001A000E7E40145814541018280411106C6EF1017
:1001B000A03F2A8637450010AE86130545C5EF30AF
:1001C000607CB240054541018280797106D622D417
:1001D00026D2EF30205F37450010130545C6EF30BB
:1001E0008069EF00B04A2A84EF10003C956793873E
:1001F00007E2AA9733B6A700370700802E967D172F
:10020000BE856374C7003A86FD55B70600100147E6
:100210002285938646188147EF00F0473737002044
:10022000834747E5F5DFEF007046B7040010B1657E
:100230003C009386A41A0147014693850535EF10CB
:1002400020131305401FEF00F06D2800EF10E02889
:1002500037440010AA85130544C7EF30A072130578
:10026000401FEF00306CEF007042D1753C00938668
:10027000A41A01477D56938505CBEF10600F130537
:10028000401FEF00306A2800EF102025AA851305D3
:1002900044C7EF30206F1305401FEF00B0683745AB
:1002A0000010130585C8EF30005DB25022549254FF
:1002B000014545618280B78703409107B347F52028
:1002C00098438566BE96134707041377070C378655
:1002D000024098C23365C5200D67BA974CC1130719
:1002E000001098C3828039713743001022CC2A84D1
:1002F000130503C906CE2ED232D436D63AD83EDA0A
:1003000042DC46DEEF30205701CC4C1022852EC651
:10031000EF30E01837450010130505CAEF30A0553F
:100320000545EF30A01CF376043037370020130763
:1003300077DF1318370033180029719BAF28074562
:10034000B3F80801E39C08FE0F00300313D7350013
:100350003A950347050093F77500B317F0283378F3
:10036000F700631108025D8F2300E5000F003003E2
:10037000B73700209387C7DEA3850700A18A73A043
:10038000063082804111328506C6B13F37370020E2
:10039000034507C4DD469307150093F7F70F63F392
:1003A000F600C1472300F7C48280B7360020938649
:1003B000C6DE8147130600020F0030033387F600C4
:1003C000230007008507E399C7FE828081463D48E8
:1003D0001D459305400393F736008A073317F8004D
:1003E00013D626004207518F733037BEB317F5007E
:1003F000C207D18F73A037BE8506E39EB6FC82800C
:100400009357550086073315A028C176E98E1387C8
:1004100017004205558F5D8D91C9733025BE73302D
:1004200027BE732005BE732007BE8280733005BED1
:10043000733007BE8280411126C206C622C44AC05C
:10044000AE8473790430B7370020938757DF139752
:1004500037003317E028F19BAFA6E744F98EEDFE95
:100460000F003003F327503013054503F19BB347CA
:10047000F5209843B7370020938747C2131425000F
:100480006306F7006384E500EF10204DF32750303A
:10049000F19BA29784C30F0030030F003003B737DE
:1004A00000209387C7DEA38407009377890073A099
:1004B0000730B2402244924402494101828079715E
:1004C00006D64AD052CC56CA5AC873790430B737C8
:1004D0000020938757DF139737003317E028F19BED
:1004E000AFA6E744F98EEDFE0F003003F32750303E
:1004F00013074503F19BB347F72083AA0700B737DB
:100500000020138B47C2131A270063876A0B22D47B
:100510002E84638EBA0C26D2B73400209384449E76
:1005200033879A409307F00263E6E7084ECE5EC633
:1005300062C493574500F3A707BE937BF5003317BA
:10054000A02893595500C183131C07018609B31BCA
:100550007029B3FBFB00336C3C0173300CBEC177D8
:100560007D8F8509B3E9E90073B009BE0F00300340
:10057000F32750BE1397070101486350071ED68723
:1005800001459843D44313768700137707801317E8
:10059000B74893D5464119E2B306B700630DD404BA
:1005A0000387A7003E85B327E720634C0718B3C72E
:1005B0009720C1BF22549254F3275030F19BD29719
:1005C00023A057010F0030030F003003B73700207E
:1005D0009387C7DEA384070013798900732009304D
:1005E000B2500259624AD24A424B4561828022543B
:1005F000938A47C2D1B70386A700634506183327FD
:10060000C62033479720144393151600584313F51B
:10061000860019E593F606809396B648518736977B
:1006200063835703931617000565E98EBA9693F610
:1006300006809396B648520793E6760B1367770EBB
:1006400094C31317F728B386C50033C89620034513
:10065000B800D8C33167A385A7008308A800139505
:100660002600130727E42385170163CF080A835662
:1006700088002105269513D8160013973600937825
:100680000804137707023367170113931600938842
:1006900087003307174113730308937808301A97BC
:1006A00013D82600139326009D824697C18A93781B
:1006B00003401373E800B3E6660046973697931835
:1006C000B0282A973378180133070741931617008B
:1006D000135537000563131877001189B3F66600C8
:1006E00033781801C98E13151700B3E60601137588
:1006F000056013582700C98E1378081013151700CA
:10070000B3E606011375050813581700C98E137850
:1007100008041315270033E706019376850329653E
:10072000558F93061500558FB736002003C556E543
:10073000B295B3C595202394E7002385A500A38A2D
:10074000C6E463980B0273300CBE73B009BE22542A
:100750009254F249B24B224C85B5918366C293FC08
:10076000F71F63049501EF10401F13884C03924C50
:1007700039B573302CBE73B029BE73200CBE73A084
:1007800009BEF1B7631F08025DC17177130727E443
:10079000FD562314E5002305D50033879740B7B6EF
:1007A000AAAA9386B6AA09873307D702B7360020CC
:1007B00003C656E52385C700A38AE6E4E3850BF864
:1007C0004DBFB736002013878700938606A2998E07
:1007D00013971600056693D53600718F918913968D
:1007E00076001315B0284D8F698E93951600518FA2
:1007F00093F5056013D626004D8F1376061093955A
:100800001600518F93F5050813D616004D8F1376F9
:1008100006048A06518F93F68603558F13671700D7
:100820001317D7282394E700E38F0BF099B7DA8AE0
:10083000ADB7F32750BE1397070181456349070001
:10084000918393F7F71F9387470393952700737658
:100850000430B7370020938757DF139737003317DB
:10086000E028F19BAFA6E744F98EEDFE0F003003C0
:10087000373700201307479EB307E540B7B6AAAA4B
:100880009386B6AA8987B387D70293974760F326E2
:100890005030F19AAE9694426387A6048306A7006F
:1008A000638DF604830667016387F60683062702D5
:1008B0006385F6068306E7026383F6063737002072
:1008C000834657E5A30AF7E42305D5000F0030035C
:1008D000B73700209387C7DEA3840700937786008D
:1008E00073A00730828073275030B7360020719B89
:1008F0002E97938646C214C3D1B78146B3A6D6209D
:10090000F175B3C6E6207D58138725E423850601DB
:100910002394E60065B78546D5B78946C5B78D46A9
:10092000F1BFB73700209387C7DEAE971CC1828026
:10093000011122CC26CA37340020B734002006CE5D
:10094000930744C49384C4C463F897024AC84EC64C
:10095000130444C4FD591309F00F1C409DC33D34DA
:10096000AA8522857D3F231224010F003003210434
:10097000E36594FE4249B249F2406244D2440561C3
:1009800082802934AA852285693F230234010F0021
:1009900030032104E36394FCF1BFB736002083A742
:1009A00086E573770430139637003316C028F19B21
:1009B000AFA5C744F18DEDFD0F00300383A786E599
:1009C0000F003003238007009377870073A0073060
:1009D000332010000145814582805D7186C6A2C426
:1009E000A6C2CAC04EDE52DC56DA5AD85ED662D4EF
:1009F00066D26AD06ECEF32750BE13970701634AC2
:100A0000073293D9470093F7F91F898393F9390087
:100A1000331A302937090B406399073437370020E0
:100A2000B3C73721130747E3B3C7E72083AA0700FB
:100A30008D6793874704CA97B3C92921138B8A000E
:100A400023A047017D54FD54039D8A00232E4903B2
:100A500063520D0883D74A009397576063DE0714EB
:100A600083C76A006396071E83968A0063C30604E1
:100A700003A74A01B3A6D620FD57B3E6E62083AB11
:100A8000860003ACC6006383FB2A0327890283A781
:100A90000901B386EB40998F63F4F60023A879012E
:100AA0004A85EF00702F63C68501E31FBCF8E37D24
:100AB00075F933201000B640264496440649F25991
:100AC000625AD25A425BB25B225C925C025DF24D8A
:100AD0006161828083A74A01B32BAD214A85B3EBC4
:100AE000FB2003ACCB0083AC8B00EF00F02AE3C308
:100AF00085F76309BC1C634B0C1C03A70B01B717DC
:100B000000109387A79D83A54B016306F724839765
:100B10008A0003D52B00C2075D8D02972E87AA8D10
:100B2000B3E7ED006384071A635B0720B386BC411B
:100B3000B3BCDC00B307EC40B387974103970B00CD
:100B400023A4DB0023A6FB00E34607F003A54A012C
:100B50003328E720131617003368A8208325C80020
:100B600083288800E3C8B7EE6394F500E3E416EF4A
:100B70002394EA0013888A0031A0832886004C461B
:100B8000131617003A963366A62063CDB70063822A
:100B9000F51E0317060032883326E7203366A620A9
:100BA000E35D07FC2390EB002310A80183D74A00E4
:100BB00093975760E3C607EA83A70A017377043067
:100BC00093963700B316D028F19B2FA6D744758E85
:100BD0006DFE0F00300383D84A00FD572392FA00C0
:100BE0009398586083A70A010F0030032380070001
:100BF0009377870073A00730E3C408E603A54A0192
:100C000003978A0033A818213368A820032388009B
:100C10000326C800DA85635A070039A8638CC60E1C
:100C200003970700BE8563490700B327E720B3E7B2
:100C3000A720D447E354D6FE23901501831808005B
:100C40002310E800E3DE08FA83C76A00E38E07E0BA
:100C500023830A0003978A007D555A83E30BA7E498
:100C600083A84A01B327E720BA86B3E7172103D642
:100C70002700BA853A881316566003970700634326
:100C800006023E83E304A7DEB327E720B3E717217C
:100C900003D62700BA853A881316566003970700D3
:100CA000E35106FE80C7C4C7638AD5002310E30062
:100CB00083D68A002390D7002394BA00C286E31516
:100CC000A7FC6DB3E36895D9E3590CE203D70B0099
:100CD00083A70A012394EA007377043093963700C0
:100CE000B316D028F19B2FA6D744758E6DFE0F004A
:100CF000300383D62A0083A70A012390DB002391C7
:100D0000AA010F003003238007009377870073A0A8
:100D1000073089B39447E375D3F023901501831806
:100D200008002310E800E3DD08EC39BFE31F7CD5A1
:100D300085BB054AD287814937890B40C5B14A85B1
:100D40003AC6EF0070053247B306B501B3B7A60047
:100D50002E97BA97E5B39C492E852EC682973DD52E
:100D6000B24583AD0500D84165BB854737890B4047
:100D700075B1E3F016E33DB5011122CC3734002004
:100D8000130404A31C4806CE91CB6244F2403735CD
:100D90000020130585E5A945056161B68D45370538
:100DA0000B4026CA4AC84EC652C4EF00E07C370A40
:100DB0000B408D4423264401EFF04FDDB70700D0F0
:100DC000230094003737002003A807001307C7DE6D
:100DD0005C482A97B706110018C87D56FD16BD4518
:100DE0000947A300040114C42311B4002312C40052
:100DF0002394E7042149114F954E194E1D43A548F0
:100E00002948B546394785492D45B1452390970670
:100E1000239CE7072398D7092394C70B2390670CDB
:100E20002398170F239407112390A712239CB7121E
:100E30002398D7142394E7162390C70023983703E9
:100E4000239C270D239C0700B715001023202A039D
:100E5000B737002026859385A59D23A087E4EFF072
:100E60008FDDCE852685EFF0AFD9B7270B406244E2
:100E7000D244B249224AF24023A0270542493735DD
:100E80000020130585E5A945056161BC37350020C3
:100E9000130505A38280011122CC26CA4AC84EC67A
:100EA00052C406CE2A84AE843289368ABA8981EF4A
:100EB000E52D3385A44033B5A400B305B940898D31
:100EC000014563C2050C1C487377043093963700C4
:100ED000B316D028F19B2FA6D744758E6DFE0F0058
:100EE0003003831824005448218BB3A71821B3E79B
:100EF000D720144863C1080A03D607002311C40091
:100F00000F003003238006007320073003D827002A
:100F10000547139508013A98460813581801337885
:100F2000E80A23A8470123AA370184C723A627017B
:100F300023910701336505011848F3760430131631
:100F400037003316C028719BAF25C744F18DEDFDE6
:100F50000F0030030356440018482390C7002312A3
:100F600014010F0030032300070093F7860073A0DD
:100F70000730034704005C448966938646043317B0
:100F8000E028B69798C3F2406244D2444249B2493D
:100F9000224A056182800F003003238006007320FF
:100FA0000730F2406244D2444249B249224A7D5558
:100FB00005618280AA870849737804309318350048
:100FC000B318102971992F23154533731301E31CAE
:100FD00003FE0F0030030393270083A84701137516
:100FE0008800332863203368182183A80701634BE6
:100FF0000308035E08002391C7010F00300323801C
:1010000008007320053083582800054E131503018E
:10101000F298C60893D81801B3F8C80B232AE80041
:101020002328D8002324B8002326C8002311180140
:1010300033651501984BF3760430131637003316D9
:10104000C028719BAF25C744F18DEDFD0F00300323
:1010500003D64700984B2310C800239267000F0067
:1010600030032300070013F786007320073003C7FF
:101070000700DC478966938646043317E028B69755
:1010800098C382800F00300323800800732005304E
:101090007D5582800357A50093D7054163D8E704A7
:1010A0005449B3A7F7201849B3E7D720F3760430A3
:1010B000131637003316C028719B2F28C744337886
:1010C000C800E31C08FE0F00300303D62700B3C599
:1010D000050813F78600B3460608630BB6001C49E3
:1010E0000F00300323800700732007300145828002
:1010F0009396F6282391D70085472303F5001449DA
:101100000F0030032380060073200730834605005C
:101110005845096613064604B316D02832973E8513
:1011200014C38280011122CC26CA4EC6AA8406CEE0
:101130004AC89D291307803E3384E402B707008024
:10114000FD17B3B4E402B309A40033B48900AE942C
:10115000269463F487003E84FD599384A9FF33B934
:1011600034019307F4FF3E99636A240363068902FE
:1011700025293385A440B305B940B3B7A4009D8D9C
:10118000634AB002CDC9A2856244F240D2444249CA
:101190004E85B249056171A1E3FC99FC312181447E
:1011A00001493385A440B305B940B3B7A4009D8D70
:1011B000E35AB0FCD52E3385A44033B5A400B30563
:1011C000B940898D63C10502B7160010373500207C
:1011D0009386A699130505A30147A6854A86D93BA0
:1011E000FD57E302F5FAB7060B4037360020DC5214
:1011F00063E727019856E37897F8E316F9F8832711
:1012000086E57377043093953700B315B028F19BCA
:101210002FA5B7446D8D6DFD0F003003832786E544
:101220000F003003238007009377870073A00730F7
:10123000332000006DBF21D9B5BF411122C426C2A1
:1012400006C6AA842E84732750BE9317070163DA5B
:1012500007044AC037390020930709A303C70700D2
:10126000DC473347F7209C57184BB306F5401D8FDA
:1012700063EDE60433200000B7070B40D853014567
:101280006369B70A9C570D8F024933B5970033370E
:10129000E00013351500598DB240224492444101BB
:1012A0008280B7070B40D8530145E367B7FE9C57D0
:1012B000B240224433B597000D8F3337E000133529
:1012C00015009244598D41018280F92C3385A44048
:1012D00033B5A400B305B440898D63C20506B716C3
:1012E0000010A6859386A69901472286130509A3B7
:1012F000D131AA856355A004B7070B40D853636A60
:1013000087049C5763E59704130509A361333707E6
:101310000B405C53014563EE87001457818F3337D0
:10132000F000B3B7960093B7170002493365F70092
:10133000A5B7B24022440249924441018280370756
:101340000B405C5363FA870002490145B1B7E31DC6
:1013500087FA332000004DBF1857818FB337F00054
:101360003337970013371700024933E5E7002DB7ED
:10137000011122CC4AC806CE26CA4EC633E8C500A3
:101380002A843E89630508129357F641B3C4B70017
:101390003385F440B3C9C70033B8A400B389F9401A
:1013A000AA84B38909412322C90023248900232860
:1013B000D9002320B900232AE900FD22AA94CE9562
:1013C00033B5A400B70700803306B500FD1763F4FA
:1013D000C7003E86FD541848F37704309316370053
:1013E000B316D028719BAF25D744F58DEDFD0F00C6
:1013F0003003831524005448A18B33A7B5203367ED
:10140000D720144863CA050A035507002311A40016
:101410000F0030032380060073A007308356270097
:10142000054537180010AA96C606C582B3F6A60A67
:10143000939705011308A89D2311D700232A27019C
:10144000DD8E04C71C4850C723280701737604307B
:101450001398370033180029F19BAFA80745B3F85C
:101460000801E39C08FE0F003003035844001C48A9
:10147000231007012312B4000F003003238007005C
:101480009377860073A00730034704005C44096625
:1014900013064604F24062443317E028B29798C31B
:1014A0002326D900D2444249B2490561828085444D
:1014B000A68581490146C5BD0F0030032380060083
:1014C00073A00730F2406244FD562326D900D2446F
:1014D0004249B2490145056182805845AA8719E30E
:1014E000014582801045935607418355A60063D677
:1014F000B604484AB3A6D6200C4AB3E6A6207375B4
:1015000004301398350033180029F199AFA8054528
:10151000B3F80801E39C08FE0F00300303D826004F
:101520003347070893758500630D0701184A0F00BC
:1015300030032300070073A00530014523A60700F0
:1015400082801317F7282391E60005452303A600A0
:10155000184A0F0030032300070073A005308346AC
:1015600006005846096613064604B316D02832977B
:1015700014C323A607008280B787F4BFAA97373524
:10158000002093B717001305C5E5374600103E95B8
:10159000130646CA6FE03FD94C51AA8788572E8759
:1015A000CC53E31DB7FE8280B7070B40CC5388575E
:1015B0002E87CC53E39DE5FE828037070B405C53BA
:1015C00003288702BE865C53E39CD7FE33060501E1
:1015D000BE953337A6002E97636CF7026388E70247
:1015E000B7070B40DC5363F7E700B7060B40DC524C
:1015F000E3EFE7FE639BE70037070B4021A054535E
:101600006395F6001457E3ECC6FE8280E37A06FD8C
:10161000B7070B40DC537D573A86E398E7FC3E86DC
:10162000E1BF37070B405C53E3EFB7FE639BF50068
:10163000B7070B4021A0D8536395E5009857E36C9A
:10164000A7FE8280011122CC2A84194526CA06CE23
:10165000AE84DD2A55C14AC84EC6B7870740370752
:101660000004630DF40EB727024098C3B70602408A
:10167000B737024098C3A1069C42B377F740EDFF0D
:10168000B787F8BFA2971387C18093B71700B3A796
:10169000E7201945130700102390E70075229317E0
:1016A0003500B3D79702850713D7770039EB930935
:1016B0000004854654D018D40329040393771900F5
:1016C000BDE385649384C402A2945C5423A0040007
:1016D0002328240319458D2A5C540A053355350304
:1016E00093C7070793F7E7079CC09306103042495A
:1016F000B2490D4714D838C4F2406244D24405615F
:10170000828041667916C166637DE604FD1654D079
:10171000014718D403290403B7094000938909FC41
:1017200093771900D9DF8D6793870703A297130773
:10173000103098C344501C5419459A04BE94292271
:10174000B7872B8F938757B7B337F5021395A4004C
:101750008145AD833355F5028D35A5B737070008B0
:1017600019B7858393F7F70393196700BA86BE9973
:101770003E8789B7B70701403327A5203347F720B5
:1017800003284700C1676373F8005CC31308C5FFF3
:10179000854763F60707373300201303C3E0B347D9
:1017A000652083A807008D67BA97131EB02823A071
:1017B000C7010A0563990802832807001606856792
:1017C000334616011376060EBA9790C30546637129
:1017D00006078967BA971316B02890C31A95C16790
:1017E00014C15CC3828083274301B3D717038507E5
:1017F000B3A7F7209387E7FFE3DE07FE75BFE39CFF
:10180000F5F88D67BA970D4823A007011C47858B13
:10181000F5DF0328070016068567334606011376B1
:10182000060EBA97373300200A0590C31303C3E0AE
:10183000032807003316B028B3C505018D898CC372
:101840001C47F18FF5DF71B7B73700209387C7E0EA
:101850003345F52008418280B727B700938707B04A
:10186000B3D7B70283280500C206320733E8E60083
:101870003356F60263C40804B78705401167630056
:10188000F506B727024098C3B7060240B7370240B3
:1018900098C3A1069C42B377F740EDFF0D670CC1DA
:1018A000110710C52A97930710021CC31C41E3DFE0
:1018B00007FE23260501A1471CC382801C4193F724
:1018C000F703E39BB7FA1C45D207D183E396C7FA27
:1018D0005C4537770700F98FE39007FB828021672B
:1018E0004DB7B78710403325A5203345F5204CC1AF
:1018F00085471CC18280A1679387A7DF83D7070034
:1019000085458287B7170E409387878298437DDF8E
:101910000F0030038280B7170E403E871307C7823F
:101920009387C7800F00300323A007009107E39B34
:10193000E7FE82808567938707AA378704401CC328
:101940009307F0025CC7B7B6FA00B7A7044094C388
:101950005C43E3DF07FE828082803745001041113F
:10196000130585CC06C6EFE01F98411122C426C29C
:1019700037440010B744001006C6930704C0938490
:1019800084C363F99700130404C01C4011048297B8
:10199000E36D94FEB2402244924441018280B747F5
:1019A000EFEF9387F7B7B72602403707F4039CC2DF
:1019B0005917B7370240B706024098C3A1069C42A8
:1019C000B377F740EDFF8280B7071150F847A16762
:1019D0006303F7008280B727115037070400F8C768
:1019E0008280370700207D17B7370240B7060240D4
:1019F00098C3A1069C42B377F740EDFF828015653E
:101A000041111305352506C6FD35B240AA8711459B
:101A100041018287156541111305352506C6E13D53
:101A2000B240AA870545410182876FE01F984111A6
:101A300022C406C626C24AC0370401402322040835
:101A4000D53DB73701400547D8DF7C40E39FE7FE2F
:101A50000D47B737014098DB0544370701401C5F4D
:101A6000E39F87FE37366859A285130606F00947BB
:101A7000954637050540CD33154737968647BA86D4
:101A8000A285130606C037850540F933B726B7008F
:101A9000938606B0014689451145E939B7D6F00865
:101AA000A2859386061801461545E931B776DC0212
:101AB000938606C00146814521456D39B776DC0223
:101AC000938606C00146814525456D31B7D6F0089D
:101AD000938606180146814519456939B7D6F0083D
:101AE00093860618014681451D4569311145A93B7C
:101AF000B7E71B43938737E8B334F502014419492C
:101B0000C9802285A6850504E93BE31C24FFB24079
:101B1000224492440249410182808280797122D418
:101B20004ECE52CC56CA5AC85EC662C466C206D6EB
:101B3000C68C26D24AD093F83800AA892E8A328BD6
:101B4000B68ABA8B3E84428C639F08063309F840FC
:101B50003299B28463FD07072686D6868504D2852E
:101B6000130500028299E39924FF21C022993306CC
:101B700089407D14B3878B0003C50700D686D285C4
:101B8000CA8482996DF493FC2C0063800C02338B21
:101B90006441637C8B012686D686D28513050002BC
:101BA000050B85048299E3688BFFB25022540259D9
:101BB000F249624AD24A424BB24B224C924C2685A1
:101BC0009254456182803289B284CDF36DBF3289EF
:101BD000D1FFE1BFA242C28F024E93FE2200124803
:101BE0003E8363960E046318080C63F2C70593F3F3
:101BF0001200930E0002130F00036309D3010503C3
:101C0000B3076700A38FE7FFE369C3FF638203069F
:101C1000930E0002130F0003637B03016304D30DD3
:101C20000503B3076700A38FE7FFE31903FF93F7EB
:101C30000201B5CB93F70240B1E763110304C1473A
:101C40006383F8168947638FF81693070003230010
:101C5000F7000543639B0F0693F74200F5C3B308F3
:101C60006700130EB002930713002380C80191A0F0
:101C700093F702018DCB93F7024089E763036E0A65
:101C80006301680AC1476388F80689476384F808D6
:101C900093070002630DF3009A870503BA97930830
:101CA00000032380170193070002E315F3FA93075B
:101CB00000029688A5B593F3120063820302638D38
:101CC0000F087D18E3E7C7F3A1B7B3086700130E49
:101CD000D0022380C80193071300968881B5E3EAF8
:101CE000C7F1B1B793F70201F9D393F70240D9D7FF
:101CF000C147E39EF8FA93F70202A5CB93070002CF
:101D0000E307F3FAB3076700930880052380170100
:101D10000503BDBF93070002E30BF3F89A870503A1
:101D200011A89307F3FFB1CF414E6383C80B094E4F
:101D3000E396C8F7BA97930820062380170189BF56
:101D400093F882009A87E38608F63A939308000294
:101D5000850723001301B1BF93F7C200B337F0002A
:101D60003308F840E367C3E965B593070002E30071
:101D7000F3F4B30767009308800723801701050376
:101D800001BFC147E390F8EC93F702029DCF93089F
:101D900080059307000323001701A300F700094300
:101DA000E38C0FEA1DB793F7020285C39307800502
:101DB000930800032300F700A30017010943E38DF4
:101DC0000FE821B793072006E5B793078007CDB743
:101DD0009308E3FF13FE0202BA9863070E00130E86
:101DE00080052380C8015DBD130E80072380C801D4
:101DF00075B511E182806F10D01D01C59C41CC41A9
:101E00008287828031714AD94ED752D55AD12A89D8
:101E1000AE89328B368A3A85BE853A86BE8622DD09
:101E200026DB56D35ECF06DF62CD66CB8E4BBA84FF
:101E30003E8442C0C68A97100010E7804083631535
:101E4000054CB747001003A6070083A64700268568
:101E5000A2856AC96EC797000010E7808094634727
:101E60000524B747001003A6870083A6C700268570
:101E7000A28597000010E780E0866347A01CB74763
:101E8000001026C422C62245B24503A6070183A638
:101E9000470197000010E780E084634DA016B74724
:101EA000001026C822CA4245D24503A6870183A650
:101EB000C70197000010E780C08E634D051426CC43
:101EC00022CE6245F2450146814697000010E78028
:101ED000408D634E051A02DC93F70B4099E3994756
:101EE0003EC08246130D0106EA87938806FE25460A
:101EF000930500036378D6242380B700FD16850779
:101F0000E39A16FF930C000226D022D20255925576
:101F100046C097000010E78040798248B74600101D
:101F2000938606FAB3E6D82003A846009C4246CC26
:101F300042C23EC0AA8D97100010E780E08226D4EE
:101F400022D62A86AE862255B25597000010E78029
:101F5000A0E60246924697000010E78080902E8C03
:101F60002AC897000010E780A07A2AC497100010B2
:101F7000E780E086C24762DA2A863ED8AE864255BE
:101F8000D255374C001097000010E780E0E203269E
:101F90000C0283264C022AC82ED097F0FF0FE78050
:101FA00060742243E2486355A02A05031A8546C897
:101FB0001AC497100010E78080822A86AE860245F8
:101FC000924597F0FF0FE780C07D2243C2486344EB
:101FD000A000850D0143638C081637D5CCCC1305C2
:101FE000D5CC130E0002A54E638ECC2D3337A30241
:101FF000850CB3069D01FD180D83B347E7208607C6
:10200000B307F34093870703A38FF6FE63FC6E28A4
:102010003A83D9BF26DC22DE6A54DEC16257F2570A
:1020200002484A4DBA4DFA50DA54FA4B6A4CDA4C2F
:10203000D688D2869A5A2A5A5A86CE850A5BBA59C7
:102040004A854A59296191AE93F74B009DEB37477A
:102050000010130787D68D476A544A4DBA4DFA507F
:10206000DA546A4CDA4CDE885688FA4B9A5AD28691
:102070005A862A5A0A5BCE854A85BA594A59296135
:1020800071BC37470010130707D69147F1B7A6C8B0
:10209000A2CA4646D6460145814597000010E78012
:1020A000A0D18547AA842E843EDC3DB593F73B0042
:1020B000DA8495E3914763F057031304CBFFB3042D
:1020C00054015A842286D2860504CE851305000267
:1020D0000299E31994FE37440010130C04D713043B
:1020E00004D7711CB30C94000345340033868C4034
:1020F000D286CE857D140299E31884FF93FB2B00D2
:10210000910463810B02B387644163FD5701268606
:10211000D286CE851305000285040299B3876441F7
:10212000E3E757FF4A4DBA4DFA506A544A59BA5933
:102130002A5A9A5A0A5BFA4B6A4CDA4C2685DA54C8
:10214000296182808247B688B38CD74075BB6E8583
:1021500097000010E7804061A6C4A2C62A86AE861A
:102160002645B64597000010E78000C503240C0201
:1021700083244C022AC02286A6862E8C97F0FF0F5D
:10218000E7802062634F05008247E2CEF645BECC71
:1021900066452286A68697F0FF0FE780A054635A13
:1021A000A0143765666613057566930800021DA0C6
:1021B000B397AD02850CB3069D018987998F33C70C
:1021C000F7200607B38DED4013870D03A38FE6FEBE
:1021D000BE8D9DCF13D7FD41E39C1CFD93F63B00C4
:1021E00005466399C60463870A04E257C1CFFD1A06
:1021F00063F25C051306000293050003638CCC02B6
:10220000850CB3079D01A38FB7FEE3E95CFF31A006
:1022100093F63B0005466387C61693060002638B60
:10222000DC00E257B5CB1306D002B3862C00238026
:10223000C606850C6A87DE885688E687D2865A8667
:10224000CE854A85EFF09F8DAA844A4DBA4DE9BDEF
:10225000C24746C41AC0BEC082570645BEC2B74771
:102260000010964503A6070283A6470297F0FF0FCA
:10227000E78020530243A248E34F05D463100308CC
:10228000050391BB93F6CB00FDCAFD1AE3E45CF7AE
:1022900093060002E380DCFA93F64B0095CE13061A
:1022A000B00261B76380CC03E69893050003130680
:1022B0000002638C9801850CB3079D01A38FB7FEC4
:1022C000E399CCFE930C0002E9BD8A989306E002E4
:1022D000850C2380D806F1B593F68B00A1DE13069A
:1022E0000002B387CC00B38627002380C604850C88
:1022F00091B713881D00937DE8FF65B593761300B1
:10230000E38B06CC0503C1B993F73B005A848DE3F8
:102310008D4763FF57011304DBFF5694DA8426864A
:10232000D2868504CE85130500020299E31994FE36
:10233000B74400109384C4D6938CD4FF228C03C579
:1023400024006286D286CE85FD14050C0299E3989E
:1023500094FF93FB2B0093043400E3870BDCB387DB
:102360006441E3F357DD2686D286CE85130500024D
:1023700085040299B3876441E3E757FF75B3E3EB44
:102380005CE74DBDE38B0AE8E257E38D07EEFD1AEB
:10239000E3E25CE7E3991CE971BD0D712328211587
:1023A00023263115232441152326B1132A89AE890A
:1023B000B28D368A3A85BE853A86BE86232C811434
:1023C000232A9114232251152328A113232E1114FB
:1023D000032D01163A84BE84C2C1C68A970000103C
:1023E000E780E0286317051CB747001003A68700A5
:1023F00083A6C7002285A685232C8113232A911347
:1024000097F0FF0FE780002E6341A01AB747001036
:1024100003A6070083A647002285A6852320611511
:10242000232E711397F0FF0FE780A0376344051C3C
:1024300022CC26CE6245F2450146814697F0FF0F39
:10244000E7802036139BF4696344050022CC268B79
:102450009317B028B376FD0013770D40BAC336C882
:10246000B36764016311071A639C071E63920658E1
:102470009947BEC1937C2D00639E0C56114CB3F757
:102480008A0BF1173EC8814B22D026D202559255B5
:102490000146814697F0FF0FE780A030634605565E
:1024A000E2475ADF3EDD6A57FA570E48C248937634
:1024B000FDFF9396B648135D5D4836C06E86D286A2
:1024C000CE854A857D1DEFF0FF93137D0D022A8690
:1024D000D28613055D04CE85130416000299B30657
:1024E000704137D3CCCC7D1CB3E6DB0A13D8FB019B
:1024F00018021303D3CC8147254E930E000219A076
:102500006384D70333B6660285073685B308F700C0
:102510000D82B345C62086058D8E93860603A38F54
:10252000D8FEB286E36EAEFC954636C462C202C0E7
:102530002286A948D286CE854A85EFF0AFE9638A24
:102540000C023304B54163765403AA8433868D00AC
:10255000D286CE851305000205040299E36854FF74
:102560003387B44105072685814763FAEA480505A4
:102570003E958320C11503248115032B0114832B61
:10258000C113032C8113832C411383244115032988
:1025900001158329C114032A8114832A4114032DB0
:1025A0000113832DC11235618280032C8113832C8A
:1025B000411322C826CA4247D2470E482320A117FA
:1025C000D688D2866E86CE854A85032481158320DF
:1025D000C11583244115032901158329C114032A38
:1025E0008114832A4114032D0113832DC1123561F7
:1025F0006FF05F81032B0114832BC113032C811314
:10260000832C41137DB7B9EFE38606E6814B8E47F5
:10261000014C63C9FB40A2C5A6C72E45BE45014675
:10262000814697F0FF0FE780C017634C053AA2D1AF
:10263000DAD30E579E57131DBD48136D0D406288A7
:10264000032B0114832BC113032C8113832C4113FF
:102650002320A117D688D2866E86CE854A85B5B747
:102660009947BEC113554B011375F57F130515C06E
:1026700097000010E780400FB747001003A68702BD
:1026800083A6C70297F0FF0FE780A01DB747001091
:1026900003A6070383A6470397E0FF0FE7804019CF
:1026A0009317CB003706F03FB183D18F3ED622D4AB
:1026B000B747001003A6870383A6C7032A8CAE8BF7
:1026C0002255B25597F0FF0FE780006FB747001013
:1026D00003A6070483A6470497F0FF0FE78060185E
:1026E00062D85EDA2A86AE864255D25597E0FF0F51
:1026F000E780001497000010E78020FBAA8B97006A
:102700000010E7806006B747001003A6870483A681
:10271000C704AA8C2E8C97F0FF0FE7808014B74770
:10272000001003A6070283A6470297E0FF0FE78089
:10273000201097000010E78040F73747001066DC54
:1027400062DE03260705AA87F255625583264705F0
:102750003E8C97F0FF0FE780C010AA8C628562D490
:102760002E8C97000010E7802000B747001003A6CA
:10277000870583A6C70597F0FF0FE780800EE6C0A8
:10278000E2C22A86AE860645964597F0FF0FE7809F
:10279000A062AAC4AEC62646B6462ADC2ED897F05A
:1027A000FF0FE780000CC2576257AA8CBECABAC896
:1027B000BACCBECE2E8C4646D6466645F645BEC041
:1027C00097E0FF0FE780C006B7460010E6D0E2D2E0
:1027D000AA882E8803A60606065583A646069655A1
:1027E00046DC42D897F0FF0FE780E09037430010B7
:1027F000032683068326C30697E0FF0FE780400386
:10280000E6D4E2D62A86AE862655B65597F0FF0F57
:10281000E780608EB746001003A6060783A646072A
:1028200097E0FF0FE780C000E6D8E2DA2A86AE869E
:102830004655D65597F0FF0FE780E08B2647864731
:102840002A8CBADCBEDEB747001003A587076656A0
:10285000F656AE8C83A5C70797F0FF0FE780C055EB
:1028600062C166C32A86AE860A459A4597E0FF0F85
:10287000E78000FC4258E2582A8642C746C5AE8629
:102880002A45BA4597F0FF0FE780E086B74700106A
:1028900003A6070883A6470897E0FF0FE78040F9E3
:1028A000A25701473AC99387F73FD2073ECBDA4692
:1028B0004A4697F0FF0FE780C0FA2ACD2AD82ECFDC
:1028C0002ED422D15AD36A46FA460A559A5597F021
:1028D000FF0FE78000EDA2574257374300106351C6
:1028E0000502BAC9BECB4E45DE45032683068326C4
:1028F000C306FD1B97E0FF0FE780E07F2A87AE87C6
:1029000093863B069305600C3A863E85937C2D00AA
:1029100063EDD502C246114CA1E663775C01639773
:102920000C109386CAFF36C8E3800BB65ADB3AD543
:1029300022D93ED72A56BA564A55DA5597E0FF0FA4
:10294000E780607B2ACC2E8B81B6C246154C89EA83
:10295000E37E5CFD63900C0E9386BAFF36C8F9B730
:102960003ED43AC8498EE30406CAA2CDDACFB746B0
:10297000001003A686086E45FE4583A6C60897F09C
:10298000FF0FE78020D64247A25763440502B746AF
:102990000010A2D5DAD703A606092E55BE5583A688
:1029A000460997F0FF0FE780C0DFE34205C64247C4
:1029B000A2578E4691CE1E4601CEFD16B6C1637556
:1029C0005C01638B0C04894C02C8E3910BF66DBC6F
:1029D000E37C5CFF63820C0402C8894CE3980BF42F
:1029E00065B4131BFB69A2D9DADB4E57DE57A1B1E0
:1029F000154C15B102C8814B894C114C71B49387A9
:102A0000FDFFD697858FA5B6E247131BFB69DADF7A
:102A1000BEDD6E57FE5751BCB3868A4136C8E39778
:102A20000BF09DB4338C77417D1CF5B6894CE39F48
:102A30000BEE99BC894CDDBDB7370010357193871B
:102A400087A322CD52C5E6DAEAD8EED606CF26CB4A
:102A500023A8F180AE8C328A36843A8DAA8D6381A8
:102A6000053A0345040081446305053A4EC756C341
:102A70005AC1DEDEC149930B5002B74A0010254B04
:102A800011A82686D286E6858504829D034504002A
:102A9000630005120504E31675FF81460345040033
:102AA00013071400930705FE93F7F70F63E8F90087
:102AB00013864AE0B3C7C7209C438287930705FD6E
:102AC00093F7F70F637DFB089307A0028148630328
:102AD000F51A9307E00201486309F50A930785F99F
:102AE00093F7F70F49466363F60437460010130661
:102AF00086E4B3C7C7209C43828793E616003A84D6
:102B000071BF93E626003A8451BF93E646003A84AB
:102B100071B793E606013A8451B793E686003A848A
:102B2000B5BF0345140093E606100507930770062A
:102B30003A8463E7A70A93074002E3F4A7F49307F4
:102B4000B5FD93F7F70F13072004E36CF7F237474F
:102B50000010130747E9B3C7E7209C4382878148E9
:102B6000B3C81821B3A8A820034507003A84938866
:102B700008FD930705FD93F7F70F0507E372FBFECA
:102B80009307E0020148E31BF5F403451400A54751
:102B900093E60640930505FD93F5F50F3A8663FE2F
:102BA000B7289307A002630EF52A3A8405073DB7BC
:102BB000BA499A4A0A4BF65B268463E444019304BB
:102BC000FAFFD2862686E6850145829DFA40228557
:102BD0006A44DA442A4AD65C465DB65D0D6182805D
:102BE000130775F91377F70FBD47E3ECE7E82566A0
:102BF00013061604B317E028F18F639007222946C5
:102C00006304C7081D46E31EC7E603270D00110D28
:102C10006314072693F5F6FE93F6064093E5150236
:102C200098009DEA98002543BD48130E000221A09C
:102C30006384C703B28693FEF60013857E03636444
:102C4000D30113850E0385073306F700A30FA6FEF5
:102C500013D64600E3EED8FCA14642C02EC4268619
:102C600036C2C1480148D286E6856E85EFE09FF600
:102C7000AA8429BD83280D00110D63C208080345ED
:102C800014003A840507B1B593074D004AC9E2DC48
:102C90003ECE03290D007D5663030800428603459E
:102CA00009004A96CA87630705506301F62603C7E1
:102CB000170085077DFB3387274193F70640898AF4
:102CC000638D07243357070B6389065E8946330CEF
:102CD000980046D0A687368D3AD222D4630DFC28C0
:102CE000D2863E86E68513841700829D3307944082
:102CF0004A970345070063060528A287C5B7034521
:102D0000140093E626003A84B30810410507D1B3B6
:102D1000034514009307C006E317F5E003452400BC
:102D200093E606301307340011B50345140093E60B
:102D300006200507E5BB0345140093078006630ED4
:102D4000F52093E606080507D5B3930770066309D7
:102D5000F512930770046306F51A93075004630491
:102D6000F51A1D0D137D8DFF03270D0083274D00E0
:102D7000268636C0E685D2866E85EFF00FE2210DFD
:102D8000AA8429B393076004630FF50E1D0D137D0C
:102D90008DFF03270D0083274D00268636C0E6856C
:102DA000D2866E85EFF00F86210DAA84C5B12686E6
:102DB000D286E685130550028504829DC1B993072A
:102DC0004D004AC9898A3ECE138914006382061CCD
:102DD00003450D0046D02686D286E685829D825820
:102DE0008547C69463F9173F4A86D2860509E6856A
:102DF00013050002829DE31999FE724D4A4979B18B
:102E00000345040037230010930DA3B18144E31F51
:102E100005C40144E3E744DB5DB39307F0066307B1
:102E2000F50663FEA7264AC9930780076302F536B5
:102E30002946BD9A3283814EB1A83E873348082186
:102E400005063328A82003450600130808FD93074C
:102E500005FD93F7F70FE373F7FE328413071600AF
:102E6000B5B903280D000345240009041307140015
:102E70003368080A110D9DB193E51602BA865DB359
:102E80009396B628F9BD93E6060209B721464AC9CA
:102E90003283814E13F5064013FE36FF19C113FE2F
:102EA00026FF93750E20639A053293770E1013094F
:102EB0004D006391075013770E046316072E1377A6
:102EC0000E086306075803560D00631B0634137E75
:102ED000FEFE630705348147980046C272C442C0B3
:102EE0009A88268601485DA293078005630EF50641
:102EF000930720066314F51009464AC93283814EB0
:102F000051BF9396B62893E60602A1BD93F70640FB
:102F100033072641898AE39707DA638B06348946AB
:102F2000A287368C46D03AD226843E8D2286D2861F
:102F3000E685829D0504330794404A9703450700C0
:102F400075F582581257EA87228DE2863E84EA841C
:102F5000D1E6724D4A49665C15BE0345240093E6EE
:102F6000060C13073400D9B641464AC993E6060257
:102F70003283814E05B7825812572254EA86E28482
:102F8000C1BFEA86228D825812572254EA84C9B7FB
:102F9000854763FC1723A2871389F4FFE2DC469977
:102FA00046D026843E8C2286D2860504E68513050B
:102FB0000002829DE31924FF825803450D00E28739
:102FC000228C6286D286E6853E84C694829D665CAB
:102FD000724D4A4965BC898A63890648268CE37A22
:102FE00017F7A698B384E8406286D286050CE6857A
:102FF00013050002829DE3199CFEA1BF13F6064053
:1030000013FEF6FE55E613750E2045E94AC993777F
:103010000E1013094D00639B072A13770E046315E6
:10302000071613770E086309074003170D00935620
:10303000F740B345D700958DB3C505089356F70102
:10304000630207282E86B7DECCCC938EDECC9800A8
:10305000254F930F000219A06384F703B335D603FD
:1030600085073283B302F7008D8133C5B52006058D
:10307000098E13060603A38FC2FE2E86E36E6FFC35
:1030800046C242C072C436882686A948D286E685E2
:103090006E85EFE03FB44A8DAA844A49C5BA9307CA
:1030A000900613FEF6FE631AF53A13F6064021DE8B
:1030B00013FEE6FE13060040B9B71D0D137D8DFF0C
:1030C00083264D0083250D00210D13DFF601B3E7A4
:1030D000D500F9C393D7F641BD8D3387F540BD8E3A
:1030E000B387F640B3B6E5004AC9E2DCB386D74001
:1030F000BA8537D5CCCCAA8E938ECECC1305D5CC41
:1031000081479800930F0002368933862501B33634
:10311000B6003696B336A6024A838507B302F70097
:10312000AE8313DC2600F19AE296158E3386C540F5
:10313000B3B6C500B306D940330CD603B386A60296
:103140003339A602E2963306A602CA96139CF6010C
:1031500013D9160005823366CC00B346C620860616
:10316000B386D54093860603A38FD2FEB285630F44
:103170000302E39CF7F94A49665C46C242C072C446
:103180007A882686A948C5B403470D00BA857DB55F
:1031900041463283814EFDB9631E062A4AC9E2DCEC
:1031A00081458146B9B703460D0005B3A546E3E264
:1031B00076FCD1B713F70640E30F07E013F72600BC
:1031C0006303072A0147268C19BD03450D00268697
:1031D000D286E685829DCA840DB11D0D137D8DFFBB
:1031E000032F0D0003294D00E2DC210DB3672F01F1
:1031F000639E0712137EFEFE630A0512014C9800BF
:1032000046C242C0E287268672C49A880148D286A6
:10321000E6856E85EFE01F9CAA844A49665CBDB0D6
:1032200093565E481307100699C213071004130F34
:1032300067FF25459800930E00020DA093860603B4
:1032400093F6F60F8507B305F700A38FD5FEB356A7
:103250006602E36466C8E382D7C93686B375660240
:1032600093F6F50FE37CB5FCFA9693F6F60FD9BF0B
:1032700063721721338D9800A287330DED402684A9
:10328000368C46D042D2BE842286D2860504E6859C
:1032900013050002829DE319A4FF8258034509002B
:1032A000A6871258A284E2863E8413871800E302A0
:1032B00005CAE3070CC6814619BC637B171B93063E
:1032C00000404DBF9800E31D06DAB5BB83270D0013
:1032D00093D6F701638907163306F04033E6C70A31
:1032E000B7DECCCC938EDECC9800254F930F000236
:1032F00019A06305F503B335D6030505B302A7008E
:1033000032838D81B3C7B5208607B307F640938714
:103310000703A38FF2FE2E86E36D6FFC46C242C008
:1033200072C43688AA872686A9488DB313575E488B
:103330009307100619C393071004D917980026D4D1
:103340006ED866DA52DC22DE014C72CE46D042D212
:103350001AD6FA84328AF68CBA8D3E8415A8930761
:10336000050393F7F70F050CB3868D01A38FF6FEC7
:10337000528681462685CA8597D0FF0FE780C0DB3D
:10338000638F2C0993070002630DFC08AA842E8921
:10339000528681462685CA8597D0FF0FE780401266
:1033A0001375F50FA547E3FCA7FAB307850093F75C
:1033B000F70F55BF83270D0089E7137EFEFE9800A7
:1033C00029E993565E481307100699C213071004A3
:1033D000130F67FFA54E9800130500020DA09386FA
:1033E000060393F6F60F85053306B700A30FD6FE46
:1033F000B3D6670263EF6700638DA500B68733F627
:1034000067029376F60FE3FCCEFCFA9693F6F60F7E
:10341000D9BF46C272C442C09A88AE87D9B4E3F31A
:1034200044F76E87724E82581258A2543253D25CBF
:10343000625A7254C25DE9B303270D00B305E04040
:10344000B365B70AE5BE9800E31A06EC51BD032642
:103450000D00A5BC814798000DB329464AC9F286E4
:103460003283814E05BC93060040E39508E0D5B455
:103470000507B1B805076DB40111B72800102A88F7
:10348000AE8736872C00B2861385A8DF7D5606CE20
:1034900042C43EC6EFF04FDAF2400561828083A756
:1034A0000181011106CE91CFAA86372500102E8703
:1034B000130525DF6C007D568297F24005450561B6
:1034C0008280552EF2400145056182800D457310C2
:1034D00025BE7D15E35D05FE0565130505807310AA
:1034E0004530736004307310003482800290FDBF59
:1034F000411106C6E53F411122C426C206C6374423
:103500000010EFE08FC6B7440010930784C3938484
:10351000C4C363F99700130484C31C401104829749
:10352000E36D94FEB24022449244410182801C41EA
:103530002E85B285828783475501011126CA4EC662
:1035400052C406CEAA892E8AB284E9C76358C00441
:1035500003C70500A9476309F70605478147638547
:10356000E40422CC4AC856C213091A000544A94AE9
:1035700003470900A2860504630657070509E39976
:1035800084FE62444249924A63C09702269A834766
:10359000FAFFCD1793B71700238AF900F240D244FF
:1035A000B249224A0561828003A709003305FA0067
:1035B000B385F4400297269A8347FAFFCD1793B755
:1035C0001700238AF900D9BF83474501D9F71C4169
:1035D0003745001013058509894582978547E39291
:1035E000F4F86DB70346F9FF3547E309E6F8B3850C
:1035F000F6403305FA0063D5D70083A70900829708
:1036000083A709003745001013058509894582976E
:10361000A287ADB71C41F240D244B2495285224A3A
:10362000B285056182879C41011126CA4AC806CE2F
:1036300013070008AE842A89638DE70013871700FB
:1036400098C0BE9423822401F240D24442490561CD
:10365000828022CC03A481814EC652C49389450046
:103660001DE0054781476244B249224A98C0BE9492
:1036700023822401F240D244424905618280904075
:103680005D3D004879DC1C40CE852285FDDB83A7AB
:103690004181F5D7E39787FE9040713DDDB73971E1
:1036A00022DC26DA4AD84ED606DEB28952D456D269
:1036B0005AD02A89AE843684EFD01FEFB7470F0067
:1036C00093870724AA9733B5A700370700803306EE
:1036D000B5007D17BE856374C7003A86FD55B73ABD
:1036E000002013854AC497D0FF0FE780A09AFD57AA
:1036F0002A8B6381F40A39C4373A0010130A6A53DB
:1037000003A481811DC06394090419A0004811CC51
:103710001C402686CA852285F5DB83A7418199C393
:10372000E316F4FE029A004865F4631E0B04F2509F
:1037300062544259B259225A925A025B2685D25497
:1037400021618280373A0010130AEA5255BF5ECEDB
:10375000A94B19A000480DC41C402686CA852285A5
:10376000F5DB83A7418199C3E39687FE029A228500
:103770009305F1000546A3077101029A004869FC10
:10378000F24BE3060BFA13854AC497D0FF0FE7808C
:10379000009771BF4A851921AA84B1BF83A781818F
:1037A0001387818199C76389A700138707019C4B01
:1037B000FDFB91C108C38280FDFD944B14C323A877
:1037C00007008280411106C6BD2EB2400545410169
:1037D0008280797126D206D622D44ECE52CCAA84CB
:1037E000A307A100EFD05FDCB7470F009387072442
:1037F000AA9733B6A700370700802E967D17BE859F
:103800006374C7003A86FD55373A002013054AC451
:1038100097D0FF0FE780008803A48181AA8905C49F
:103820004AD019A0004819CC1C4005469305F10068
:103830002285EDDB83A7418199C3E315F4FEE539C9
:1038400000487DF00259639A0900B2502254F249AF
:10385000624A268592544561828013054AC497D0F6
:10386000FF0FE780C089B2502254F249624A268590
:10387000925445618280411106C622C426C22A8420
:10388000312EAA8485462285A6853686093D03A465
:10389000818111C45C4091CB8297004865FCB240A5
:1038A00022442685924441018280004865F4B2405A
:1038B00022442685924441018280717122D526D30B
:1038C00006D74AD14ECF56CB2A84AE84EFD0DFCD77
:1038D000B7470F0093870724AA9733B6A700370787
:1038E00000802E967D17BE856374C7003A86FD550D
:1038F000B7390020138549C497C0FF0FE78080794E
:103900002A8937350010A68622866C001305656269
:1039100002C69D36B24703A48181AA84B9C352CDA1
:1039200015E06A4A02C663180904BA502A540A59B3
:10393000FA49DA4A26859A544D6182803246E53E3C
:10394000004801CC1C400C082285FDDB83A7418187
:10395000F5D7E38587FE004875F403A481816A4AA0
:1039600002C671D05C4091C7829700484DDC5C4034
:10397000E5FF0048FDB7138549C497C0FF0FE780F6
:10398000007865B73971130341022ED29A8506CEAD
:1039900032D436D63AD83EDA42DC46DE1AC6313F59
:1039A000F24021618280635EB00203A74182B78743
:1039B000F8BFBA9793B717009386C180B3A7D720F3
:1039C000039807003306B500B54583460500630B31
:1039D000D8001C4F93F70702EDFF14C30505E3164B
:1039E000C5FE82801C4F93F70702EDFF0CC3D5B7CD
:1039F00003A801822A866351B00603A741820145CC
:103A00001C4FC18B9DEB05051C4FC18BF5FF14436B
:103A1000B307A600A38FD7FEE394A5FE630D0800AD
:103A2000930700051CDF5C5B85669386460393F76E
:103A3000870336971CC32E858280630D0800930789
:103A400000051CDF5C5B85669386460393F787035E
:103A500036971CC30DC18280630F080083A7418283
:103A600013070005856698DFD85B93864603B697F3
:103A70001377870398C37555828083A7018281CB12
:103A800003A7418203A5C181232C0702828782807C
:103A900003A741821C4FA18BF5FF828041114AC0D0
:103AA00003A64182B787074022C4B307F64093B705
:103AB000170026C206C61384170283A7018201C914
:103AC0009DCFB24022449244024941018280F5DBFD
:103AD0002285232C06028145EFC09F92B745001036
:103AE00022859385A5A7EFC09F9DB240224423A0C5
:103AF000018223AE01809244024941018280AE8658
:103B0000B74500102A8722859385A5A723A0E182C7
:103B100023AED180EFC03F9222858545EFC05F8EF6
:103B200083A7418213070005856698DFD85BB24002
:103B3000224493864603B6971377870398C392442B
:103B40000249410182803746001037470010B747CD
:103B5000001041110346460D0347070D83C7C70CEC
:103B600022C4B70607408945014506C623A2D18273
:103B7000EFC06FF489450545EFC0EFF303A541821F
:103B8000F16593850520EFD0FFAB2244B240373575
:103B90000020130585C28545410109B193773500A1
:103BA0002A879DEFB7867F7F9386F6F7FD551043F2
:103BB0001107B377D600B697D18FD58FE389B7FEBB
:103BC0008346C7FFB307A7408DCA8346D7FF9DC270
:103BD0000345E7FF3335A0003E9579158280F9D281
:103BE00083470700050793763700F5FB098F130518
:103BF000F7FF82801385D7FF82801385C7FF8280FD
:103C0000FE1900109E190010C81900102E1A00107D
:103C1000E2190010161900102A1A001004190010D9
:103C200030090010780D001058190010141A0010F7
:0C3C3000CC340010CC0300105A0100102E
:103C400054696D6572202564206669726564210A75
:103C50000000000052657065617420617420256C5D
:103C60006C640A0048656C6C6F2054696D65722144
:103C70000000000063616E63656C6C65642E2E2E1F
:103C80002025640A00000000446F6E6500000000FB
:103C90000A2A2A2A2050414E4943202A2A2A0A0069
:103CA0000A000000486172647761726520616C618E
:103CB000726D20256420616C726561647920636C8B
:103CC00061696D656400000048617264206173730E
:103CD0006572740052656C6561736500626F6F7424
:103CE000325F77323571303830000000687474709C
:103CF000733A2F2F6769746875622E636F6D2F7228
:103D0000617370626572727970692F7069636F2D6B
:103D10006578616D706C65732F747265652F4845A9
:103D200041442F74696D65722F68656C6C6F5F74A8
:103D3000696D657200000000322E312E30000000E7
:103D40007069636F3200000068656C6C6F5F746946
:103D50006D657200466562202035203230323500B4
:103D6000666E692B00000000666E69006E616E0071
:103D7000666E692D00000000554152542073746432
:103D8000696E000055415254207374646F7574005D
:103D90005541525420737464696E202F20737464EB
:103DA0006F75740006005250D3F07542D43C001079
:103DB00006005250E182887FDC3C00100600525021
:103DC0009A235618EC3C001006005250ABB36053D7
:103DD000383D001006005250BBFF3CB6403D00107D
:103DE00006005250861C0302483D00100600525047
:103DF0005422A29D543D001005005250DE65F46827
:103E0000386D00101A2B0010BC2A0010BC2A0010BC
:103E1000122B0010BC2A0010BC2A0010BC2A001073
:103E2000BC2A0010BC2A0010BC2A0010BC2A0010BA
:103E30000A2B0010BC2A0010022B0010BC2A001014
:103E4000BC2A0010FA2A0010362D00102C2B00106E
:103E50002A2D00102C2B0010102D00102C2B0010E0
:103E60002C2B00102C2B00102C2B00102C2B0010B6
:103E70002C2B00102C2B0010222B00102C2B0010B0
:103E80002C2B00102C2B00102C2B00102C2B001096
:103E9000222B0010AE2D0010822A0010822A001062
:103EA000822A0010822A0010822A0010822A001022
:103EB000822A0010822A0010822A0010822A001012
:103EC000822A0010822A0010822A0010822A001002
:103ED000822A0010822A0010822A0010822A0010F2
:103EE000822A0010822A0010822A0010822A0010E2
:103EF000822A0010822A0010822A0010822A0010D2
:103F0000822A0010822A0010822A0010822A0010C1
:103F1000822A00104A2D0010842D00104A2D001016
:103F2000822A0010822A0010822A0010822A0010A1
:103F3000822A0010822A0010822A0010822A001091
:103F4000822A0010822A0010822A0010822A001081
:103F5000822A0010822A0010822A0010822A001071
:103F6000E82E0010822A0010822A0010822A0010F7
:103F7000822A0010822A0010822A0010822A001051
:103F8000822A0010822A0010E82E0010BE2D001098
:103F9000E82E00104A2D0010842D00104A2D00102C
:103FA000000000000000F03F00000000000024407E
:103FB00000000000000059400000000000408F4059
:103FC000000000000088C34000000000006AF840C4
:103FD0000000000080842E4100000000D0126341E8
:103FE0000000000084D797410000000065CDCD415E
:103FF0000600525053B4F4A1903D001000000000A0
:10400000FFFFFFFFFFFFEFFFFFFFFFFFFFFFEF7F60
:104010000000000065CDCD410000000065CDCDC1A0
:10402000000000000000E03FFB799F501344D33FA5
:10403000B3C8608B288AC63F000000000000F83F2C
:1040400061436F63A787D23F71A379094F930A40F9
:104050001655B5BBB16B0240EF39FAFE422EE63F72
:104060000000000000002C40000000000000244080
:1040700000000000000018400000000000000040A8
:10408000000000000000F03F2D431CEBE2361A3F19
:104090000000000080842E410D0A000008005250EC
:0C40A000120000000800525092100000B6
:1040AC00A43D0010B03D0010BC3D0010C83D0010F8
:1040BC00D43D0010E03D0010EC3D0010F83D001028
:0C40CC00A44000109C400010F03F0010C9
:1040D8000111B70700D022CC26CA4AC84EC606CE60
:1040E80083A907002A842E89B28431A80F003003DF
:1040F8002300070073A007304A85A685971000F0B3
:10410800E780E02031E51C40737704309396370050
:10411800B316D028F19B2FA6D744758E6DFE0F00DD
:10412800300383064400937787001840E3D006FCE9
:10413800230234010F0030032300070073A0073067
:10414800F2406244D2444249B24905450561828041
:10415800F2406244D2444249B24901450561828035
:104168001C41F37604301398370033180029F19B6B
:10417800AFA80745B3F80801E39C08FE0F00300319
:104188000308450093F786001441634208020F00B4
:1041980030032380060073A00730B70700D00387D9
:1041A80007008147631407013E85828015B73706EB
:1041B80000D010422302C5000F0030032380060000
:1041C80073A0073085473E8582801C417377043091
:1041D80093963700B316D028F19B2FA6D744758E37
:1041E8006DFE0F003003FD572302F5001C410F0040
:1041F8003003238007009377870073A007303320AC
:10420800100082803288AA882E87D5EA63FFC50EFF
:10421800C167636CF618B7070001E1466373F600DF
:10422800C146B73700203353D6009387478E9A97F5
:1042380083C7070013030002B697B306F340630B66
:10424800F3003397D500B357F5005D8F3318D600C8
:10425800B318D500135608013355C7029316080141
:10426800C18293D708013377C702B385A6024207F4
:10427800D98F63FAB700C2971307F5FF63E4070104
:1042880063EFB72E3A858D8F33D7C702C20893D80C
:104298000801B3F7C702B386E602C207B3E8F8001D
:1042A80063FBD800C2989307F7FF63E50801791705
:1042B80063E3D8003E874205598D8145828063F5C6
:1042C800D500814501458280C16763E8F618B707C4
:1042D8000001614863F3F6004148B737002033D73F
:1042E80006019387478EBA9703C707009307000212
:1042F8004297B388E7406398E71663E4B6263335F8
:10430800C500133515008145828055C6C1676372A3
:10431800F62413370610133717000E07B356E600B6
:10432800B73700209387478EB69783C70700930651
:104338000002BA97B38EF640639FF608B387C5406C
:104348009356060142064182854533D5D70213D7D5
:104358000801B3F7D7023303C502C207D98F63FA3E
:104368006700C2971307F5FF63E4070163E6672058
:104378003A85B387674033D7D702C20893D8080174
:10438800B3F7D7023306C702C207B3E8F80063FBE6
:10439800C800C2989307F7FF63E50801791763E33C
:1043A800C8003E874205598D82809336061093B621
:1043B80016008E06BDB5B737002081469387478E15
:1043C800B69783C70700014793060002BA97B38ED2
:1043D800F640E385F6F63318D60133D3F500935645
:1043E8000801335ED30213160801B395D501418243
:1043F800B357F500CD8F13D70701B318D501337321
:10440800D302B305C603420333676700637BB70073
:1044180042971305FEFF636D0715637BB714791E7A
:1044280042970D8F3355D702C207C1833377D7021E
:104438003303A6024207D98F63FB6700C2971307AD
:10444800F5FF63E3071363F167127915C2979315B4
:104458000E01C98DB3876740CDBD13B80610133858
:1044680018000E089DBD335EE600B3961601336E44
:10447800DE0033D8E500935E0E01B357D80313135B
:104488000E01B3951501135303013357E5004D8F02
:1044980093560701331616013378D803B305F30290
:1044A8004208B3E6060163FBB600F2961388F7FFED
:1044B80063E2C60D63F0B60CF917F2968D8E33D809
:1044C800D60342074183B3F6D603B3050303C206F6
:1044D800558F637BB70072979306F8FF6368C70927
:1044E8006376B70879187297C207931608011313F1
:1044F8000601B3E70701C1821353030113D807016B
:104508004182330E68020D8F33836602B386C6027A
:1045180093550301F296AE963308C80263F4C601B8
:104528004166329813D6060142966360C702630556
:10453800C7003E8581458280420313530301C206AA
:10454800331515019A96E376D5FE1385F7FF814555
:104558008280B70700016377F60293560601414748
:10456800C1B38145054582803A85D5B53688ADBF4A
:104578002A8E45BDC28799B77915C297DDBB7915D3
:10458800C29711B393568601614759BB3288AA88EE
:104598002E832E87CDE663FFC50EC1676362F618CA
:1045A800B7070001E1466373F600C146B73700203C
:1045B8003353D6009387478E9A9783C70700130310
:1045C8000002B697B306F340630BF3003397D500A8
:1045D800B357F5005D8F3318D600B318D50093553F
:1045E80008013356B702131308011353030193D775
:1045F80008013377B702330666024207D98F63F79B
:10460800C700C29763E4070163E4C72E918F33D7CD
:10461800B702139508014181B3F7B7023307670260
:10462800C2075D8D6378E500429563650501637394
:10463800E5004295198D3355D5008145828063F395
:10464800D5008280C16763EBF616B70700016148A1
:1046580063F3F6004148B737002033D70601938744
:10466800478EBA9703C7070093070002429733881B
:10467800E740639BE71463E4B600636AC500B308C8
:10468800C54033331501B386D5403383664046852C
:104698009A85828041CEC1676370F624133706106D
:1046A800133717000E07B356E600B7370020938775
:1046B800478EB69783C7070013030002BA97B3065D
:1046C800F3406315F3083387C540135306014206C8
:1046D8004182B355670293D7080133776702B385E0
:1046E800C5024207D98F63F8B700C29763E507018F
:1046F80063F3B700C2978D8F33D76702C20893D888
:104708000801B3F767023307C7021395070133E5BA
:10471800A800E36BE5F0198D3355D50081458280FB
:104728009336061093B616008E0649B5B7370020A3
:1047380081469387478EB69783C7070001471303BF
:104748000002BA97B306F340E30FF3F63318D60026
:1047580033DEF50013530801B35E6E021316080129
:10476800B395D5003357F50041824D8F9357070114
:10477800B318D500337E6E02B385CE02420EB3E77E
:10478800C70163F8B700C29763E5070163F3B70091
:10479800C2978D8FB3D5670242074183B3F767028B
:1047A800B385C502C2075D8F6378B700429763651A
:1047B80007016373B70042970D8F21BF13B8061026
:1047C800133818000E0841BDB3960601B358E60029
:1047D800B3E8D80033D3E50013DE0801B356C303AA
:1047E800939E080193DE0E01B357E500B3950501CA
:1047F800DD8D93D705013316060133150501337393
:10480800C303338FDE024203B3E7670063FBE701AC
:10481800C6971383F6FF63EB170D63F9E70DF916D7
:10482800C697B387E74133DFC703C205C181B3F732
:10483800C703B38EEE03C207CD8F63FBD701C697BC
:104848009305FFFF63E2170B63F0D70B791FC69739
:10485800C206131E0F01B3E6E60113130601135E29
:104868000E0113530301C182135F0601B38F660261
:10487800B385D74133036E02330EEE03935703011A
:104888007E9EF297B386E60363F4F701416EF296D3
:1048980013DE0701420313530301C207F2969A97E6
:1048A80063E4D5026380D502B307F5403335F500DC
:1048B800958D898D3397E50033D50701B3D505016B
:1048C800598D8280E372F5FE3386C740B3B7C700BF
:1048D800C6979D8EB287C9BFB7070001637CF600F3
:1048E800935606014147D1B32E8F9DB79A8615BFBF
:1048F800C29729BB93568601614745BB3703100011
:1049080001117D1313D74601B377B3003378D30071
:1049180056C293DA45018E0726CA52C493FAFA7F23
:10492800135AD50193D4F5010E089375F77F06CE77
:104938001357D60122CC4AC84EC6FD82336AFA0004
:10494800B288B387BA4033670701131E3500931E38
:1049580036006389D40E6355F00463920516B36676
:10496800D701638106309386F7FF638C06621306CE
:10497800F07F6386C73A13068003635FD656130435
:10498800FEFF333E8E00330ACA4193168A0037076A
:104998008000BE8A63DA0604130AF7FF7D54B9A2C1
:1049A8006384071AB3875541639D0A3C3366CA017D
:1049B800630006581386F7FF6307066A1305F07F3E
:1049C800638FA762130580036356C5741384FEFFC3
:1049D800B3BE8E00330AD74113168A00370780000A
:1049E8006341067CB684BE8A9307440033B48700CB
:1049F800229A3E8493178A0063DD072093871A0062
:104A08001307F07F2688638AE720370780FF7D1722
:104A180093F7F77F3377EA001316D7010D8026073F
:104A2800418E3183F2406244D207D98F1317F801BF
:104A3800D98FD2444249B249224A924A3285BE8528
:104A4800056182802688635DF01C63920516B36653
:104A5800D701638906209386F7FF638E064E1306F7
:104A6800F07F6389C75A13068003635CD662931686
:104A78008A003707800013041E00BE8AE3D606F6B4
:104A88003A8A0144850A9307F07F6387FA18B707C3
:104A980080FFFD17B377FA00135714000588939623
:104AA800F701418F13DA170033E4E60093777400B7
:104AB800B1D39377F4001147E38EE7F235B7930645
:104AC800F07F638EDA249306800363D2F61C130406
:104AD800FEFF333E8E00330ACA4113178A00B70718
:104AE8008000E35307F0138AF7FF7D545285EF10D7
:104AF8009061930785FF13070002B306F740B3568A
:104B0800D400331AFA00B3E646013314F40063C73D
:104B1800572FB387574185071D8F3316E400333667
:104B2800C000335AF400336646013397E600336415
:104B3800C70033DAF600B3674401814AA5FB26882B
:104B4800814701470146F9BD93871A0093F7E77F2C
:104B580063920728B367CA013366D70163910A3E97
:104B6800638B075263050620B305DE413336BE006A
:104B7800B307EA40918F13968700635F065C338E14
:104B8800CE41B3BECE01330747413307D741B367A0
:104B9800EE007284B684C5D79317870063D7076081
:104BA800B70780FFFD177D8F36888547B5B5930613
:104BB800F07F6386DA169306800363C2F62CB70685
:104BC8008000558FFD4663C8F640130600021D8E0F
:104BD800B316C7003396CE00B3DEFE003357F70096
:104BE8003336C000B3E6D601B3E7C6003A9A3E9E14
:104BF800B337FE003E9A728493178A00E3C407E82D
:104C080093777400638C075A9377F4001147E39DF8
:104C1800E7DCD6870D8091A8D6870147014619B5EC
:104C280063890710B387554163940A26B366CA019E
:104C3800638D064C9386F7FF638F06301306F07F6B
:104C48006384C73E13068003635BD65293168700BE
:104C5800370A8000BE8A0144E3C606E213841E00B8
:104C68003A8A59B3131435000D801316DA019306E6
:104C7800F07F418E13573A006398D708598E59CA66
:104C880001489307F07F37070800014661BBB70664
:104C98008000558FFD4663C0F618930600029D8E6E
:104CA8003314D700B396DE00B3DEFE00B336D0006F
:104CB8003364D4013357F700558C330AEA40330480
:104CC8008E40333E8E00330ACA4193178A00E3D9D7
:104CD80007F2260A135A9A00E31A0AE02285EF100F
:104CE8009042930785017D47E357F7E06115B316B6
:104CF800A40063D65715370780FF7D17758F1316E5
:104D0800D701B387FA400D833207318393F7F77FD2
:104D1800268809BB26889307F07F014721B313141F
:104D28003500135534001316DA01498E13573A002B
:104D3800B1B793871A0093F6E77F639F0616B367A8
:104D4800CA01639E0A3AB366D7016380074085C2E9
:104D5800F29E33BECE015297330AC70193178A00D9
:104D6800768E63C00742B3E74E01E38A07DC135E21
:104D78003E001316DA013366C60113573A0081471D
:104D880061B71306F07F638CC5261306800363475B
:104D9800F61637068000336ACA007D46634EF62849
:104DA800130600021D8E3314CA003316CE00335E7C
:104DB800FE003336C0003364C401B357FA00518C87
:104DC8001D8F33848E40B3BE8E00330AD741AE8A1E
:104DD800B684E5BD3304DE4133368E00B307EA40BE
:104DE800918F13968700634A06123366F4003E8A51
:104DF800E31406EE0148814701472DB1370A80FFC9
:104E08007D1A13777400B38AFA4033FA4601E31D1A
:104E180007DED68701B5938607FE13060002B35650
:104E2800D700638AC70013060004B307F640B31718
:104E3800F700B3EEFE003334D001558C49B5338406
:104E4800574193071400635DF72E051413070002FA
:104E580033D48600638BE70013070004B307F740D9
:104E6800B397F600B337F0005D8CE30A04CC937770
:104E78007400814AE39F07C2014A0D80FDB31317EE
:104E88008A00B7078000635D071C3E8A0144DDBEC7
:104E98009306F07F638AD5189306800363D5F620BE
:104EA80093178700370A8000AE8A0144E3CC07BC19
:104EB80013841E003A8A0DBE9306F07FE38FD7D481
:104EC800F29E33BECE015297729793DE1E001314E2
:104ED800F70193F67E003364D401135A170099C67C
:104EE8009376F4001146BE8AE390C6B00D8013167F
:104EF800DA01418E118309BDB68769BB1384FEFFB1
:104F0800B3BE8E00330AD74113178A00B707800053
:104F1800634B071CB684AE8AC1BC338ECE41B3BE88
:104F2800CE01330747417284330AD741B6846DB343
:104F38001396380013543600B6843A8A3DB3E9EB29
:104F480063090622139638009317D7010D82B68499
:104F58005D8E0D8325B3F29E33BECE0152977297B4
:104F68009317870063D40718B70780FFFD1793D6F8
:104F78001E007D8F9317F70193F57600D58F135692
:104F880017006382051E93F6F7009145638DB61CE2
:104F98003384B700B337F400338AC7000D808947DC
:104FA800E9B1B30EDE41333EDE013307EA40330A8E
:104FB800C74193178A00768463CD070093DE3E00CD
:104FC8001316DA013366D60113573A0085472DBB0D
:104FD800B684854AFDB9938607FE13060002B356C8
:104FE800D700638AC70013060004B307F640B31757
:104FF800F700B3EEFE00B337D001D58FCDBE93973F
:1050080038001316D7018D83B6845D8E0D83BDB12C
:10501800E31806C613143500935734001316DA0143
:105028005D8E13573A0099B9939738001316D70134
:105038008D835D8E0D8399B1138607FE13050002DB
:105048003356CA00638AA70013050004B307F54066
:10505800B317FA00336EFE003334C001518C95B398
:1050680013041E0051B2338ECE41B3BECE013307B6
:105078004741330AD74193178A007284E3CA07F479
:10508800135E3E001316DA01B6843366CE0013575A
:105098003A00854795B9E30F06D43A8A768EB684E6
:1050A800F9B1B68705B6B7068000336ADA00FD465F
:1050B80063C4F606130600021D8EB316CA00331623
:1050C800CE00335EFE003336C000B3E6C601B357E8
:1050D800FA00D18E3E97B69EB3B6DE00338AE6005C
:1050E8007684AE8A11BEAE8AB684F5BA1316D70195
:1050F80093DE3E003366D6010D83854731B18DD7E7
:10510800B36ED701E39E0EB631B70E0613543600C0
:105118003A8AA1BEB28751B1138607FE93060002F0
:105128003356CA00638AD70093060004B387F64053
:10513800B317FA00336EFE00B336C001D18E61BFDB
:10514800130700021D8F0146F9BAE38A069E76848A
:105158003A8A81470D8011BE33E6F500E30C06C894
:105168003E8A2E8E29B18D8376065D8E11838947FE
:1051780061BE01489307F07F3707080065B0B6871E
:105188003DB7370780FF7D173377EA001316D7013D
:1051980093DE3E000D833366D6013377670085477B
:1051A80051B0BE8AB6846FF02FFF1316D701135E75
:1051B8003E003366CE000D838147B9B60D80D68791
:1051C8006DB4797193D7450122D426D252CC56CAF0
:1051D80066C29394C50006D64AD04ECE5AC85EC65B
:1051E80062C46AC093F7F77F2A84B28C368AB1808A
:1051F80093DAF501638907121307F07F638AE706DC
:105208008E04935BD501B3EB9B0037078000138BAB
:1052180017C0131C3500B3EBEB008144014D9357C5
:105228004A011314CA0093F7F77F3180135AFA0121
:10523800B5C31307F07F638EE70C0E0413D7DC01A8
:10524800938717C0418F37048000330BFB40598C7C
:1052580093973C0081463D47B3C54A01636D971853
:10526800373700201307478A8A04BA949840028780
:10527800B3EBA400639C0B143E8B93574A011314A1
:10528800CA0093F7F77F014CA144094D3180135AA6
:10529800FA01C5F3B36794016385071463060436FE
:1052A8002285EF1040662A87930755FFF5469D8EA5
:1052B800930787FF3314F400B3D6DC00558CB397FB
:1052C800FC005A97130B373F814671B79307F07F5D
:1052D80081460147B2502254D207FE05D58FCD8FA3
:1052E80092540259F249624AD24A424BB24B224C7A
:1052F800924C024D3A85BE85456182808147814640
:105308000147C9BF81459307F07FB70608000147E9
:10531800D1B7B3679401130B1B80E9EB93E4240026
:10532800014489460DBFB3EBA40063870B0A638F62
:10533800042A2685EF10205D2A87930755FFF54B31
:10534800130C87FFB38BFB40B3948401B35B7401E8
:10535800B3EB9B00331C84019307D0C0338BE74029
:105368008144014D6DBDD6855E84E2870947E30F10
:10537800EDF40D47E308EDF80547E301EDF8930F69
:10538800FB3F7E87635AF03B93F6770063940630C1
:1053980013D537009317740063D80700B70700FFC9
:1053A800FD1713070B407D8C9307E07FE3C0E7F2FE
:1053B8009316D401131694009377F77F33E7A6006A
:1053C8009356C60001BFD285368D4DB7A68B2A8C61
:1053D8003E8BB1440D4DA1B5014C9144014B054D97
:1053E8003DBD93E4140001448546B5B593E434000B
:1053F800E6878D468DB56362741F638E8B1CE286CB
:105408007D1B014C131784001353070133D46B021F
:1054180013D68701598E9318060193D8080113D71C
:10542800060113988700B3FB6B0233858802C20B11
:10543800B367770163F8A700B2971307F4FF63F621
:10544800C7243A84898F33D76702C206C182B3F76B
:105458006702B38FE802C207DD8E63F8F601B296E1
:105468009307F7FF63FEC6203E874204598C9317C3
:105478000401131E0801C183135E0E01935E080127
:10548800135504013387FE02B386F641338FC703F1
:10549800B30FC50393570F017E97BA973305D5030A
:1054A80063F4F70141673A95931F0F0113D707017A
:1054B800139F070193DF0F01B307A7007E9F63E2E5
:1054C800F60E638EF60C330FEC41333CEC019D8EE7
:1054D800930FFB3FB38686417E876304D616B3D706
:1054E800660213550F01B3F66602B382F802C206CC
:1054F800C98E63FB5600B2961385F7FF63E2C61A9E
:1055080063F0561AF917B296B386564033D5660239
:10551800420F135F0F01B3F66602B388A802C206F2
:10552800336FDF00637B1F01329F9306F5FF636BC8
:10553800CF1663791F177915329FC207C98F9396C3
:105548000701C18293D207013385DE02330F1F4161
:105558003383C203330EDE021A9593560E01AA96C0
:10556800B38E5E0263F466004165AA9E13D50601F8
:10557800420E135E0E01C2067695F2966367AF0A75
:105588006303AF0A930620C093E717006348DB1252
:1055980013854700B337F5000D813E94E5BBE374EE
:1055A800ECF333070C0133358701B30FC500FE96C2
:1055B8003A8C930FF4FF6371D60C63E6F600639F91
:1055C800D70A637DE70B4297333507013295791483
:1055D800AA963A8CCDBDE364FCE29396FB0113577F
:1055E8001C0093DB1B00D98E7E0C29BDEF10A03167
:1055F80093075501F14613070502E3D2F6D4611566
:10560800B31BA400014C89BB6685EF10C02F93071C
:105618005501F14613070502E3DAF6C8611533941C
:10562800AC00814779B9E38E06D4329FFA88138398
:10563800F7FF636BCF06636AAF126303AF149A87F1
:1056480091B701458547E34AF0F563960F08370798
:1056580000809317F4017D17D98F058013874700C1
:10566800B337F7003E94BA871317840063590712BB
:10567800854781460147B9B9630ED6027E84A1B534
:10568800E3F4F6DF7917B296CDB3E3FCA7DA791421
:10569800B2974DBB93F6F7001146E38BC6CECDBD4E
:1056A800AA879DB5368551BD9A87E39DA8ECE39BF3
:1056B80006EDC1B961F5E3E8F6F011B7130710C0BC
:1056C800631CEB0013D71700136717009317F40137
:1056D800D98F058061B7FD5705473307F741930612
:1056E8008003E3CDE6C0FD4663D2E60A8556B3865D
:1056F800F64113060002B356D4006307C700130B24
:10570800EB4333146401C18FB337F000D58F13F71F
:105718007700814611CF13F6F70011450147630959
:10572800A6003386A700B337F6001397D701B287D0
:105738008D835D8F814779BEE3900FFA93F67700EA
:1057480013D617007D4B0547ADE2331B6401558E18
:10575800B367CB0093F677003354E40091D613F780
:10576800F7009146E302D7F0D5BD13131800B338FC
:105778000301B298FA98F9171A88E38AA8F219B5BA
:10578800E365D8FE9A87E39F06DFE5BE130BEB417E
:10579800B3966701B336D00033D6E7007DB79316CA
:1057A8009400B1821317D40161B7B3F6E70071BF53
:1057B80093D84501B707100013D746012A88FD176B
:1057C8001303F07F93F8F87F33756700428E33F741
:1057D800B700B28EF58FFD81FD82638E6802630F7C
:1057E8006500639708043368070121E15D8E35C2BF
:1057F800631C0806139516007D1582805D8E3DE2B8
:10580800639508003367070175D7639BD500139527
:1058180015007D1582803367070129E7630E15039C
:10582800B305B04013E515008280E30508FCF1BF1D
:1058380065D9E397D5FEE34515FFE3CAA8FCE3E184
:10584800E7FEE316F7FCE3EDCEFD0145E361DEFD7F
:105858008280E31708FC8280D18F89E7E392D5FC28
:105868000145828079558280E38BD5FC55BF93D85A
:105878004501B707100013D746012A88FD171303FF
:10588800F07F93F8F87F33756700428E33F7B700DF
:10589800B28EF58FFD81FD8263836804630F650016
:1058A800639B0804336807013DE95D8E15C6631DD7
:1058B8000806139516007D1582805D8E094519EE40
:1058C80063950800336707016DD76386D504B30570
:1058D800B04013E515008280E31B08FE8280336721
:1058E800070129E3E31515FFD18F0945E5FBE3908F
:1058F800D5FE0145828061DDE39BD5FCE34915FDBA
:1059080063CBA800E3E5E7FC6317F700E3E1CEFD0E
:105918000145E375DEFD139515007D158280E30AC8
:1059280008F865B709458280E38ED5FC4DB77971D3
:1059380093D7450122D426D252CC56CA62C41394B6
:10594800C50006D64AD04ECE5AC85EC666C26AC0E0
:1059580093F7F77FAA8A328CB684318013DAF5017F
:10596800638207341307F07F6384E7220E0413571A
:10597800D501418F37048000138B17C0931B350066
:10598800598C814C014D93D744011397C40093F768
:10599800F77F935AC700FD80638F07201307F07FB6
:1059A800638EE72C938717C029473E9B634C972546
:1059B80013973A009357DC01D98FB3469A003707FB
:1059C80080000946B3EAE70013183C00B685814712
:1059D80063519603054633169601137706536314ED
:1059E800072293750624639B053C13768608631A81
:1059F800063A93970B0113160801C183418293DB82
:105A08000B01135808013387C7023385CB021353A0
:105A18000701B305F802AA952E93B38E0B0363749E
:105A2800A300C165AE9E139E0A014207135E0E01D4
:105A380093DA0A01418393150301B388CB03BA951E
:105A4800135303013387C703B387FA0213550701BA
:105A5800C6973E95B38B5B0363741501C167BE9B04
:105A68009317040193180701C183418093D8080153
:105A780013170501B30FF802469741813A935E95D3
:105A8800B308C402338FC702C69F13560F017E9610
:105A98003308880263741601C1684698420F931848
:105AA8000601135F0F014182469F4296B308C40363
:105AB8003388C703B387FA02135E0801C6973E9E70
:105AC800B38A8A0263741E01C167BE9A93180801DB
