:020000042000DA
:100000006F00001A00000000000000006F0060197F
:100010000000000000000000000000006F00401819
:100020000000000000000000000000005D7106C03C
:1000300016C21AC41EC62AC82ECA32CC36CE3AD030
:100040003ED242D446D672D876DA7ADC7EDE73258A
:100050001034F3250030AAC0AEC2736651BEB2C4DC
:1000600073E540BE6341050273600430B7050020AC
:10007000AA9583A5050DE78005007370043073E52C
:1000800040BEE35305FE06459645264673101534DB
:1000900073900530731056BE824092422243B243A1
:1000A000D2456246F246025792572258B258425EF3
:1000B000D25E625FF25F732540BEE35005FA4245AF
:1000C0006161730020301300000013000000010084
:1000D000A4010020A4010020A4010020A40100200C
:1000E000A4010020A4010020A4010020A4010020FC
:1000F000A4010020A4010020A4010020A4010020EC
:10010000A4010020A4010020A4010020A4010020DB
:10011000A4010020A4010020A4010020A4010020CB
:10012000A4010020A4010020A4010020A4010020BB
:10013000A4010020A4010020A4010020A4010020AB
:10014000A4010020A4010020A4010020A40100209B
:10015000A4010020A4010020A4010020A40100208B
:10016000A4010020A4010020A4010020A40100207B
:10017000A4010020A4010020A4010020A40100206B
:10018000A4010020A4010020A4010020A40100205B
:10019000A4010020A4010020A4010020A40100204B
:1001A000029002900981029000000000000000000F
:1001B000000000000000000000000000000000003F
:1001C00006005250ABB3605308690020060052503D
:1001D000861C030224690020060052505422A29D6E
:1001E00030690020F2EB8871346E0020586E0020D8
:1001F0007802002090A31AE7D3DEFFFF420101112D
:100200004403000022020020002008200302000016
:1002100000000020FF06000000000000793512AB4E
:1002200009A0977100009381216E17210800130126
:1002300061DD170500001305F5DC731055307325DB
:1002400040F125E1977500009385C5CC1386C182E6
:1002500021A023A005009105E39DC5FEEF30801885
:10026000B124EF30C0170290FDBF884108C291054C
:100270001106E36CD6FE8280586E0020586E002076
:10028000106F002000000820000008200000082057
:1002900000100820001008200010082000000000B6
:1002A000828021651305C5DF028500000111B707B3
:1002B00000D022CC26CA4AC84EC606CE83A9070063
:1002C0002A842E89B28421A80F003003230007005E
:1002D00073A007304A85A685EF10801831E51C40D1
:1002E0007377043093963700B316D028F19B2FA66E
:1002F000D744758E6DFE0F0030038306440093775C
:1003000087001840E3D206FC230234010F003003BB
:100310002300070073A00730F2406244D2444249F0
:10032000B249054505618280F2406244D2444249A7
:10033000B2490145056182801C41F376043013986F
:10034000370033180029F19BAFA80745B3F808011F
:10035000E39C08FE0F0030030308450093F7860076
:100360001441634208020F0030032380060073A08B
:100370000730B70700D003870700814763140701E0
:100380003E85828025B7370600D010422302C50083
:100390000F0030032380060073A0073085473E8599
:1003A00082801C417377043093963700B316D028AF
:1003B000F19B2FA6D744758E6DFE0F003003FD57BD
:1003C0002302F5001C410F003003238007009377C0
:1003D000870073A00730332010008280B707E0AF9A
:1003E000AA975D71D183CAC04EDE2A89AE8936854F
:1003F0009385670086C6A2C4A6C23684B28401244F
:1004000005472286CE85BA864A85EF304075138728
:1004100024009386740093175400B2061E07060446
:1004200093F7073E558FCE854A85C16826863708E3
:100430000C001364F4C19397A729740822D646CE02
:100440003AD042D23ED4EF30A07AB6402644964409
:100450000649F25961618280011106CE22CC26CA7A
:100460004AC84EC62A89BA84B6892E84853F832716
:10047000090037650020CE85B39787282320F9002F
:1004800026861305857FEF30A03C1545EF10803B95
:1004900086043355950233442421F240D244424924
:1004A000B249751508C8624405618280397122DC41
:1004B00006DE26DA4AD84ED652D456D237740020F9
:1004C0002D2A340810082C001305C4D80548894784
:1004D0000D47EF30B005630C05102246B704E0AFBE
:1004E000E245269637790020518213054981EF3085
:1004F00020366246C2452245130740068D46A93F75
:10050000C24522458505EF30405FC245624622451F
:1005100085051307A0059146813750086C0089476F
:1005200074081305C4D8054813070002EF30100003
:100530003246F245AA87269613054981BE84518228
:10054000EF300031C5C87246D24532451307000569
:10055000930600021137D245324581498505EF30B7
:10056000C059D24572463245130760049306100203
:100570008505DD35D2453245B77A00208505EF3057
:10058000C05CF2465246B2451305C4D8377A002003
:10059000EF309023C2452245370900D08505EF3062
:1005A000C05AE2464246A2451305C4D8EF30D021D6
:1005B0003775002013054583EF3000198147032468
:1005C00049008324890013850A8513543448A28581
:1005D000858863848700EF30A027A68513054A86A7
:1005E00063849900EF30C026A689A287C9BFEF10A7
:1005F0008036E5B5EF102036B9B76F308041B78748
:1006000003409107B347F52098438566BE9613478C
:1006100007041377070C3786024098C23365C5205C
:100620000D67BA974CC11307001098C382803971C7
:100630003773002022CC2A841305438706CE2ED29E
:1006400032D436D63AD83EDA42DC46DEEF30C00F3E
:1006500001CC4C1022852EC6EF2050533775002058
:1006600013054588EF30400E0545EF201057737590
:100670000430B77700209387B709139737003317F3
:10068000E028F19BAFA6E744F98EEDFE0F003003A2
:1006900082800F003003B777002093870709A38576
:1006A00007002189732005308280F3760430377784
:1006B00000201307B7091318370033180029719B5E
:1006C000AF280745B3F80801E39C08FE0F0030038C
:1006D00013D735003A950347050093F77500B31714
:1006E000F0283378F700631108025D8F2300E500DE
:1006F0000F003003B777002093870709A385070011
:10070000A18A73A0063082804111328506C6053762
:1007100073780430B77700209387B7099398370030
:10072000B3181029F19B2FA3174533731301E31C52
:1007300003FE0F003003137E880063F6C60099A005
:10074000050663E1C60693573600AA9783C80700DB
:10075000137876003318002933F30801E31203FEFF
:10076000B3E808012380170132850F003003B77703
:10077000002093870709A385070073200E30634E7E
:10078000050082800F003003B777002093870709A8
:10079000A385070073200E307D55E5D541113A85BC
:1007A00006C671357D55D1B773770430B777002011
:1007B0009387B70993963700B316D028F19B2FA6DD
:1007C000D744758E6DFE0F00300393D735003E95EC
:1007D000834705009D89B397B7482300F5000F00B4
:1007E0003003B777002093870709A3850700937725
:1007F000870073A00730828037770020034507ED1C
:10080000DD469307150093F7F70F63F3F600C14732
:100810002308F7EC8280B77600209386060981478B
:10082000130600020F0030033387F6002300070091
:100830008507E399C7FE828081463D481D459305A3
:10084000400393F736008A073317F80013D62600C3
:100850004207518F733037BEB317F500C207D18FEF
:1008600073A037BE8506E39EB6FC82809357550081
:1008700086073315A028C176E98E13871700420535
:10088000558F5D8D91C9733025BE733027BE73209F
:1008900005BE732007BE8280733005BE733007BE6D
:1008A0008280411126C206C622C44AC0AE84737932
:1008B0000430B777002093879709139737003317D1
:1008C000E028F19BAFA6E744F98EEDFE0F00300360
:1008D000F327503013054503F19BB347F5209843A8
:1008E000B70700209387471A131425006306F70003
:1008F0006384E500EF102006F3275030F19BA297A8
:1009000084C30F0030030F003003B77700209387B4
:100910000709A38407009377890073A00730B240CA
:1009200022449244024941018280797106D64AD01C
:1009300052CC56CA5AC873790430B77700209387CF
:100940009709139737003317E028F19BAFA6E744C8
:10095000F98EEDFE0F003003F327503013074503E7
:10096000F19BB347F72083AA0700B7070020138B3A
:10097000471A131A270063876A0B22D42E84638ECA
:10098000BA0C26D2B7740020938484E533879A404A
:100990009307F00263E6E7084ECE5EC662C4935743
:1009A0004500F3A707BE937BF5003317A0289359A2
:1009B0005500C183131C07018609B31B7029B3FBC3
:1009C000FB00336C3C0173300CBEC1777D8F850911
:1009D000B3E9E90073B009BE0F003003F32750BE3E
:1009E0001397070101486350071ED68701459843B6
:1009F000D44313768700137707801317B74893D52E
:100A0000464119E2B306B700630DD4040387A7007B
:100A10003E85B327E720634C0718B3C79720C1BFB3
:100A200022549254F3275030F19BD29723A05701C0
:100A30000F0030030F003003B777002093870709BA
:100A4000A38407001379890073200930B25002593A
:100A5000624AD24A424B456182802254938A471AA5
:100A6000D1B70386A700634506183327C62033474E
:100A70009720144393151600584313F5860019E583
:100A800093F606809396B64851873697638357034B
:100A9000931617000565E98EBA9693F6068093962D
:100AA000B648520793E6760B1367770E94C3131775
:100AB000F728B386C50033C896200345B800D8C3CD
:100AC0003167A385A7008308A800139526001307A4
:100AD00027E42385170163CF080A83568800210580
:100AE000269513D8160013973600937808041377C9
:100AF00007023367170113931600938887003307A3
:100B0000174113730308937808301A9713D82600F7
:100B1000139326009D824697C18A937803401373EE
:100B2000E800B3E66600469736979318B0282A97F0
:100B30003378180133070741931617001355370010
:100B40000563131877001189B3F66600337818012E
:100B5000C98E13151700B3E6060113750560135807
:100B60002700C98E1378081013151700B3E6060185
:100B70001375050813581700C98E13780804131548
:100B8000270033E70601937685032965558F930681
:100B90001500558FB776002003C54610B295B3C532
:100BA00095202394E7002385A5002382C61063982F
:100BB0000B0273300CBE73B009BE22549254F2493A
:100BC000B24B224C85B5918366C293FCF71F630438
:100BD0009501EF00505813884C03924C39B573308F
:100BE0002CBE73B029BE73200CBE73A009BEF1B732
:100BF000631F08025DC17177130727E4FD562314B4
:100C0000E5002305D50033879740B7B6AAAA938697
:100C1000B6AA09873307D702B776002003C6461065
:100C20002385C7002382E610E3850BF84DBFB77616
:100C3000002013878700938646E9998E1397160044
:100C4000056693D53600718F91891396760013153A
:100C5000B0284D8F698E93951600518F93F50560DE
:100C600013D626004D8F1376061093951600518FDC
:100C700093F5050813D616004D8F137606048A06E1
:100C8000518F93F68603558F136717001317D728D4
:100C90002394E700E38F0BF099B7DA8AADB7F32717
:100CA00050BE13970701814563490700918393F76D
:100CB000F71F938747039395270073760430B77720
:100CC000002093879709139737003317E028F19B8B
:100CD000AFA6E744F98EEDFE0F0030033777002012
:100CE000130787E5B307E540B7B6AAAA9386B6AA65
:100CF0008987B387D70293974760F3265030F19ADC
:100D0000AE9694426387A6048306A700638DF6041B
:100D1000830667016387F606830627026385F60666
:100D20008306E7026383F606377700208346471081
:100D30002302F7102305D5000F003003B7770020FA
:100D400093870709A38407009377860073A0073071
:100D5000828073275030B7060020719B2E979386B0
:100D6000461A14C3D1B78146B3A6D620F175B3C6CF
:100D7000E6207D58138725E4238506012394E600A9
:100D800065B78546D5B78946C5B78D46F1BFB777F4
:100D9000002093870709AE971CC18280011122CCE5
:100DA00026CA37740020B774002006CE930744ED9E
:100DB0009384C4ED63F897024AC84EC6130444ED09
:100DC000FD591309F00F1C409DC33D34AA852285AF
:100DD0007D3F231224010F0030032104E36594FEBC
:100DE0004249B249F2406244D244056182802934CA
:100DF000AA852285693F230234010F0030032104B4
:100E0000E36394FCF1BFB776002083A78610737765
:100E10000430139637003316C028F19BAFA5C744A2
:100E2000F18DEDFD0F00300383A786100F00300316
:100E3000238007009377870073A0073033201000CA
:100E40000145814582805D7186C6A2C4A6C2CAC022
:100E50004EDE52DC56DA5AD85ED662D466D26AD0FA
:100E60006ECEF32750BE139707016348073293D91C
:100E7000470093F7F91F898393F93900331A302912
:100E800037090B406396073437770020B3C7372103
:100E90001307470EB3C7E72083AA07008D67938720
:100EA0004704CA97B3C92921138B8A0023A047019D
:100EB0007D54FD54039D8A00232E490363510D0880
:100EC00083D74A009397576063DC071483C76A008F
:100ED0006394071E83968A0063C2060403A74A012F
:100EE000B3A6D620FD57B3E6E62083AB860003AC5D
:100EF000C6006381FB2A0327890283A70901B38601
:100F0000EB40998F63F4F60023A879014A856525A3
:100F100063C68501E310BCFAE37E75F93320100047
:100F2000B640264496440649F259625AD25A425B68
:100F3000B25B225C925C025DF24D6161828083A7AC
:100F40004A01B32BAD214A85B3EBFB2003ACCB00A8
:100F500083AC8B008D25E3C585F76309BC1C634B0F
:100F60000C1C03A70B01B7170020938767E483A528
:100F70004B016305F72483978A0003D52B00C20732
:100F80005D8D02972E87AA8DB3E7ED006384071A63
:100F9000635B0720B386BC41B3BCDC00B307EC4005
:100FA000B387974103970B0023A4DB0023A6FB0024
:100FB000E34807F003A54A013328E720131617007A
:100FC0003368A8208325C80083288800E3CAB7EEC9
:100FD0006394F500E3E616EF2394EA0013888A0091
:100FE00031A0832886004C46131617003A963366C4
:100FF000A62063CDB7006381F51E03170600328873
:101000003326E7203366A620E35D07FC2390EB0040
:101010002310A80183D74A0093975760E3C807EAD3
:1010200083A70A017377043093963700B316D0284C
:10103000F19B2FA6D744758E6DFE0F00300383D829
:101040004A00FD572392FA009398586083A70A013B
:101050000F003003238007009377870073A00730C9
:10106000E3C608E603A54A0103978A0033A81821BE
:101070003368A820032388000326C800DA85635A52
:10108000070039A8638CC60E03970700BE85634925
:101090000700B327E720B3E7A720D447E354D6FEE1
:1010A00023901501831808002310E800E3DE08FAF6
:1010B00083C76A00E38007E223830A0003978A005C
:1010C0007D555A83E30CA7E483A84A01B327E720A0
:1010D000BA86B3E7172103D62700BA853A881316D4
:1010E000566003970700634306023E83E306A7DECC
:1010F000B327E720B3E7172103D62700BA853A883C
:101100001316566003970700E35106FE80C7C4C755
:10111000638AD5002310E30083D68A002390D7008A
:101120002394BA00C286E315A7FC7DB3E36A95D980
:10113000E3590CE203D70B0083A70A012394EA00CA
:101140007377043093963700B316D028F19B2FA6FF
:10115000D744758E6DFE0F00300383D62A0083A717
:101160000A012390DB002391AA010F0030032380A2
:1011700007009377870073A0073099B39447E3750E
:10118000D3F023901501831808002310E800E3DD55
:1011900008EC39BFE3117CD795BB054AD28781495A
:1011A00037890B40D5B14A853AC631213247B3065B
:1011B000B501B3B7A6002E97BA97EDB39C492E851B
:1011C0002EC6829725D9B24583AD0500D8416DBBA7
:1011D000854737890B404DB9E3F116E305BD011191
:1011E00022CC37740020130404EA1C4806CE91CBAD
:1011F0006244F2403775002013058510A94505614A
:1012000079B68D4537050B4026CA4AC84EC652C42A
:101210005926370A0B408D4423264401EFF0CFDDD9
:10122000B70700D0230094003777002003A80700F9
:10123000130707095C482A97B706110018C87D569E
:10124000FD16BD450947A300040114C42311B400D1
:101250002312C4002394E7042149114F954E194EDF
:101260001D43A5482948B546394785492D45B1450F
:1012700023909706239CE7072398D7092394C70B4D
:101280002390670C2398170F239407112390A7121C
:10129000239CB7122398D7142394E7162390C700F2
:1012A00023983703239C270D239C0700B7150020A4
:1012B00023202A03B77700202685938565E423A899
:1012C000870EEFF00FDECE852685EFF02FDAB727F9
:1012D0000B406244D244B249224AF24023A027057F
:1012E00042493775002013058510A945056145B4AD
:1012F000AA8708497378043093183500B318102969
:1013000071992F23154533731301E31C03FE0F005E
:1013100030030393270083A84701137588003328FF
:1013200063203368182183A80701634B0308035E19
:1013300008002391C7010F003003238008007320A9
:10134000053083582800054E13150301F298C6088E
:1013500093D81801B3F8C80B232AE8002328D80033
:101360002324B8002326C800231118013365150172
:10137000984BF3760430131637003316C028719B50
:10138000AF25C744F18DEDFD0F00300303D64700B4
:10139000984B2310C800239267000F0030032300EE
:1013A000070013F786007320073003C70700DC47E8
:1013B0008966938646043317E028B69798C38280DF
:1013C0000F00300323800800732005307D55828094
:1013D0000357A50093D7054163D8E7045449B3A741
:1013E000F7201849B3E7D720F376043013163700F7
:1013F0003316C028719B2F28C7443378C800E31CDC
:1014000008FE0F00300303D62700B3C5050813F705
:101410008600B3460608630BB6001C490F00300374
:101420002380070073200730014582809396F628B9
:101430002391D70085472303F50014490F0030039B
:10144000238006007320073083460500584509664F
:1014500013064604B316D02832973E8514C3828003
:10146000411122C426C206C6AA842E84732750BE08
:101470009317070163DA07044AC0377900209307FE
:1014800009EA03C70700DC473347F7209C57184B8E
:10149000B306F5401D8F63EDE60433200000B70767
:1014A0000B40D85301456369B70A9C570D8F024919
:1014B00033B597003337E00013351500598DB2402E
:1014C0002244924441018280B7070B40D853014522
:1014D000E367B7FE9C57B240224433B597000D8FA7
:1014E0003337E000133515009244598D4101828055
:1014F000D9283385A44033B5A400B305B440898D01
:1015000063C20506B7160020A685938666E00147EC
:101510002286130509EAE93BAA856355A004B707AB
:101520000B40D853636A87049C5763E597041305FF
:1015300009EA793D37070B405C53014563EE8700AC
:101540001457818F3337F000B3B7960093B7170065
:1015500002493365F700A5B7B240224402499244DC
:101560004101828037070B405C5363FA87000249D0
:101570000145B1B7E31D87FA332000004DBF18576E
:10158000818FB337F00033379700133717000249C4
:1015900033E5E7002DB7B787F4BFAA97377500206A
:1015A00093B717001305C510377600203E95130634
:1015B00086886FF08F8F4C51AA8788572E87CC531F
:1015C000E31DB7FE8280B7070B40CC5388572E87A8
:1015D000CC53E39DE5FE828037070B405C53032824
:1015E0008702BE865C53E39CD7FE33060501BE9599
:1015F0003337A6002E97636CF7026388E702B707BC
:101600000B40DC5363F7E700B7060B40DC52E3EF17
:10161000E7FE639BE70037070B4021A05453639517
:10162000F6001457E3ECC6FE8280E37A06FDB707A6
:101630000B40DC537D573A86E398E7FC3E86E1BFDA
:10164000011122CC2A84194526CA06CEAE84DD2A91
:1016500055C14AC84EC6B787074037070004630D17
:10166000F40EB727024098C3B7060240B7370240CE
:1016700098C3A1069C42B377F740EDFFB787F8BF48
:10168000A2971387C18093B71700B3A7E720194526
:10169000130700102390E700752293173500B3D786
:1016A0009702850713D7770039EB93090004854625
:1016B00054D018D40329040393771900BDE385643B
:1016C0009384C402A2945C5423A00400232824031E
:1016D00019458D2A5C540A053355350393C707070E
:1016E00093F7E7079CC0930610304249B2490D4773
:1016F00014D838C4F2406244D24405618280416605
:101700007916C166637DE604FD1654D0014718D4EE
:1017100003290403B7094000938909FC9377190052
:10172000D9DF8D6793870703A2971307103098C3FB
:1017300044501C5419459A04BE942922B7872B8F14
:10174000938757B7B337F5021395A4008145AD834E
:101750003355F5025135A5B73707000819B785830A
:1017600093F7F70393196700BA86BE993E8789B746
:10177000B70701403327A5203347F7200328470048
:10178000C1676373F8005CC31308C5FF854763F640
:101790000707377300201303C30BB347652083A8E3
:1017A00007008D67BA97131EB02823A0C7010A054A
:1017B00063990802832807001606856733461601D9
:1017C0001376060EBA9790C30546637106078967BC
:1017D000BA971316B02890C31A95C16714C15CC399
:1017E000828083274301B3D717038507B3A7F72068
:1017F0009387E7FFE3DE07FE75BFE39CF5F88D678F
:10180000BA970D4823A007011C47858BF5DF0328F5
:10181000070016068567334606011376060EBA974B
:10182000377300200A0590C31303C30B0328070076
:101830003316B028B3C505018D898CC31C47F18FC1
:10184000F5DF71B7B77700209387C70B3345F520D5
:1018500008418280B727B700938707B0B3D7B70294
:1018600083280500C206320733E8E6003356F60245
:1018700063C40804B787054011676300F506B727FE
:10188000024098C3B7060240B737024098C3A1068A
:101890009C42B377F740EDFF0D670CC1110710C5EF
:1018A0002A97930710021CC31C41E3DF07FE23267F
:1018B0000501A1471CC382801C4193F7F703E39BFA
:1018C000B7FA1C45D207D183E396C7FA5C45377750
:1018D0000700F98FE39007FB828021674DB7B78738
:1018E00010403325A5203345F5204CC185471CC148
:1018F0008280A1679387A7DF83D70700854582870A
:10190000B7170E409387878298437DDF0F0030031F
:101910008280B7170E403E871307C7829387C78020
:101920000F00300323A007009107E39BE7FE8280AE
:101930008567938707AA378704401CC39307F00283
:101940005CC7B7B6FA00B7A7044094C35C43E3DFB3
:1019500007FE828082803775002041111305C58AF9
:1019600006C6EFE0DFCC411122C426C23774002046
:10197000B774002006C69307C4ED938404F163F99D
:1019800097001304C4ED1C4011048297E36D94FE8C
:10199000B2402244924441018280B747EFEF9387DF
:1019A000F7B7B72602403707F4039CC25917B73779
:1019B0000240B706024098C3A1069C42B377F740A5
:1019C000EDFF8280B7071150F847A1676303F70066
:1019D0008280B727115037070400F8C78280370785
:1019E00000207D17B7370240B706024098C3A10612
:1019F0009C42B377F740EDFF8280156541111305D6
:101A0000352506C6FD35B240AA87054541018287C6
:101A10006FE07FE0411122C406C626C24AC03704E7
:101A20000140232204082937B73701400547D8DF92
:101A30007C40E39FE7FE0D47B737014098DB054444
:101A4000370701401C5FE39F87FE37366859A28540
:101A5000130606F00947954637050540E53B15474F
:101A600037968647BA86A285130606C03785054095
:101A7000D533B726B700938606B001468945114590
:101A8000C539B7D6F008A2859386061801461545D4
:101A9000C531B776DC02938606C0014681452145F3
:101AA000C139B776DC02938606C0014681452545DB
:101AB000C131B7D6F008938606180146814519450D
:101AC0004539B7D6F00893860618014681451D456D
:101AD00045311145853BB7E71B43938737E8B3345E
:101AE000F50201441949C9802285A6850504C53B34
:101AF000E31C24FFB2402244924402494101828007
:101B00008280797122D44ECE52CC56CA5AC85EC653
:101B100062C466C206D6C68C26D24AD093F8380074
:101B2000AA892E8A328BB68ABA8B3E84428C639FF6
:101B300008063309F8403299B28463FD0707268608
:101B4000D6868504D285130500028299E39924FF85
:101B500021C02299330689407D14B3878B0003C5C9
:101B60000700D686D285CA8482996DF493FC2C0036
:101B700063800C02338B6441637C8B012686D6869E
:101B8000D28513050002050B85048299E3688BFF5B
:101B9000B25022540259F249624AD24A424BB24BE5
:101BA000224C924C26859254456182803289B284BF
:101BB000CDF36DBF3289D1FFE1BFA242C28F024E89
:101BC00093FE220012483E8363960E046318080CAD
:101BD00063F2C70593F31200930E0002130F000384
:101BE0006309D3010503B3076700A38FE7FFE36928
:101BF000C3FF63820306930E0002130F0003637B8F
:101C000003016304D30D0503B3076700A38FE7FF48
:101C1000E31903FF93F70201B5CB93F70240B1E755
:101C200063110304C1476383F8168947638FF8166D
:101C3000930700032300F7000543639B0F0693F708
:101C40004200F5C3B3086700130EB00293071300F8
:101C50002380C80191A093F702018DCB93F7024036
:101C600089E763036E0A6301680AC1476388F8065F
:101C700089476384F80893070002630DF3009A878D
:101C80000503BA9793080003238017019307000206
:101C9000E315F3FA930700029688A5B593F31200B3
:101CA00063820302638D0F087D18E3E7C7F3A1B7D2
:101CB000B3086700130ED0022380C80193071300F6
:101CC000968881B5E3EAC7F1B1B793F70201F9D37A
:101CD00093F70240D9D7C147E39EF8FA93F702027F
:101CE000A5CB93070002E307F3FAB3076700930855
:101CF0008005238017010503BDBF93070002E30B96
:101D0000F3F89A87050311A89307F3FFB1CF414E6B
:101D10006383C80B094EE396C8F7BA979308200669
:101D20002380170189BF93F882009A87E38608F61B
:101D30003A9393080002850723001301B1BF93F77C
:101D4000C200B337F0003308F840E367C3E965B574
:101D500093070002E300F3F4B307670093088007DA
:101D600023801701050301BFC147E390F8EC93F707
:101D700002029DCF930880059307000323001701FB
:101D8000A300F7000943E38C0FEA1DB793F70202A3
:101D900085C393078005930800032300F700A30081
:101DA00017010943E38D0FE821B793072006E5B734
:101DB00093078007CDB79308E3FF13FE0202BA989A
:101DC00063070E00130E80052380C8015DBD130E4E
:101DD00080072380C80175B511E182806F10100D56
:101DE00001C59C41CC418287828031714AD94ED74E
:101DF00052D55AD12A89AE89328B368A3A85BE8528
:101E00003A86BE8622DD26DB56D35ECF06DF62CD64
:101E100066CB8E4BBA843E8442C0C68AEF40C07304
:101E2000631B0546B777002003A687D983A6C7D9C9
:101E30002685A2856AC96EC7EF3050056349052023
:101E4000B777002003A607DA83A647DA2685A2859E
:101E5000EF30E077634DA018B777002026C422C684
:101E60002245B24503A687DA83A6C7DAEF3020768B
:101E70006345A014B777002026C822CA4245D24540
:101E800003A607DB83A647DBEF305000634705124C
:101E900026CC22CE6245F24501468146EF30007FD6
:101EA000634A051802DC93F70B4099E399473EC05B
:101EB0008246130D0106EA87938806FE25469305A0
:101EC00000036372D6222380B700FD168507E39ACC
:101ED00016FF930C000226D022D20255925546C01E
:101EE000EF40406B8248B7760020938686BDB3E60C
:101EF000D82003A846009C4246CC42C23EC0AA8DD0
:101F0000EF40207526D422D62A86AE862255B255B9
:101F1000EF30305902469246EF3050032E8C2AC8DB
:101F2000EF40A06D2AC4EF40207AC24762DA2A86C9
:101F30003ED8AE864255D255377C0020EF307056E1
:101F400003268CDB8326CCDB2AC82ED0EF3020681A
:101F50002243E2486357A02805031A8546C81AC4DD
:101F6000EF4080762A86AE8602459245EF300072B9
:101F70002243C2486344A000850D0143638A0816CA
:101F800037D5CCCC1305D5CC130E0002A54E6382F9
:101F9000CC2D3337A302850CB3069D01FD180D83AC
:101FA000B347E7208607B307F34093870703A38F60
:101FB000F6FE63F06E283A83D9BF26DC22DE6A542F
:101FC000DEC16257F25702484A4DBA4DFA50DA5410
:101FD000FA4B6A4CDA4CD688D2869A5A2A5A5A86D2
:101FE000CE850A5BBA594A854A59296135AE93F7BD
:101FF0004B009DEB37770020130747948D476A54B9
:102000004A4DBA4DFA50DA546A4CDA4CDE8856889A
:10201000FA4B9A5AD2865A862A5A0A5BCE854A8544
:10202000BA594A592961F1BC377700201307C79381
:102030009147F1B7A6C8A2CA4646D6460145814592
:10204000EF3030468547AA842E843EDCA9BD93F745
:102050003B00DA8495E3914763F057031304CBFF09
:10206000B30454015A842286D2860504CE85130512
:1020700000020299E31994FE37740020130CC494F3
:102080001304C494711CB30C9400034534003386CC
:102090008C40D286CE857D140299E31884FF93FB91
:1020A0002B00910463810B02B387644163FD5701E8
:1020B0002686D286CE851305000285040299B38751
:1020C0006441E3E757FF4A4DBA4DFA506A544A5902
:1020D000BA592A5A9A5A0A5BFA4B6A4CDA4C268544
:1020E000DA54296182808247B688B38CD740E5B341
:1020F0006E85EF400056A6C4A2C62A86AE86264547
:10210000B645EF30103A03248CDB8324CCDB2AC0A5
:102110002286A6862E8CEF306057634D05008247DD
:10212000E2CEF645BECC66452286A686EF30204A32
:102130006358A01437656666130575669308000238
:102140001DA0B397AD02850CB3069D018987998FB9
:1021500033C7F7200607B38DED4013870D03A38F18
:10216000E6FEBE8D9DCF13D7FD41E39C1CFD93F68B
:102170003B0005466399C60463870A04E257D1CB46
:10218000FD1A63F25C051306000293050003638CDD
:10219000CC02850CB3079D01A38FB7FEE3E95CFF7A
:1021A00031A093F63B0005466385C61693060002F0
:1021B000638BDC00E257A5CB1306D002B3862C005C
:1021C0002380C606850C6A87DE885688E687D28615
:1021D0005A86CE854A85EFF0DF92AA844A4DBA4DE1
:1021E000EDB5C24746C41AC0BEC082570645BEC23E
:1021F000B7770020964503A687DB83A6C7DBEF30C1
:10220000E0480243A248E34B05D6631003080503E8
:10221000B5B393F6CB00FDCAFD1AE3E65CF793066F
:102220000002E382DCFA93F64B0095CE1306B0026F
:1022300071B76380CC03E698930500031306000290
:10224000638C9801850CB3079D01A38FB7FEE399BA
:10225000CCFE930C0002F9BD8A989306E002850C2F
:102260002380D806C1BD93F68B00B1DE13060002B1
:10227000B387CC00B38627002380C604850CA1B7A2
:1022800013881D00937DE8FF75B593761300E387EF
:1022900006CE0503E5B193F73B005A848DE38D47E5
:1022A00063FF57011304DBFF5694DA842686D28637
:1022B0008504CE85130500020299E31994FEB774D4
:1022C000002093848494938CD4FF228C03C5240033
:1022D0006286D286CE85FD14050C0299E39894FFA0
:1022E00093FB2B0093043400E3810BDEB38764413E
:1022F000E3FD57DD2686D286CE85130500028504D0
:102300000299B3876441E3E757FFC1B3E3ED5CE7AC
:102310005DBDE38D0AE8E257E38D07EEFD1AE3E4C5
:102320005CE7E39B1CE945B50D71232821152326A5
:102330003115232441152326B1132A89AE89B28D84
:10234000368A3A85BE853A86BE86232C8114232A96
:102350009114232251152328A113232E1114032D88
:1023600001163A84BE84C2C1C68AEF40E01E631FD4
:10237000051AB777002003A607DA83A647DA228575
:10238000A685232C8113232A9113EF304024634B1D
:10239000A018B777002003A687D983A6C7D92285BE
:1023A000A68523206115232E7113EF30202E634064
:1023B000051C22CC26CE6245F24501468146EF300F
:1023C000E02C139BF4696344050022CC268B931701
:1023D000B028B376FD0013770D40BAC336C8B36793
:1023E0006401631F07186398071E639E064E994792
:1023F000BEC1937C2D00639A0C4E114CB3F78A0B2F
:10240000F1173EC8814B22D026D202559255014683
:102410008146EF30A0276344054EE2475ADF3EDD98
:102420006A57FA570E48C2489376FDFF9396B6480E
:10243000135D5D4836C06E86D286CE854A857D1D89
:10244000EFF0BF9A137D0D022A86D28613055D0434
:10245000CE85130416000299B306704137D3CCCC55
:102460007D1CB3E6DB0A13D8FB0118021303D3CC9F
:102470008147254E930E000219A06384D70333B61B
:10248000660285073685B308F7000D82B345C6207E
:1024900086058D8E93860603A38FD8FEB286E36EE3
:1024A000AEFC954636C462C202C02286A948D286D6
:1024B000CE854A85EFF06FF0638A0C023304B54194
:1024C00063765403AA8433868D00D286CE851305A5
:1024D000000205040299E36854FF3387B4410507FD
:1024E0002685814763F8EA4005053E958320C1159E
:1024F00003248115032B0114832BC113032C811397
:10250000832C411383244115032901158329C11408
:10251000032A8114832A4114032D0113832DC11230
:1025200035618280032C8113832C411322C826CA73
:102530004247D2470E482320A117D688D2866E86FE
:10254000CE854A85032481158320C1158324411536
:10255000032901158329C114032A8114832A4114F4
:10256000032D0113832DC11235616FF01F88032BDA
:102570000114832BC113032C8113832C41137DB7CA
:10258000A9EFE38806E6814B8E47014C63C7FB3811
:10259000A2C5A6C72E45BE4501468146EF30000FB5
:1025A000634C0532A2D1DAD30E579E57131DBD4896
:1025B000136D0D406288032B0114832BC113032C70
:1025C0008113832C41132320A117D688D2866E86CF
:1025D000CE854A8585BF9947BEC113554B011375FA
:1025E000F57F130515C0EF40C006B777002003A69E
:1025F00007DC83A647DCEF306015B777002003A621
:1026000087DC83A6C7DCEF2040119317CB00370689
:10261000F03FB183D18F3ED622D4B777002003A6F6
:1026200007DD83A647DD2A8CAE8B2255B255EF30ED
:102630004067B777002003A687DD83A6C7DDEF30AC
:10264000E01062D85EDA2A86AE864255D255EF2077
:10265000C00CEF303074AA8BEF30B07FB77700201A
:1026600003A607DE83A647DEAA8C2E8CEF30000E71
:10267000B777002003A687DB83A6C7DBEF20E0093E
:10268000EF3050713777002066DC62DE032687DE8C
:10269000AA87F25562558326C7DE3E8CEF30000BC9
:1026A000AA8C628562D42E8CEF30B07AB777002086
:1026B00003A607DF83A647DFEF304009E6C0E2C28A
:1026C0002A86AE8606459645EF30A05DAAC4AEC602
:1026D0002646B6462ADC2ED8EF304007C25762574E
:1026E000AA8CBECABAC8BACCBECE2E8C4646D64636
:1026F0006645F645BEC0EF204002B7760020E6D022
:10270000E2D2AA882E8803A686DF065583A6C6DFF6
:10271000965546DC42D8EF20B00C377300200326D4
:1027200003E0832643E0EF10507FE6D4E2D62A860A
:10273000AE862655B655EF20B00AB776002003A620
:1027400086E083A6C6E0EF10507DE6D8E2DA2A865E
:10275000AE864655D655EF20B008264786472A8CC8
:10276000BADCBEDEB777002003A507E16656F65651
:10277000AE8C83A547E1EF30C05262C166C32A86A2
:10278000AE860A459A45EF1050794258E2582A869B
:1027900042C746C5AE862A45BA45EF207004B777D2
:1027A000002003A687E183A6C7E1EF101077A257A8
:1027B00001473AC99387F73FD2073ECBDA464A46EC
:1027C000EF20D0782ACD2AD82ECF2ED422D15AD39A
:1027D0006A46FA460A559A55EF20506BA25742575F
:1027E00037730020635F0500BAC9BECB4E45DE4596
:1027F000032603E0832643E0FD1BEF20607E2A874B
:10280000AE8793863B069305600C3A863E85937CA3
:102810002D0063EBD502C246114CB1E263775C0137
:1028200063910C109386CAFF36C8E38E0BBC5ADB4B
:102830003AD522D93ED72A56BA564A55DA55EF200C
:10284000207A2ACC2E8BC1B6C246154C89EAE37099
:102850005CFF639C0C0C9386BAFF36C8C9BF3ED49C
:102860003AC8498EE30206D2A2CDDACFB77600206D
:1028700003A606E26E45FE4583A646E2EF203055EC
:102880004247A25763420502B7760020A2D5DAD7A5
:1028900003A686E22E55BE5583A6C6E2EF20105F42
:1028A000E34405CE4247A2578E4691CE1E4601CE46
:1028B000FD16B6C163755C01638B0C04894C02C8BC
:1028C000E3970BF689B6E37C5CFF63820C0402C8D5
:1028D000894CE39E0BF405BE131BFB69A2D9DADB1E
:1028E0004E57DE57E1B1154C65B102C8814B894C9A
:1028F000114C11BE9387FDFFD697858FF5B6E24741
:10290000131BFB69DADFBEDD6E57FE5721BEB386AF
:102910008A4136C8E39D0BF0FDB4338C77417D1CB2
:1029200085B9894CE3950BF0F9BC894C09B7B737E9
:10293000002035719387E79222CD52C5E6DAEAD8B6
:10294000EED606CF26CB23A8F180AE8C328A368411
:102950003A8DAA8D6381053A0345040081446305DD
:10296000053A4EC756C35AC1DEDEC149930B500229
:10297000B77A0020254B11A82686D286E6858504E5
:10298000829D03450400630005120504E31675FFEC
:1029900081460345040013071400930705FE93F7CF
:1029A000F70F63E8F9001386CAA3B3C7C7209C4397
:1029B0008287930705FD93F7F70F637DFB08930765
:1029C000A00281486303F51A9307E00201486309F6
:1029D000F50A930785F993F7F70F49466363F60401
:1029E00037760020130606A8B3C7C7209C4382870A
:1029F00093E616003A8471BF93E626003A8451BFED
:102A000093E646003A8471B793E606013A8451B7DB
:102A100093E686003A84B5BF0345140093E606109A
:102A20000507930770063A8463E7A70A93074002F5
:102A3000E3F4A7F49307B5FD93F7F70F130720040A
:102A4000E36CF7F2377700201307C7ACB3C7E72072
:102A50009C4382878148B3C81821B3A8A8200345A6
:102A600007003A84938808FD930705FD93F7F70F55
:102A70000507E372FBFE9307E0020148E31BF5F450
:102A800003451400A54793E60640930505FD93F51D
:102A9000F50F3A8663FEB7289307A002630EF52A66
:102AA0003A8405073DB7BA499A4A0A4BF65B268431
:102AB00063E444019304FAFFD2862686E685014545
:102AC000829DFA4022856A44DA442A4AD65C465DF1
:102AD000B65D0D618280130775F91377F70FBD4757
:102AE000E3ECE7E8256613061604B317E028F18F38
:102AF0006390072229466304C7081D46E31EC7E604
:102B000003270D00110D6314072693F5F6FE93F6C7
:102B1000064093E5150298009DEA98002543BD48BC
:102B2000130E000221A06384C703B28693FEF60051
:102B300013857E036364D30113850E038507330673
:102B4000F700A30FA6FE13D64600E3EED8FCA1467D
:102B500042C02EC4268636C2C1480148D286E685C8
:102B60006E85EFF08F85AA8429BD83280D00110D95
:102B700063C20808034514003A840507B1B59307FA
:102B80004D004AC9E2DC3ECE03290D007D566303A9
:102B900008004286034509004A96CA876307055024
:102BA0006301F62603C7170085077DFB338727419E
:102BB00093F70640898A638D07243357070B63898F
:102BC000065E8946330C980046D0A687368D3AD2E9
:102BD00022D4630DFC28D2863E86E6851384170036
:102BE000829D330794404A970345070063060528F2
:102BF000A287C5B70345140093E626003A84B308BC
:102C000010410507D1B3034514009307C006E3172D
:102C1000F5E00345240093E606301307340011B5B0
:102C20000345140093E606200507E5BB03451400A1
:102C300093078006630EF52093E606080507D5B3D3
:102C4000930770066309F512930770046306F51A7B
:102C5000930750046304F51A1D0D137D8DFF0327A0
:102C60000D0083274D00268636C0E685D2866E8508
:102C7000EFF08FEB210DAA8429B393076004630F53
:102C8000F50E1D0D137D8DFF03270D0083274D00CD
:102C9000268636C0E685D2866E85EFF00F95210D2B
:102CA000AA84C5B12686D286E6851305500285041E
:102CB000829DC1B993074D004AC9898A3ECE1389C6
:102CC00014006382061C03450D0046D02686D2867A
:102CD000E685829D82588547C69463F9173F4A86E8
:102CE000D2860509E68513050002829DE31999FE47
:102CF000724D4A4979B10345040037230020930DF2
:102D000003B08144E31F05C40144E3E744DB5DB342
:102D10009307F0066307F50663FEA7264AC99307E3
:102D200080076302F5362946BD9A3283814EB1A8E9
:102D30003E873348082105063328A82003450600AE
:102D4000130808FD930705FD93F7F70FE373F7FEEC
:102D5000328413071600B5B903280D00034524007B
:102D60000904130714003368080A110D9DB193E597
:102D70001602BA865DB39396B628F9BD93E60602AD
:102D800009B721464AC93283814E13F5064013FE26
:102D900036FF19C113FE26FF93750E20639A053284
:102DA00093770E1013094D00639D074E13770E04A1
:102DB0006316072E13770E086302075803560D009B
:102DC000631B0634137EFEFE6307053481479800BB
:102DD00046C272C442C09A88268601485DA2930703
:102DE0008005630EF506930720066314F510094667
:102DF0004AC93283814E51BF9396B62893E60602A4
:102E0000A1BD93F7064033072641898AE39707DA85
:102E1000638B06348946A287368C46D03AD2268404
:102E20003E8D2286D286E685829D05043307944036
:102E30004A970345070075F582581257EA87228D95
:102E4000E2863E84EA84D1E6724D4A49665C15BE4C
:102E50000345240093E6060C13073400D9B6414617
:102E60004AC993E606023283814E05B7825812574B
:102E70002254EA86E284C1BFEA86228D8258125724
:102E80002254EA84C9B7854763FC1723A2871389B4
:102E9000F4FFE2DC469946D026843E8C2286D28618
:102EA0000504E68513050002829DE31924FF82587C
:102EB00003450D00E287228C6286D286E6853E8439
:102EC000C694829D665C724D4A4965BC898A638559
:102ED0000648268CE37A17F7A698B384E840628602
:102EE000D286050CE68513050002829DE3199CFE3F
:102EF000A1BF13F6064013FEF6FE55E613750E202D
:102F000045E94AC993770E1013094D00639B072AC0
:102F100013770E046315071613770E086305074031
:102F200003170D009356F740B345D700958DB3C5F1
:102F300005089356F701630207282E86B7DECCCC2E
:102F4000938EDECC9800254F930F000219A0638466
:102F5000F703B335D60385073283B302F7008D81BB
:102F600033C5B5200605098E13060603A38FC2FEDE
:102F70002E86E36E6FFC46C242C072C43688268637
:102F8000A948D286E6856E85EFE03FC34A8DAA84C4
:102F90004A49C5BA9307900613FEF6FE6316F53A42
:102FA00013F6064021DE13FEE6FE13060040B9B715
:102FB0001D0D137D8DFF83264D0083250D00210DF2
:102FC00013DFF601B3E7D500F9C393D7F641BD8D02
:102FD0003387F540BD8EB387F640B3B6E5004AC9E6
:102FE000E2DCB386D740BA8537D5CCCCAA8E938E97
:102FF000CECC1305D5CC81479800930F00023689BB
:1030000033862501B336B6003696B336A6024A8318
:103010008507B302F700AE8313DC2600F19AE2962F
:10302000158E3386C540B3B6C500B306D940330C00
:10303000D603B386A6023339A602E2963306A60269
:10304000CA96139CF60113D9160005823366CC008C
:10305000B346C6208606B386D54093860603A38F63
:10306000D2FEB285630F0302E39CF7F94A49665C1E
:1030700046C242C072C47A882686A948C5B40347AE
:103080000D00BA857DB541463283814EFDB9631A84
:10309000062A4AC9E2DC81458146B9B703460D00DC
:1030A00005B3A546E3E276FCD1B713F70640E30F7C
:1030B00007E013F72600630F07280147268C19BD88
:1030C00003450D002686D286E685829DCA840DB111
:1030D0001D0D137D8DFF032F0D0003294D00E2DC34
:1030E000210DB3672F01639E0712137EFEFE630A54
:1030F0000512014C980046C242C0E287268672C47F
:103100009A880148D286E6856E85EFE01FABAA84D7
:103110004A49665CBDB093565E481307100699C2D3
:1031200013071004130F67FF25459800930E000244
:103130000DA09386060393F6F60F8507B305F700F7
:10314000A38FD5FEB3566602E36466C8E382D7C98F
:103150003686B375660293F6F50FE37CB5FCFA96F6
:1031600093F6F60FD9BF637E171F338D9800A287A1
:10317000330DED402684368C46D042D2BE84228662
:10318000D2860504E68513050002829DE319A4FF9B
:10319000825803450900A6871258A284E2863E841D
:1031A00013871800E30205CAE3070CC6814619BC61
:1031B0006377171B930600404DBF9800E31D06DAA6
:1031C000B5BB83270D0093D6F70163850716330639
:1031D000F04033E6C70AB7DECCCC938EDECC980045
:1031E000254F930F000219A06305F503B335D603ED
:1031F0000505B302A70032838D81B3C7B5208607CA
:10320000B307F64093870703A38FF2FE2E86E36D84
:103210006FFC46C242C072C43688AA872686A94877
:103220008DB313575E489307100619C39307100414
:10323000D917980026D46ED866DA52DC22DE014C0B
:1032400072CE46D042D21AD6FA84328AF68CBA8D21
:103250003E8405A89307050393F7F70F050CB38683
:103260008D01A38FF6FE528681462685CA85EF0022
:10327000505B638D2C0993070002630BFC08AA8442
:103280002E89528681462685CA85EF100012137555
:10329000F50FA547E3F0A7FCB307850093F7F70FF9
:1032A00075BF83270D0089E7137EFEFE980029E98C
:1032B00093565E481307100699C213071004130FA4
:1032C00067FFA54E9800130500020DA09386060324
:1032D00093F6F60F85053306B700A30FD6FEB3D6D7
:1032E000670263EF6700638DA500B68733F6670258
:1032F0009376F60FE3FCCEFCFA9693F6F60FD9BF61
:1033000046C272C442C09A88AE87F9B4E3F544F766
:103310006E87724E82581258A2543253D25C625A4F
:103320007254C25DC9BB03270D00B305E040B3650D
:10333000B70A01B19800E31E06EC71BD03260D002B
:1033400041B4814798002DB329464AC9F286328399
:10335000814E25BC93060040E39908E0F5B40507CB
:1033600095B005074DBC0111B72800202A88AE870B
:1033700036872C00B286138508DE7D5606CE42C401
:103380003EC6EFF0CFDAF2400561828083A701816B
:10339000011106CE91CFAA86372500202E8713056E
:1033A00085DD6C007D568297F2400545056182807F
:1033B000612EF2400145056182800D45731025BEE6
:1033C0007D15E35D05FE0565130505807310453029
:1033D000736004307310003482800290FDBF41118D
:1033E00006C6E53F411122C426C206C63774002036
:1033F000EFE06FD7B7740020930704F1938404F1D2
:1034000063F99700130404F11C4011048297E36DE3
:1034100094FEB24022449244410182801C412E8598
:10342000B285828783475501011126CA4EC652C410
:1034300006CEAA892E8AB284E9C76358C00403C79E
:103440000500A9476309F706054781476385E4043A
:1034500022CC4AC856C213091A000544A94A034798
:103460000900A2860504630657070509E39984FE4F
:1034700062444249924A63C09702269A8347FAFF00
:10348000CD1793B71700238AF900F240D244B2490E
:10349000224A0561828003A709003305FA00B3853B
:1034A000F4400297269A8347FAFFCD1793B7170087
:1034B000238AF900D9BF83474501D9F71C413775E5
:1034C0000020130505E3894582978547E392F4F8C8
:1034D0006DB70346F9FF3547E309E6F8B385F640D3
:1034E0003305FA0063D5D70083A70900829783A725
:1034F000090037750020130505E389458297A287E7
:10350000ADB71C41F240D244B2495285224AB2853D
:10351000056182879C41011126CA4AC806CE13075D
:103520000008AE842A89638DE7001387170098C0CE
:10353000BE9423822401F240D24442490561828034
:1035400022CC03A481814EC652C4938945001DE05C
:10355000054781476244B249224A98C0BE942382FB
:103560002401F240D24442490561828090405D3D91
:10357000004879DC1C40CE852285FDDB83A7418194
:10358000F5D7E39787FE9040713DDDB7397122DCB6
:1035900026DA4AD84ED606DEB28952D456D25AD04E
:1035A0002A89AE843684EFE00F82B7470F009387F5
:1035B0000724AA9733B5A700370700803306B50064
:1035C0007D17BE856374C7003A86FD55B77A002023
:1035D00013854AEDEFC05FD6FD572A8B638FF40841
:1035E00039C4373A0020130A4A4203A481811DC01E
:1035F0006394090419A0004811CC1C402686CA8592
:103600002285F5DB83A7418199C3E316F4FE029A74
:10361000004865F4631E0B04F25062544259B259DB
:10362000225A925A025B2685D25421618280373A0F
:103630000020130ACA4155BF5ECEA94B19A000480D
:103640000DC41C402686CA852285F5DB83A74181EF
:1036500099C3E39687FE029A22859305F1000546F9
:10366000A3077101029A004869FCF24BE3060BFACA
:1036700013854AEDEFC0FFD245B74A85EF306011A0
:10368000AA84B9BF83A781811387818199C7638980
:10369000A700138707019C4BFDFB91C108C38280E3
:1036A000FDFD944B14C323A807008280797126D2B4
:1036B00006D622D44ECE52CCAA84A307A100EFD0C6
:1036C0009FF0B7470F0093870724AA9733B6A70048
:1036D000370700802E967D17BE856374C7003A8633
:1036E000FD55377A002013054AEDEFC0FFC403A44F
:1036F0008181AA8905C44AD019A0004819CC1C4070
:1037000005469305F1002285EDDB83A7418199C32E
:10371000E315F4FE013B00487DF00259639A09006D
:10372000B2502254F249624A268592544561828001
:1037300013054AEDEFC0FFC6B2502254F249624A67
:103740002685925445618280411106C622C426C254
:103750002A84EF300004AA8485462285A685368611
:10376000353503A4818111C45C4091CB8297004818
:1037700065FCB24022442685924441018280004883
:1037800065F4B240224426859244410182807171E1
:1037900022D526D306D74AD14ECF56CB2A84AE8423
:1037A000EFD07FE2B7470F0093870724AA9733B67D
:1037B000A700370700802E967D17BE856374C7006B
:1037C0003A86FD55B7790020138549EDEFC0DFB685
:1037D0002A8937350020A68622866C0013054551BC
:1037E00002C65136B24703A48181AA84B9C352CD1F
:1037F00015E06A4A02C663180904BA502A540A59E5
:10380000FA49DA4A26859A544D618280324619393E
:10381000004801CC1C400C082285FDDB83A74181B8
:10382000F5D7E38587FE004875F403A481816A4AD1
:1038300002C671D05C4091C7829700484DDC5C4065
:10384000E5FF0048FDB7138549EDEFC09FB575B79B
:103850003971130341022ED29A8506CE32D436D660
:103860003AD83EDA42DC46DE1AC61537F24021610C
:103870008280635EB00203A74182B787F8BFBA9720
:1038800093B717009386C180B3A7D720039807008A
:103890003306B500B54583460500630BD8001C4FC1
:1038A00093F70702EDFF14C30505E316C5FE8280FA
:1038B0001C4F93F70702EDFF0CC3D5B703A8018295
:1038C0002A866351B00603A7418201451C4FC18B74
:1038D0009DEB05051C4FC18BF5FF1443B307A600F4
:1038E000A38FD7FEE394A5FE630D080093070005A0
:1038F0001CDF5C5B85669386460393F787033697E8
:103900001CC32E858280630D0800930700051CDF11
:103910005C5B85669386460393F7870336971CC3E3
:103920000DC18280630F080083A741821307000541
:10393000856698DFD85B93864603B697137787032F
:1039400098C37555828083A7018281CB03A74182EA
:1039500003A5C181232C07028287828003A74182AD
:103960001C4FA18BF5FF828041114AC003A6418202
:10397000B787074022C4B307F64093B7170026C2A3
:1039800006C61384170283A7018201C99DCFB240E6
:1039900022449244024941018280F5DB2285232C96
:1039A00006028145EFC09FECB74500202285938534
:1039B0006594EFC09FF7B240224423A0018223AE5A
:1039C00001809244024941018280AE86B7450020C1
:1039D0002A8722859385659423A0E18223AED18036
:1039E000EFC03FEC22858545EFC05FE883A74182A9
:1039F00013070005856698DFD85BB24022449386A2
:103A00004603B6971377870398C39244024941014E
:103A100082803776002037770020B7770020411169
:103A2000034646E5034707E583C7C7E422C4B70654
:103A300007408945014506C623A2D182EFC03FBC9D
:103A400089450545EFC0BFBB03A54182F16593855C
:103A50000520EFD0FFBE2244B24037750020130589
:103A600085EB8545410139B90327851683C7750064
:103A70002A8825CF858BB5EF8387550063C407005F
:103A80006319F606B707E0AF03C54500C297377E56
:103A90000020D183130E0E0B33C7C721032F07005D
:103AA000B31EA028FD1EB39ECE003377DF01139313
:103AB000270031E39C411DC13325F520B28589687B
:103AC00083D607001387050133470721890763F36E
:103AD0001601B29614C78505E394A7FE1A9E336FAC
:103AE000DF012320EE0132858280918B5555C9D7A5
:103AF0008280555582805D558280B707E0AFAA97D6
:103B0000D18309476389E7020547638CE70037766D
:103B1000002013060698B3C5B720138581826FC0B5
:103B2000DFB8377600201306069CB3C5B72013858F
:103B300081826FC09FB7377600201306C699B3C540
:103B4000B720138581826FC05FB6B707E0AF3E959F
:103B50005181B345B520138581826FC0FFC483278F
:103B600085161D8EFD4763E3C708B3A7B5200D6812
:103B7000B3E8A7201308C80C83AEC80DB3870801AB
:103B80003703020003AEC80C396823A0670013088E
:103B900008081393150039E7954863F5D8023307F1
:103BA000B3003367A720931756009397A7299397DD
:103BB000C729232EF70C1506ED16232C070D7D8A39
:103BC000E3E3D8FE16062E93EA063365A320D18ED2
:103BD000232ED50C232C050D232ED50D2326C50D04
:103BE0000145828039681308F8097DB76D558280D8
:103BF0001C41B397B7481CC1D9CE9C4A984283AEAA
:103C00008600B3A8B520B3E8A82013C8F7FF23A403
:103C1000E80C378E100013574800130E1E42135342
:103C2000180023A8D80D3377C70133730301032E7F
:103C3000851685833373E30033F8E7009397150007
:103C4000630003023368C8016310080E03A3460033
:103C5000D4463387B7003367A7202326670C2DA0EF
:103C60006316080A03A8C60003A34600C286E3023F
:103C70000EFE93564701F206B3C6660023A6D80C83
:103C800032072183B34607013387B7003367A72084
:103C9000232ED70C2DA0B3A7B520B3E7A7204167EB
:103CA00023A4E70C37070C0023A8E70C7D678326C5
:103CB000851623A6E70C23AE070C93971500AE9745
:103CC0008E071387070D2A97856636973708008079
:103CD000B706010123200701938616102320070150
:103CE0003397B60013884500896618C53318002934
:103CF0003307D500A10523200701B315B0283E9551
:103D00007D8A0CC3232CC50C01458280630E0E00F6
:103D100003A346001358470172083348680023A6DE
:103D2000080D03A8C600A9BF555582805971D2CC91
:103D300086D6A2D4A6D2CAD0CECED6CADAC8DEC61D
:103D4000E2C4E6C2EAC06EDE3EC62ACA32CC36CE35
:103D50002E8A99CB9306F7FFBE9611839182B317F3
:103D6000E028B397D7283EC6930718003EC4014BFE
:103D7000B7740020370C2050930BC102914A3709C9
:103D80002000B709E0AFB30C890123209A01630F2B
:103D90000B045E8D814DCE9C93DC4C018A0C938686
:103DA0003C0066861387449E814513858182EFC05F
:103DB0003F96B30795419397476063439519230056
:103DC000FD0063C00716850D638C5D0D832C0A0012
:103DD000050DD1B73707F0FFB306E900B70710505C
:103DE000638AE608CA972320FA003689935C490162
:103DF0008A0C93863C0066861387449E8145138512
:103E00008182EFC0FF90B307954193974760E343EA
:103E100095FD2306F102E3CF07FAEFC05F85832605
:103E20000A00AA8C854D83A78616DDC3B247858B11
:103E3000DDC36685EFC0FF85D557014D3EC8B70C81
:103E4000E0AF83270A00B386AB0183850600E697BF
:103E5000D183B3C5B72013858182050DEFC0DF94F0
:103E6000E361BDFFC24763DA0714B707F0FF3E996D
:103E7000E31BF9F0A247050BE313FBF023200A0034
:103E80000145B650265496540659F649664AD64A14
:103E9000464BB64B264C964C064DF25D65618280D2
:103EA000EFC0EFFC83260A00377700201307070BCB
:103EB000B3873601D183B3C7E7209C43AA8CA5F70B
:103EC000B2478A07C18B23A4F61683A78616B9FFCB
:103ED000B247918BB9FF52463707E0AF3697834818
:103EE0004600B7770020030656009387070B5183DF
:103EF0003347F720B3151029930700020843FD1537
:103F0000B38717416342060663C6C700B397C5006F
:103F1000E98FBDC76685EFC0CFF7FD57014D3EC89D
:103F200039BF63960D023707F0FFB307E900E3835B
:103F3000E7F4B70C1050CA9C23209A013E8991BD2A
:103F4000B3872D007D572386E702E38E0DFCB7076C
:103F5000F0FF3307F900E30FF7F0B70C1050CA9CDD
:103F600023209A013A8935B563C20704FD5819A088
:103F7000638E17033397F500698F3E86FD176DFB3F
:103F8000D2453685EFF05FAE2AC8634A0502830743
:103F9000C102624766851CC34247F24798C3EFC01F
:103FA0004FEF0547638BED003A8D51BD6685EFC03D
:103FB0004FEEDD57014D3EC859B50545D9B566856B
:103FC000EFC02FED014DA5BD411106C622C426C28A
:103FD0004AC0834745002E843289B317F028FD1765
:103FE000B394D700EFC0AFE8B707E0AFA297377739
:103FF0000020D1831307070B33C7E7201443139422
:104000002700B3F796401CC3EFC0AFE8B305240107
:104010002244B240924402491385818241016FC01B
:10402000AFF83288AA882E87D5EA63FFC50EC1672C
:10403000636CF618B7070001E1466373F600C146EA
:10404000B77700203353D6009387C7C89A9783C7A2
:10405000070013030002B697B306F340630BF300A7
:104060003397D500B357F5005D8F3318D600B318DA
:10407000D500135608013355C70293160801C182B3
:1040800093D708013377C702B385A6024207D98FB9
:1040900063FAB700C2971307F5FF63E4070163EF04
:1040A000B72E3A858D8F33D7C702C20893D808013F
:1040B000B3F7C702B386E602C207B3E8F80063FBB2
:1040C000D800C2989307F7FF63E50801791763E307
:1040D000D8003E874205598D8145828063F5D50021
:1040E000814501458280C16763E8F618B707000182
:1040F000614863F3F6004148B777002033D70601E3
:104100009387C7C8BA9703C707009307000242976F
:10411000B388E7406398E71663E4B6263335C500F5
:10412000133515008145828055C6C1676372F62438
:1041300013370610133717000E07B356E600B7778C
:1041400000209387C7C8B69783C70700930600026D
:10415000BA97B38EF640639FF608B387C54093566F
:10416000060142064182854533D5D70213D708019F
:10417000B3F7D7023303C502C207D98F63FA6700CA
:10418000C2971307F5FF63E4070163E667203A85EA
:10419000B387674033D7D702C20893D80801B3F773
:1041A000D7023306C702C207B3E8F80063FBC800B2
:1041B000C2989307F7FF63E50801791763E3C80026
:1041C0003E874205598D82809336061093B61600BD
:1041D0008E06BDB5B777002081469387C7C8B697CE
:1041E00083C70700014793060002BA97B38EF640D3
:1041F000E385F6F63318D60133D3F500935608015C
:10420000335ED30213160801B395D5014182B3572B
:10421000F500CD8F13D70701B318D5013373D3023F
:10422000B305C603420333676700637BB700429759
:104230001305FEFF636D0715637BB714791E429764
:104240000D8F3355D702C207C1833377D7023303AB
:10425000A6024207D98F63FB6700C2971307F5FFD9
:1042600063E3071363F167127915C29793150E0183
:10427000C98DB3876740CDBD13B806101338180039
:104280000E089DBD335EE600B3961601336EDE0068
:1042900033D8E500935E0E01B357D80313130E0114
:1042A000B3951501135303013357E5004D8F935612
:1042B0000701331616013378D803B305F302420819
:1042C000B3E6060163FBB600F2961388F7FF63E2DC
:1042D000C60D63F0B60CF917F2968D8E33D8D6035F
:1042E00042074183B3F6D603B3050303C206558FD5
:1042F000637BB70072979306F8FF6368C70963761C
:10430000B70879187297C2079316080113130601AC
:10431000B3E70701C1821353030113D80701418298
:10432000330E68020D8F33836602B386C60293553F
:104330000301F296AE963308C80263F4C6014166E3
:10434000329813D6060142966360C7026305C70020
:104350003E8581458280420313530301C206331513
:1043600015019A96E376D5FE1385F7FF8145828085
:10437000B70700016377F602935606014147C1B3C0
:104380008145054582803A85D5B53688ADBF2A8EF0
:1043900045BDC28799B77915C297DDBB7915C2971C
:1043A00011B393568601614759BB3288AA882E8380
:1043B0002E87CDE663FFC50EC1676362F618B707A7
:1043C0000001E1466373F600C146B777002033531E
:1043D000D6009387C7C89A9783C7070013030002C4
:1043E000B697B306F340630BF3003397D500B3578A
:1043F000F5005D8F3318D600B318D500935508012A
:104400003356B702131308011353030193D708015E
:104410003377B702330666024207D98F63F7C700C6
:10442000C29763E4070163E4C72E918F33D7B702C5
:10443000139508014181B3F7B70233076702C2073A
:104440005D8D6378E5004295636505016373E50062
:104450004295198D3355D5008145828063F3D5008F
:104460008280C16763EBF616B7070001614863F30A
:10447000F6004148B777002033D706019387C7C8B5
:10448000BA9703C707009307000242973388E740B3
:10449000639BE71463E4B600636AC500B308C540D4
:1044A00033331501B386D5403383664046859A85FC
:1044B000828041CEC1676370F6241337061013372C
:1044C00017000E07B356E600B77700209387C7C8DA
:1044D000B69783C7070013030002BA97B306F340E9
:1044E0006315F3083387C540135306014206418222
:1044F000B355670293D7080133776702B385C502C6
:104500004207D98F63F8B700C29763E5070163F3E9
:10451000B700C2978D8F33D76702C20893D80801BE
:10452000B3F767023307C7021395070133E5A80005
:10453000E36BE5F0198D3355D500814582809336C4
:10454000061093B616008E0649B5B777002081464F
:104550009387C7C8B69783C70700014713030002B4
:10456000BA97B306F340E30FF3F63318D60033DE01
:10457000F50013530801B35E6E0213160801B395DC
:10458000D5003357F50041824D8F93570701B3187B
:10459000D500337E6E02B385CE02420EB3E7C7016B
:1045A00063F8B700C29763E5070163F3B700C297EA
:1045B0008D8FB3D5670242074183B3F76702B38596
:1045C000C502C2075D8F6378B70042976365070134
:1045D0006373B70042970D8F21BF13B806101338CD
:1045E00018000E0841BDB3960601B358E600B3E8C3
:1045F000D80033D3E50013DE0801B356C303939EFE
:10460000080193DE0E01B357E500B3950501DD8D7A
:1046100093D7050133160601331505013373C30320
:10462000338FDE024203B3E7670063FBE701C697FF
:104630001383F6FF63EB170D63F9E70DF916C697C1
:10464000B387E74133DFC703C205C181B3F7C703AF
:10465000B38EEE03C207CD8F63FBD701C6979305D8
:10466000FFFF63E2170B63F0D70B791FC697C206F3
:10467000131E0F01B3E6E60113130601135E0E01CC
:1046800013530301C182135F0601B38F6602B38522
:10469000D74133036E02330EEE03935703017E9E20
:1046A000F297B386E60363F4F701416EF29613DEE8
:1046B0000701420313530301C207F2969A9763E47A
:1046C000D5026380D502B307F5403335F500958DEB
:1046D000898D3397E50033D50701B3D50501598D91
:1046E0008280E372F5FE3386C740B3B7C700C69732
:1046F0009D8EB287C9BFB7070001637CF600935651
:1047000006014147D1B32E8F9DB79A8615BFC29738
:1047100029BB93568601614745BB37031000011141
:104720007D1313D74601B377B3003378D30056C255
:1047300093DA45018E0726CA52C493FAFA7F135AB8
:10474000D50193D4F5010E089375F77F06CE135764
:10475000D60122CC4AC84EC6FD82336AFA00B2881E
:10476000B387BA4033670701131E3500931E360026
:104770006389D40E6355F00463920516B366D701BE
:10478000638106309386F7FF638C06621306F07F21
:104790006386C73A13068003635FD6561304FEFF91
:1047A000333E8E00330ACA4193168A0037078000D1
:1047B000BE8A63DA0604130AF7FF7D54B9A2638444
:1047C000071AB3875541639D0A3C3366CA016300EB
:1047D00006581386F7FF6307066A1305F07F638F99
:1047E000A762130580036356C5741384FEFFB3BE2E
:1047F0008E00330AD74113168A00370780006341C1
:10480000067CB684BE8A9307440033B48700229A9C
:104810003E8493178A0063DD072093871A001307ED
:10482000F07F2688638AE720370780FF7D1793F79C
:10483000F77F3377EA001316D7010D802607418EE4
:104840003183F2406244D207D98F1317F801D98F10
:10485000D2444249B249224A924A3285BE85056114
:1048600082802688635DF01C63920516B366D701CB
:10487000638906209386F7FF638E064E1306F07F4A
:104880006389C75A13068003635CD66293168A0055
:104890003707800013041E00BE8AE3D606F63A8A64
:1048A0000144850A9307F07F6387FA18B70780FFF2
:1048B000FD17B377FA001357140005889396F70194
:1048C000418F13DA170033E4E60093777400B1D315
:1048D0009377F4001147E38EE7F235B79306F07F44
:1048E000638EDA249306800363D2F61C1304FEFF62
:1048F000333E8E00330ACA4113178A00B70780007F
:10490000E35307F0138AF7FF7D545285EF1090614F
:10491000930785FF13070002B306F740B356D40090
:10492000331AFA00B3E646013314F40063C7572F75
:10493000B387574185071D8F3316E4003336C00017
:10494000335AF400336646013397E6003364C700F8
:1049500033DAF600B3674401814AA5FB2688814714
:1049600001470146F9BD93871A0093F7E77F6392E9
:104970000728B367CA013366D70163910A3E638B88
:10498000075263050620B305DE413336BE00B30788
:10499000EA40918F13968700635F065C338ECE41A9
:1049A000B3BECE01330747413307D741B367EE00AB
:1049B0007284B684C5D79317870063D70760B7079B
:1049C00080FFFD177D8F36888547B5B59306F07F4C
:1049D0006386DA169306800363C2F62CB70680005E
:1049E000558FFD4663C8F640130600021D8EB316B0
:1049F000C7003396CE00B3DEFE003357F7003336E0
:104A0000C000B3E6D601B3E7C6003A9A3E9EB3377C
:104A1000FE003E9A728493178A00E3C407E89377F6
:104A20007400638C075A9377F4001147E39DE7DC29
:104A3000D6870D8091A8D6870147014619B56389AD
:104A40000710B387554163940A26B366CA01638D84
:104A5000064C9386F7FF638F06301306F07F63845E
:104A6000C73E13068003635BD65293168700370A4E
:104A70008000BE8A0144E3C606E213841E003A8A1F
:104A800059B3131435000D801316DA019306F07F25
:104A9000418E13573A006398D708598E59CA014876
:104AA0009307F07F37070800014661BBB706800017
:104AB000558FFD4663C0F618930600029D8E331491
:104AC000D700B396DE00B3DEFE00B336D000336409
:104AD000D4013357F700558C330AEA4033048E4033
:104AE000333E8E00330ACA4193178A00E3D907F296
:104AF000260A135A9A00E31A0AE02285EF10904220
:104B0000930785017D47E357F7E06115B316A400CD
:104B100063D65715370780FF7D17758F1316D7019A
:104B2000B387FA400D833207318393F7F77F2688E6
:104B300009BB26889307F07F014721B31314350082
:104B4000135534001316DA01498E13573A00B1B7E2
:104B500093871A0093F6E77F639F0616B367CA012F
:104B6000639E0A3AB366D7016380074085C2F29E0E
:104B700033BECE015297330AC70193178A00768E4F
:104B800063C00742B3E74E01E38A07DC135E3E00D1
:104B90001316DA013366C60113573A00814761B72D
:104BA0001306F07F638CC526130680036347F61651
:104BB00037068000336ACA007D46634EF628130626
:104BC00000021D8E3314CA003316CE00335EFE0081
:104BD0003336C0003364C401B357FA00518C1D8FC3
:104BE00033848E40B3BE8E00330AD741AE8AB6847A
:104BF000E5BD3304DE4133368E00B307EA40918FC2
:104C000013968700634A06123366F4003E8AE31463
:104C100006EE0148814701472DB1370A80FF7D1A12
:104C200013777400B38AFA4033FA4601E31D07DEB6
:104C3000D68701B5938607FE13060002B356D70048
:104C4000638AC70013060004B307F640B317F700E2
:104C5000B3EEFE003334D001558C49B5338457414F
:104C600093071400635DF72E05141307000233D475
:104C70008600638BE70013070004B307F740B39780
:104C8000F600B337F0005D8CE30A04CC9377740030
:104C9000814AE39F07C2014A0D80FDB313178A00C2
:104CA000B7078000635D071C3E8A0144DDBE9306A2
:104CB000F07F638AD5189306800363D5F620931797
:104CC0008700370A8000AE8A0144E3CC07BC138416
:104CD0001E003A8A0DBE9306F07FE38FD7D4F29E72
:104CE00033BECE015297729793DE1E001314F70164
:104CF00093F67E003364D401135A170099C6937655
:104D0000F4001146BE8AE390C6B00D801316DA0196
:104D1000418E118309BDB68769BB1384FEFFB3BE04
:104D20008E00330AD74113178A00B7078000634B00
:104D3000071CB684AE8AC1BC338ECE41B3BECE0151
:104D4000330747417284330AD741B6846DB3139653
:104D5000380013543600B6843A8A3DB3E9EB630950
:104D60000622139638009317D7010D82B6845D8E04
:104D70000D8325B3F29E33BECE01529772979317DF
:104D8000870063D40718B70780FFFD1793D61E006E
:104D90007D8F9317F70193F57600D58F1356170083
:104DA0006382051E93F6F7009145638DB61C33842C
:104DB000B700B337F400338AC7000D808947E9B1E3
:104DC000B30EDE41333EDE013307EA40330AC7410A
:104DD00093178A00768463CD070093DE3E00131696
:104DE000DA013366D60113573A0085472DBBB684E6
:104DF000854AFDB9938607FE13060002B356D70015
:104E0000638AC70013060004B307F640B317F70020
:104E1000B3EEFE00B337D001D58FCDBE93973800E7
:104E20001316D7018D83B6845D8E0D83BDB1E31853
:104E300006C613143500935734001316DA015D8E3D
:104E400013573A0099B9939738001316D7018D83F9
:104E50005D8E0D8399B1138607FE1305000233564C
:104E6000CA00638AA70013050004B307F540B3170F
:104E7000FA00336EFE003334C001518C95B3130435
:104E80001E0051B2338ECE41B3BECE01330747412F
:104E9000330AD74193178A007284E3CA07F4135E7A
:104EA0003E001316DA01B6843366CE0013573A007B
:104EB000854795B9E30F06D43A8A768EB684F9B160
:104EC000B68705B6B7068000336ADA00FD4663C4CC
:104ED000F606130600021D8EB316CA003316CE0066
:104EE000335EFE003336C000B3E6C601B357FA00A6
:104EF000D18E3E97B69EB3B6DE00338AE600768446
:104F0000AE8A11BEAE8AB684F5BA1316D70193DE07
:104F10003E003366D6010D83854731B18DD7B36E20
:104F2000D701E39E0EB631B70E06135436003A8A07
:104F3000A1BEB28751B1138607FE93060002335615
:104F4000CA00638AD70093060004B387F640B317FC
:104F5000FA00336EFE00B336C001D18E61BF130775
:104F600000021D8F0146F9BAE38A069E76843A8ACA
:104F700081470D8011BE33E6F500E30C06C83E8A7A
:104F80002E8E29B18D8376065D8E1183894761BE91
:104F900001489307F07F3707080065B0B6873DB733
:104FA000370780FF7D173377EA001316D70193DEAA
:104FB0003E000D833366D60133776700854751B0D5
:104FC000BE8AB6846FF02FFF1316D701135E3E0022
:104FD0003366CE000D838147B9B60D80D6876DB498
:104FE000797193D7450122D426D252CC56CA66C2D3
:104FF0009394C50006D64AD04ECE5AC85EC662C447
:105000006AC093F7F77F2A84B28C368AB18093DA2C
:10501000F501638907121307F07F638AE7068E04A0
:10502000935BD501B3EB9B0037078000138B17C050
:10503000131C3500B3EBEB008144014D93574A013B
:105040001314CA0093F7F77F3180135AFA01B5C3DE
:105050001307F07F638EE70C0E0413D7DC019387F0
:1050600017C0418F37048000330BFB40598C939756
:105070003C0081463D47B3C54A01636D97183777B9
:1050800000201307C7C48A04BA9498400287B3EB80
:10509000A400639C0B143E8B93574A011314CA005F
:1050A00093F7F77F014CA144094D3180135AFA015F
:1050B000C5F3B3679401638507146306043622853C
:1050C000EF1040662A87930755FFF5469D8E93079C
:1050D00087FF3314F400B3D6DC00558CB397FC0083
:1050E0005A97130B373F814671B79307F07F81467C
:1050F0000147B2502254D207FE05D58FCD8F92546E
:105100000259F249624AD24A424BB24B224C924C6B
:10511000024D3A85BE8545618280814781460147BF
:10512000C9BF81459307F07FB70608000147D1B793
:10513000B3679401130B1B80E9EB93E42400014453
:1051400089460DBFB3EBA40063870B0A638F042A63
:105150002685EF10205D2A87930755FFF54B130C2A
:1051600087FFB38BFB40B3948401B35B7401B3EB53
:105170009B00331C84019307D0C0338BE7408144EC
:10518000014D6DBDD6855E84E2870947E30FEDF4DE
:105190000D47E308EDF80547E301EDF8930FFB3FFA
:1051A0007E87635AF03B93F677006394063013D5FD
:1051B00037009317740063D80700B70700FFFD1787
:1051C00013070B407D8C9307E07FE3C0E7F2931653
:1051D000D401131694009377F77F33E7A600935614
:1051E000C60001BFD285368D4DB7A68B2A8C3E8B6B
:1051F000B1440D4DA1B5014C9144014B054D3DBD50
:1052000093E4140001448546B5B593E43400E68781
:105210008D468DB56362741F638E8B1CE2867D1B89
:10522000014C131784001353070133D46B0213D6B8
:105230008701598E9318060193D8080113D70601E8
:1052400013988700B3FB6B0233858802C20BB367E8
:10525000770163F8A700B2971307F4FF63F6C7243A
:105260003A84898F33D76702C206C182B3F76702D7
:10527000B38FE802C207DD8E63F8F601B29693079A
:10528000F7FF63FEC6203E874204598C9317040142
:10529000131E0801C183135E0E01935E08011355AE
:1052A00004013387FE02B386F641338FC703B30F81
:1052B000C50393570F017E97BA973305D50363F45F
:1052C000F70141673A95931F0F0113D70701139F09
:1052D000070193DF0F01B307A7007E9F63E2F60E7D
:1052E000638EF60C330FEC41333CEC019D8E930F33
:1052F000FB3FB38686417E876304D616B3D766022A
:1053000013550F01B3F66602B382F802C206C98EC6
:1053100063FB5600B2961385F7FF63E2C61A63F08B
:10532000561AF917B296B386564033D56602420F25
:10533000135F0F01B3F66602B388A802C206336F8B
:10534000DF00637B1F01329F9306F5FF636BCF166F
:1053500063791F177915329FC207C98F939607018A
:10536000C18293D207013385DE02330F1F4133839D
:10537000C203330EDE021A9593560E01AA96B38E1F
:105380005E0263F466004165AA9E13D50601420ED3
:10539000135E0E01C2067695F2966367AF0A630349
:1053A000AF0A930620C093E717006348DB1213850A
:1053B0004700B337F5000D813E94E5BBE374ECF391
:1053C00033070C0133358701B30FC500FE963A8CC5
:1053D000930FF4FF6371D60C63E6F600639FD70A60
:1053E000637DE70B42973335070132957914AA960E
:1053F0003A8CCDBDE364FCE29396FB0113571C008D
:1054000093DB1B00D98E7E0C29BDEF10A0319307D2
:105410005501F14613070502E3D2F6D46115B31B1B
:10542000A400014C89BB6685EF10C02F930755017E
:10543000F14613070502E3DAF6C861153394AC00B0
:10544000814779B9E38E06D4329FFA881383F7FF38
:10545000636BCF06636AAF126303AF149A8791B789
:1054600001458547E34AF0F563960F08370700804A
:105470009317F4017D17D98F058013874700B33741
:10548000F7003E94BA8713178400635907128547C3
:1054900081460147B9B9630ED6027E84A1B5E3F413
:1054A000F6DF7917B296CDB3E3FCA7DA7914B29799
:1054B0004DBB93F6F7001146E38BC6CECDBDAA8750
:1054C0009DB5368551BD9A87E39DA8ECE39B06ED1B
:1054D000C1B961F5E3E8F6F011B7130710C0631C1A
:1054E000EB0013D71700136717009317F401D98F38
:1054F000058061B7FD5705473307F74193068003E1
:10550000E3CDE6C0FD4663D2E60A8556B386F64192
:1055100013060002B356D4006307C700130BEB4316
:1055200033146401C18FB337F000D58F13F77700C0
:10553000814611CF13F6F700114501476309A60014
:105540003386A700B337F6001397D701B2878D8350
:105550005D8F814779BEE3900FFA93F6770013D6FB
:1055600017007D4B0547ADE2331B6401558EB367D1
:10557000CB0093F677003354E40091D613F7F7008D
:105580009146E302D7F0D5BD13131800B3380301D9
:10559000B298FA98F9171A88E38AA8F219B5E36560
:1055A000D8FE9A87E39F06DFE5BE130BEB41B39667
:1055B0006701B336D00033D6E7007DB79316940069
:1055C000B1821317D40161B7B3F6E70071BF93D866
:1055D0004501B707100013D746012A88FD171303AA
:1055E000F07F93F8F87F33756700428E33F7B7008A
:1055F000B28EF58FFD81FD82638E6802630F6500B8
:10560000639708043368070121E15D8E35C2631C8E
:105610000806139516007D1582805D8E3DE2639528
:1056200008003367070175D7639BD50013951500F4
:105630007D1582803367070129E7630E1503B305E3
:10564000B04013E515008280E30508FCF1BF65D981
:10565000E397D5FEE34515FFE3CAA8FCE3E1E7FEC7
:10566000E316F7FCE3EDCEFD0145E361DEFD82804C
:10567000E31708FC8280D18F89E7E392D5FC0145CE
:10568000828079558280E38BD5FC55BF93D8450144
:10569000B707100013D746012A88FD171303F07FC0
:1056A00093F8F87F33756700428E33F7B700B28EF8
:1056B000F58FFD81FD8263836804630F6500639B42
:1056C0000804336807013DE95D8E15C6631D0806B1
:1056D000139516007D1582805D8E094519EE639540
:1056E0000800336707016DD76386D504B305B04062
:1056F00013E515008280E31B08FE828033670701F3
:1057000029E3E31515FFD18F0945E5FBE390D5FEAD
:105710000145828061DDE39BD5FCE34915FD63CB48
:10572000A800E3E5E7FC6317F700E3E1CEFD0145E0
:10573000E375DEFD139515007D158280E30A08F8F8
:1057400065B709458280E38ED5FC4DB7797193D753
:10575000450122D426D252CC56CA62C41394C50045
:1057600006D64AD04ECE5AC85EC666C26AC093F705
:10577000F77FAA8A328CB684318013DAF50163820E
:1057800007341307F07F6384E7220E041357D50113
:10579000418F37048000138B17C0931B3500598C41
:1057A000814C014D93D744011397C40093F7F77FC1
:1057B000935AC700FD80638F07201307F07F638E25
:1057C000E72C938717C029473E9B634C9725139777
:1057D0003A009357DC01D98FB3469A00370780000F
:1057E0000946B3EAE70013183C00B68581476351C8
:1057F0009603054633169601137706536314072262
:1058000093750624639B053C13768608631A063A53
:1058100093970B0113160801C183418293DB0B019F
:10582000135808013387C7023385CB02135307018E
:10583000B305F802AA952E93B38E0B036374A300ED
:10584000C165AE9E139E0A014207135E0E0193DAF4
:105850000A01418393150301B388CB03BA9513530F
:1058600003013387C703B387FA0213550701C697AD
:105870003E95B38B5B0363741501C167BE9B9317A1
:10588000040193180701C183418093D808011317BD
:105890000501B30FF802469741813A935E95B3082C
:1058A000C402338FC702C69F13560F017E9633087A
:1058B000880263741601C1684698420F9318060166
:1058C000135F0F014182469F4296B308C403338899
:1058D000C703B387FA02135E0801C6973E9EB38AD8
:1058E0008A0263741E01C167BE9A9318080193D897
:1058F000080193170E013308D301C6973E9533373D
:10590000E800B308E8012A973A9633B808013298BC
:10591000B337F5003335A700C98F3337E600135E80
:105920000E013336C800F297518F939B98003E9733
:10593000B3EBBB0056972607B33B700193D87801B1
:1059400013547801B3EB1B01260893177700598C89
:10595000B3EB0B0163C907109307FB3F635BF020B8
:1059600013F77B0015C713F7FB0011466302C7024C
:1059700013874B00B33B77015E94BA8B1317740007
:1059800063580700370700FF7D1793070B40798C9A
:105990001307E07F6349F7241317D40193DB3B001F
:1059A000260493F7F77F33677701318049A8B36BFB
:1059B000A40063940B1A3E8B93D744011397C40041
:1059C00093F7F77F0144A14C094D935AC700FD801E
:1059D000E39507DE33E88A016308081263880A2228
:1059E0005685EF003054AA87130755FFF546998E68
:1059F000138887FF33970A01B356DC00B3EAE60049
:105A000033180C01B307FB402947138BD7C0634AF7
:105A100097018947B3469A00E3DC97DFB685814753
:105A2000C9BBD28589476304FD1A8D47630CFD12FB
:105A30008547AE866314FD04814701440147D207C0
:105A4000B250C18F2254FE06D58F92540259F249AA
:105A5000624AD24A424BB24B224C924C024D3A859A
:105A6000BE854561828093D71B0093FB1B00B3E783
:105A70007701931BF401B3EB7701058093070B408B
:105A8000050B6358F00E13F77B00E30907EE13F7DD
:105A9000FB001146E31EC7ECD5B533E88A01130BB2
:105AA000FB7F631B080893E72C002947E34BF7F6BD
:105AB000B3459A00AE86638E0C1CBE8C814A894722
:105AC0000DBBB36BA400638C0B026303041222852D
:105AD000EF0050452A87930655FFF547930B87FF44
