:020000041000EA
:10000000002008205B0100101B0100101D010010E2
:100010001101001011010010110100101101001058
:100020001901001019010010190100101F01001022
:10003000110100101901001021010010230100100E
:100040001101001011010010110100101101001028
:100050001101001011010010110100101101001018
:100060001101001011010010110100101101001008
:1000700011010010110100101101001011010010F8
:1000800011010010110100101101001011010010E8
:1000900011010010110100101101001011010010D8
:1000A00011010010110100101101001011010010C8
:1000B00011010010110100101101001011010010B8
:1000C00011010010110100101101001011010010A8
:1000D0001101001011010010110100101101001098
:1000E0001101001011010010110100101101001088
:1000F0001101001011010010110100101101001078
:100100001101001011010010110100101101001067
:10011000EFF30580103800BE00BE00BE00BE00BE7A
:1001200000BE00BEF2EB88711033001038330010AF
:100130009C01001090A31AE7D3DEFFFF42012110BB
:10014000FF01000058380000793512AB00201E492D
:10015000086006C881F3088810474FF050400068D7
:1001600008B10020F3E70DA40ECC002902D000F066
:1001700012F8F9E71549164A002000E001C1914242
:10018000FCD114498847144988471449884700BE60
:10019000FDE701C901C29A42FBD370473833001012
:1001A000100100206807002090390010000008208E
:1001B00000000820903900100010082000100820CE
:1001C000000000007047000008ED00E06807002014
:1001D000780B0020392B0010E1010010312B0010AA
:1001E0002DE9F04F002789B002F0B2FD6B4A6C4B4D
:1001F000DFF8D0A102F17F04CDE90477694ACDE9A7
:1002000002771B6802F1FC090AF17C0B02213E46D1
:100210000697884601F1FF3EC1F1020C4246704646
:1002200090FBF2F7154602FB17022846002AF7D189
:10023000069D0CEB080700FB075008F10108B8F118
:10024000210F0690EAD101312129E2D13746564EDD
:100250003046711CC1F1010C83EA43330CEB000101
:1002600083EA534383EA431301F0070123FA01F1C0
:1002700000F8011F8442EFD103996FEA010C0821B5
:1002800016F8010F8CEA000C4CF3000020F092509D
:1002900020F4EF2020F49B6020F00700013980EA71
:1002A0005C0CF1D1B442EAD16FEA0C0003903F48F4
:1002B00007F1010883EA433383EA534383EA431394
:1002C00088EA030640F8046F8145F3D135480546B6
:1002D000C0F8FC60364805F1FF3C05F1FF0E1CF844
:1002E000016F344D7040E64505FB00F0F7D1049EE8
:1002F000DFF8D4C0464060460496073783EA4333AC
:1003000083EA534383EA431387EA030640F8046F02
:100310008345F3D122484546036057460120904665
:10032000079357F8046F0346BE465EF8042C9642C6
:1003300006D24EF80429D64503F1FF33F5D1002348
:10034000013020284AF82360EBD14246A846079B9B
:100350005CF8040F10440132202A80EA7171F7D151
:10036000029A069802440292059A0A440592124A99
:10037000124902FB08F2B1EB720F01D2474645E782
:10038000059B41460193049B0D480093DDE9022340
:1003900002F06CFD024B47461B6837E73C09002022
:1003A000D8060020C40900203B090020C009002015
:1003B000C59D1C819301000121436587B3A2910073
:1003C00038310010EC0A0020E80A002010B44FF485
:1003D00080740C4B53F8202003EB8003C00082F0A4
:1003E000400200F1804003F5805C02F0C00200F59D
:1003F000203003F54053CCF8002041601C605DF8CC
:10040000044B7047048003400FB400B583B0049CD4
:10041000074802F0B3FC3CB105A92046019102F067
:100420006BFB044802F0AAFC012002F07DFB00BF38
:10043000783100100032001070B58646EFF3108559
:1004400072B6124CD4E8CF6F0120002EFAD1C4E866
:10045000460F002EF6D1BFF35F8F4FF0010CC80896
:1004600001F007030CFA03F31EF800C01CEA0306B0
:1004700008D14CEA030C0EF800C0C4E88F6F85F376
:10048000108870BD1046FFF7BFFF00BFF3080020C3
:10049000044A1078431CDBB2182B28BF10231370BA
:1004A000704700BFDC0600204FF0E022936843F065
:1004B00000539360704700BF0021044B03F12002FA
:1004C000C3E88F1F01339342FAD17047E808002038
:1004D0004FF08030044B05491A4604338B421060BC
:1004E000FAD162B6704700BF00E400E034E400E0F7
:1004F000012300F01F029340400941B1800000F148
:10050000604000F56140C0F8803103607047024AE6
:10051000203042F82030704700E100E010B5EFF3E2
:10052000108C72B6114BD3E8CF4F0122002CFAD1B8
:10053000C3E8442F002CF6D1BFF35F8F0C4A103074
:1005400092680C4C52F82020A24201D091420BD16B
:10055000074A926842F82010BFF35F8F0022C3E879
:100560008F2F8CF3108810BD00F070FEF108002072
:1005700000ED00E0110100102DE9F84FEFF31087B6
:1005800072B6724DD5E8CF2F0123002AFAD1C5E803
:10059000423F002AF6D1BFF35F8F6D4B00F1100C84
:1005A0009B68DFF8C4B153F82C405C453FD08C42C7
:1005B0004AD0684EA31B2F2B39D801224FEA501E78
:1005C0004FEA8E0E0EF1604E0EF5614E00F01F03E5
:1005D00002FA03F0DEF80030CEF8800000EA0308EB
:1005E000BFF35F8FEFF30583DBB2994673B39C458E
:1005F00040F0AA8024F00102D2F808A0514509D1A8
:100600008EE003EB430306EB8303D3F808A05145C8
:100610002CD01A4692F90630002BF2DA514564D0FC
:10062000B8F1000F1FD0CEF88001CEF80000484B83
:100630009B6843F82C40BFF35F8F0023C5E88F3FD2
:1006400087F31088BDE8F88F5C46F0E724F00102DC
:10065000D2F808A05145DDD192F9061013460029C1
:1006600008DA5C464AE0CEF88000E0E793F906102D
:1006700000293BDB01EB410A06EB8A0A9AF8079056
:10068000DAF8082083F807909A609AF906204FEA72
:100690004109002A9A7141DBBAF804B05FEA4B5B6A
:1006A00005D50BF5FF1B0BF5FF5B0BF11F0B6FF077
:1006B000070A09EB01024FEA6B5B920002EB4B0267
:1006C00008323244AAEB030A5244C2F34A026FEAE8
:1006D000C2426FEAD2429A801F4B89441A7806EBD5
:1006E0008909197089F806209AE71346B9F1000FB5
:1006F0001BD1FF2191714BF601519180DFF8589089
:100700004AF6AA2299F800A01946891B49414A4392
:10071000120D83F806A089F8002081E70F4ADAE776
:1007200092F9061013460029A4DA0D4A0D4ED21A8A
:10073000083AC2F30A316FEA01516FEA115146EAF1
:100740005202DA8099806BE700F080FDF10800200A
:1007500000ED00E0E0060020740B002001BDFFFF6B
:100760001A07002000F8FFFF110100102DE9F041E9
:10077000EFF30586F6B2EFF3108E72B6204DD5E892
:10078000CF2F0123002AFAD1C5E8423F002AF6D133
:10079000BFF35F8F1B4F40F0010CBA684AF6AA23E3
:1007A00052F82680184C0246121B524153431B0D2F
:1007B000E04559B214D02246002392F906C00C320B
:1007C0008C4512D00133042BF7D1104B00221C783A
:1007D00019708471C5E88F2F8EF31088BDE8F08101
:1007E000BB680B4A43F82620EFE703EB430304EB17
:1007F0008304FF23A3714BF60153A380E5E700BFF9
:10080000F108002000ED00E0E0060020740B00205D
:1008100011010010014B0B4403607047E8080020F1
:1008200070B5114C114DAC421CD2FF260BE0FFF706
:100830002FFE01462046FFF7EDFFA680BFF35F8F36
:100840000834AC420ED22368002BF0D1FFF720FE13
:1008500001462046FFF7DEFF2671BFF35F8F0834A5
:10086000AC42F0D370BD00BF6007002068070020D5
:1008700010490B68EFF3108072B6D3E8CFCF012296
:10088000BCF1000FF9D1C3E84C2FBCF1000FF4D13B
:10089000BFF35F8F084A4FF0000C137809680133EB
:1008A000DBB21370C1E88FCF80F3108840BF002007
:1008B00000217047E80A0020750B002000000000AE
:1008C0002DE9F04F2DED028B85B0EFF30583DBB200
:1008D000103B9A0818BF01224FF0010103F00300FA
:1008E00018BFAD4DAD4B08BFAD4D00EB820201FA14
:1008F00000FB53F8226005F541539FEDA58B019055
:10090000C3F804B0CDF800B02FE0B3881C0440F168
:100910009180B379002B40F0DA80B6F90820002AE4
:10092000C0F21A81736902EB420203EBC203D3E9FE
:100930000247B7F1FF3F08BFB4F1FF3F0ED0019867
:10094000AB6A05EB80010A69D21AE31A934204D319
:1009500001232A6A8340134200D10C61284600F02B
:100960009DFAA042B941C0F2F780B6F90840009B59
:10097000002CEB63C9DBD6F8149004EB440A28463C
:1009800009EBCA07D7E902B800F088FA584571EBBD
:100990000801BADBB8F1000FC0F2C180D7E9043119
:1009A000804A934200F0EA807A88B6F9080092B251
:1009B00042EA0040984702460B4652EA030100F023
:1009C000AE80002B80F2CE80BBEB020B68EB0308FD
:1009D00039F93A30C7E902B8002B96DB716903EBAD
:1009E000430201EBC202D2E90270BB4578EB000C76
:1009F0004FEA430289DBB4462CF8083F06E003EBDC
:100A0000430001EBC0005A00D0E90270BB451A4414
:100A100078EB000001EBC20E04DB31F93230F44612
:100A2000002BECDA29F83A30ACF80040B3881C040B
:100A30003FF56FAF3369EFF3108272B6D3E8CF0F93
:100A400001210028FAD1C3E8401F0028F6D1BFF3E6
:100A50005F8F4FF6FF74B0880023316900B2B48015
:100A6000C1E88F3F82F310889842FFF652AF0746E5
:100A7000A946746906F1080807EB470E04EBCE039C
:100A8000D3E90250B6F90830C446002BA8BFB346DC
:100A900005DA0FE034F93A309446002B09DB03EB1A
:100AA000430A04EBCA02D2E90261B54270EB0101CC
:100AB000F0DA5E46ACF8007034F93E7024F83E304F
:100AC000002FD9DAB3794D46002B3FF426AF00232F
:100AD000B371B6F9083006F10808581C3CD01A4624
:100AE000776903E08046591C3FF419AF03EB4301DB
:100AF00007EBC100B0F802C01C461CF4004F9E4634
:100B000037F93130EED0944280ED028B05D0A8F851
:100B10000030328927F8312034817246E3E739F812
:100B20003A3033813369EFF3108272B6D3E8CF0FD6
:100B300001210028FAD1C3E8401F0028F6D1BFF3F5
:100B40005F8F7388316929F83A3000237480C1E8D7
:100B50008F3F82F31088D8E640BF05B0BDEC028B12
:100B6000BDE8F08F2846CDE9022300F097F9029AFC
:100B7000039B10EB020B43EB010829E708460B69C6
:100B8000029198470028CAD00299D1E9002314E7BE
:100B9000FFFFFFFFFFFFFFFF00800B40C80A0020A0
:100BA00000000B40C108001070B51F4D2C692CB11E
:100BB000BDE870400A211D48FFF72CBE1C4E0321E2
:100BC000304600F059F9EE60FFF762FC0321194B43
:100BD0004FF0504618444FF6FF7223460F242970F9
:100BE00015492861A96030686969AA806C806870BD
:100BF00021F813200C330132C02B92B2F8D1082413
:100C00000B4B0E4A0320D5600D491C62FFF786FC92
:100C100001210320FFF76CFC0A4B0A211C640348E6
:100C2000BDE87040FFF7F6BD30070020E80A00205D
:100C300000000B40E8080020FFFF1000C80A002059
:100C4000C108001000200B400146F0B50069EFF329
:100C5000108772B6D0E8CF5F0124002DFAD1C0E82A
:100C6000454F002DF6D1BFF35F8FB1F902E04C691B
:100C70000EEB4E0CBEF1000F4FEACC05086904EBF9
:100C8000CC0C3CDB665B4E800026C0E88F6F87F3A0
:100C90001088BCF80200CCE902230130C0F30E003A
:100CA000012838BF0120059BACF80200CCF81030B9
:100CB000069B40EA0E40CCF814300B69EFF310822B
:100CC00072B6D3E8CFCF0127BCF1000FF9D1C3E84A
:100CD0004C7FBCF1000FF4D1BFF35F8F8B8863535F
:100CE000A1F804E00B69C3E88F6F82F3108801223A
:100CF000CB68097803F501538A405A60F0BD0023A0
:100D0000C0E88F3F87F310884FF0FF30F0BD00BF81
:100D100003464089B0EB214F37DD58690A1402EBD6
:100D2000420210B500EBC2001C69EFF3108C72B6E2
:100D3000D4E8CFEF0122BEF1000FF9D1C4E84E2F65
:100D4000BEF1000FF4D1BFF35F8F428889B292B237
:100D50008A4207D000221B69C3E88F2F8CF31088CA
:100D6000002010BD42F40042428001210022186997
:100D70009971C0E88F2F8CF310881C78DA680846C8
:100D800002F50153A140596010BD0020704700BF1B
:100D90002DE9F04705460C4682B0EFF30587FFB218
:100DA000002F38D1304ED6E900238B4208BF824253
:100DB00039D0DFF8C080D8F80CA098F800905046E1
:100DC00000F06CF809F104095AF829301B1A281AA6
:100DD00064EB0101984271F1000124DA00F066F839
:100DE000854264EB010100292DDB204B4046009336
:100DF0002A4623460197FFF727FF011E23DD1C4BE0
:100E0000C6E900545A6AA2422CD39B6AAB4227D34C
:100E10001848FFF77DFF164B5A6AA24208D20020FD
:100E200002B0BDE8F08720BF114B5A6AA242F6D348
:100E300014BF012000209B6AAB4228BF40F0010094
:100E400002B0BDE8F0870A4B586AA042E7D3001B06
:100E500018BF01209B6AAB4228BF40F00100EFE7BA
:100E6000A242D5D120BFD3E7280700207108001087
:100E700000000B403007002010B4054B054C064A1B
:100E8000A04214BF1846581C5DF8044BFFF7D4BAB3
:100E90001009002000800B40883100100346416A91
:100EA0000A46986A596A8A42FAD17047034B596ACE
:100EB0000A46986A596A9142FAD1704700000B407D
:100EC00010B4174A536A9C46946A536A6345FAD130
:100ED000001959414FF0000228BF01220346CAB150
:100EE0000F4B596A4B1C08BF0B4608D04FF0FF311F
:100EF0000B460B48426A8A42FCD38A4207D1084A11
:100F000002E0506A884202D1906A9842F9D35DF8B3
:100F1000044B7047024A526A9142EAD8EDE700BF9B
:100F200000000B40F8B5044606200D4600F0F8F826
:100F3000C300B3FBF5F30133DA0908D04FF6FE71B5
:100F40008A421AD900224FF6FF711B4D01E040255D
:100F500001216162A262266BF30715D423460022A9
:100F600053F82C1F062003F580531A60266300F007
:100F7000D7F88000B0FBF5F0F8BDC3F34503114688
:100F800003EB82151A46E4E740F2013204F54053C0
:100F90001A63636AA76A062007EB831700F0C0F89C
:100FA000064BBF02A3FB0030C00A0021B7FBF0F0E4
:100FB000FFF786FFD2E700BFC0FF3F00757B2B8F96
:100FC00038B5044606200D4600F0AAF860B3174A6B
:100FD0001748944214BF4FF080624FF00062154BE7
:100FE000154902601A608B6832EA0303FBD10F4B8C
:100FF0004FF48070E31AB3FA83F3104A5B0922F8C6
:10100000130029462046FFF78DFF234640F20135A5
:10101000032153F82C2F82F0700202F07E0203F5B8
:1010200080531A602563A16438BD00BF008007406B
:101030000020024000300240000002406C0B002003
:1010400000EB400C4FEA8C0C0CF1804C2DE9F04188
:101050000CF5803C069D9046DCF80420041FAA4253
:10106000E4B238BFCCF80450012C2AD94FF4006EFA
:10107000254E0CF54052C2F800E056F82020AAB9DF
:10108000DCF800200CF5805782EA481202F0E002FA
:10109000012C3A6029D94FF4006246F820300CF553
:1010A00000531A60CCF80450BDE8F0817769B7FBB3
:1010B000F2FE0EF1010E0EEB4E0EBEF1030EFCD24F
:1010C000DEE70129D2D103240CF540521460DCF88C
:1010D0000820D207FBD5DCF800200CF5805782EA07
:1010E000481202F0E002084E3A600122DCF80040AB
:1010F0004C4004F003043C6002FA01F1DCF80820E3
:101100000A42FBD0C7E700BF1409002010B54FF416
:10111000803482B00094FFF793FF02B010BD00BF8F
:10112000014B53F8200070471409002070B4039D50
:1011300004682D0345EA03451B4B002CB3FBF1F378
:10114000B2FBF3F61FDB194A194B904214BF4FF460
:1011500080424FF40042174C1A6003F580531A6026
:10116000A36832EA0303FBD1212200F54053043384
:10117000016086601A600268002AFCDA0822C560F5
:101180001A6070BC7047036803F03F038B42DAD1EA
:101190008368C3F30B03B342D5D1C36803F4EE23D2
:1011A000AB42D0D1EDE700BF001BB7000080054087
:1011B0000020024000000240012300EB40008000BC
:1011C00000F1804000F5841041600360704700BF6B
:1011D0000023DB8A002242E800F2520201D41021EF
:1011E00018470421184700BF034AD2F82838002BBB
:1011F000FBD0BFF35F8F704700000E400021044B0F
:10120000044ABFF35F8F43F8041B9342F9D1704740
:101210000C080E402C080E4010B44FF48D704FF4A3
:101220002A64064A064B07491460D0601960536867
:10123000002BFCDA5DF8044B704700BF00800440CF
:1012400000A0044000B0FA00704700BF08B5014894
:10125000FFF7DAF8AC31001038B5054C054DAC425B
:1012600004D254F8043B9847AC42FAD338BD00BFCF
:10127000F83000103831001010B40748074C084B04
:10128000084A094904601A608B6832EA0303FBD1FB
:101290005DF8044B704700BF002002407F3BEFEF3A
:1012A00000300240F6FFF30300000240044BDB6C09
:1012B000B3F5004F03D14FF48022024BDA6470473C
:1012C00000001150002011504FF0E022044BD2F8E2
:1012D000881D0B43C2F8883D10EE3004704700BFF4
:1012E000030330006FF06041044B054A19609368B6
:1012F000DB4333F06043FAD1704700BF0030024057
:101300000000024010B545F25320FFF761FFBDE831
:10131000104003460420184710B545F25320FFF74C
:1013200057FFBDE81040034601201847FFF7C4B837
:1013300038B50F490F4C104D641AA408442C2246AE
:1013400028BF44222846920001F0D2FE432C0BD83D
:1013500004F18043013B094905EB830305F58672DF
:1013600043F8041F9342FBD1054B9D6038BD00BF7D
:1013700000000010100100100000002011010010FA
:1013800000ED00E0002370B52B4C82B0C4F884302F
:10139000FFF742FF0122294BDA63636C012BFCD17A
:1013A0000321264A244B11639C6B012CFCD102269D
:1013B000052521460523224A22480096FFF7B6FE5E
:1013C00021462B46204A21480095FFF7AFFE002218
:1013D000042031461E4BFFF799FE21462846002285
:1013E0001C4BFFF793FE0022082011461A4BFFF713
:1013F0008DFE002209201146174BFFF787FE0022C1
:1014000006201146134BFFF781FE0022114B0720E7
:101410001146FFF77BFE0420FFF782FE00240F4BEE
:10142000A3FB0035AD0CE0B229460134FFF7C4FE42
:10143000062CF8D102B070BD000001400030014020
:10144000002F685900000540008C86470080054049
:10145000001BB70080D1F008006CDC0283DE1B4368
:1014600086B003B451FC0804CDE9020151FC090423
:10147000CDE9040151EC0A04CDE9060103BCF047B3
:10148000BDE800504EEC00C4BDE800504EEC01C475
:10149000BDE800504EEC02C400BD000000B5FFF7EF
:1014A000DFFF02E010FE30F4F8D441EC100443EC0E
:1014B000112400EE010410EE010480EE200451EC32
:1014C0001004704700B5FFF7CBFF02E010FE30F4C8
:1014D000F8D441EC100443EC112400EE010410EEAA
:1014E000210480EE200451EC3004704700B5FFF772
:1014F000B7FF02E010FE30F4F8D410B541EC100450
:1015000043EC112451EC040453EC0524A0FB024CE1
:101510005FF0000EE0FB03CEE1FB02CE4CEC20447A
:101520000024E1FB03E444EC30E480EE200451ECC1
:10153000500410BD00B5FFF793FF02E010FE30F439
:10154000F8D441EC100443EC112451EC2104A0FB2D
:1015500001126FEA820252FB100052FB12F252FBA0
:101560001000A0EBD07C53EC04245CFB13F153EC93
:101570001524A1FB022001FB030053EC4424A2EB41
:10158000000050FB1CF24FEA111312EB017043EB09
:10159000E27140EA515020EA915020F0070053ECEC
:1015A0007524A0FB023C53EC752400FB03CC01FB2B
:1015B00002CC53EC0424ACEB824C40EA5C70A0F10A
:1015C000010041EC400480EE200451EC70047047AF
:1015D00000B5FFF745FF02E010FE30F4F8D440EC10
:1015E000700400EE010410EE210480EE200451ECA2
:1015F0003004704700B5FFF733FF02E010FE30F40F
:10160000F8D440EC600400EE010410EE210480EEFA
:10161000200451EC3004704700B5FFF721FF02E0D1
:1016200010FE30F4F8D441EC800400EE010410EE1A
:10163000010480EE400410EE1304704700B5FFF77C
:101640000FFF02E010FE30F4F8D441EC800400EE0D
:10165000010410EE010480EE400410EE33047047E4
:1016600000B5FFF7FDFE02E010FE30F4F8D441ECC7
:10167000100443EC112400EE010410EE3004C0F31A
:101680000070704700B5FFF7EBFE02E010FE30F48B
:10169000F8D443EC102441EC110400EE010410EEE8
:1016A00030F48CBF01200020704700BF00B5FFF769
:1016B000D7FE02E010FE30F4F8D443EC102441ECE5
:1016C000110400EE010410EE30F42CBF01200020C4
:1016D000704700BF00B5FFF7C3FE02E010FE30F414
:1016E000F8D441EC100443EC112400EE010410EE98
:1016F00030F42CBF01200020704700BF00B5FFF779
:10170000AFFE02E010FE30F4F8D441EC100443ECDC
:10171000112400EE010410EE30F48CBF01200020F3
:10172000704700BF704700BF2DE9F04F83B0994666
:10173000DDE90DAB0F9B884611469A07074616D187
:10174000DA453AD20C460D46ABEB0A060E44224669
:101750004B46414620200134B847B442F7D12946D0
:10176000BAF1000F08D1204603B0BDE8F08F0C4657
:10177000BAF1000F10D00E4655460C9B2E449A44E9
:101780000191721B4B46013D41461AF8010D34464A
:10179000B847002DF5D101990F9B9B07E3D5651A3A
:1017A000AB45E0D922464B46414620200135B8479B
:1017B0005D4504F10104F5D3D5E70C46BAF1000FFD
:1017C000D9D1D0E72DE9F04F0F9FDDF8248017F035
:1017D000020F0A9C9DF82CA00E9DDDE90C9644D1C9
:1017E000F5BBB44241D207F0010B04F1FF3C4FF0CE
:1017F000300EC44404E00134A6420CF801EF01D9D4
:10180000202CF8D1BBF1000F00F08880A5422CD924
:1018100004F1FF3C4FF0300EC44404E00134AC420C
:101820000CF801EF21D0202CF8D117F0100F0ED0BA
:1018300017F4806F54D1A64263D0A54261D0B9F1AC
:10184000100F50D0B9F1020F56D0202C29D12024EE
:10185000CDE90B57CDE90984BDE8F04FFFF764BF30
:1018600017F0010B34D1B442BFD317F0100F1ED0C4
:1018700017F4806FE3D1002CDDD1B9F1100F63D0E4
:10188000B9F1020F77D0302488F800400124BAF172
:10189000000F11D17E0748D52B2608F804600134CB
:1018A000D6E7264601344FF0300C08F806C0202C4D
:1018B000CDD0BAF1000FEDD02D2608F80460013428
:1018C000CDE90B57CDE90984BDE8F04FFFF72CBFF8
:1018D000BAF1000F30D0B44205F1FF3585D395E75A
:1018E000B9F1100FB3D1BE063BD5202CAFD058268E
:1018F00008F804600134A8E7202CA8D0264601345B
:1019000007E0661EB9D0B9F1100F36D0B9F1020F59
:10191000C9D14FF0620C08F806C096E717F0100F17
:10192000C5D017F4806F86D089E73E0790D5202672
:1019300008F8046001348BE717F00C0F00D0013D6C
:10194000B442FFF452AF61E7BC0612D4782488F8A1
:101950000040302488F801400224BAF1000F99D0E9
:10196000AAE7202C3FF473AF782608F8046001340E
:101970006BE75824EBE76224E9E717F0200FA4F1A6
:10198000020C04D04FF0580E08F80CE08BE74FF033
:10199000780E08F80CE086E72DE9F04F93B01C9C18
:1019A0009DF874B01E9DDDF884E02CB92EF0100671
:1019B0001EF4806FB64635D11EF0200F14BF4FF0D5
:1019C00041094FF061090AAFB8460026A9F10A099A
:1019D000099002E0202E15D05446B4FBF5FA05FB21
:1019E0001A4C5FFA8CF0BCF1090F00F1300C8ABF81
:1019F00048445FFA8CF0C0B2AC4208F8010B06F123
:101A00000106E7D20998209CCDE9016B05941F9C43
:101A1000CDF818E0CDE903540097FFF7D3FE13B0DB
:101A2000BDE8F08F26460AAFEDE700BF2DE9F04F85
:101A300097B08E46DDE92064DDE9247856EA04019A
:101A40009DF888C006D12899289D21F01001289181
:101A5000690545D428990DF1380B11F0200F14BFFA
:101A60004FF0410A4FF0610AD9460025CDE9090E31
:101A7000CDE90B23AAF10A0ACDF834C003E0202DEA
:101A800017D006460C4621463A464346304601F0FA
:101A90002BFBD2B2092A02F130038ABF5244DAB2D8
:101AA000D2B2BE4274EB080409F8012B05F101051E
:101AB000E5D2DDF834C0DDE9090EDDE90B23289914
:101AC000CDE9015C06912799CDF800B005912699E2
:101AD000CDE903717146FFF775FE17B0BDE8F08FD1
:101AE00000250DF1380BEAE72DE9F04F95B0209C69
:101AF000DDE91EAB0894219C0D461E4609900B9211
:101B00005B46524650465946229F0A94FFF7ACFD69
:101B1000002840F09780504659464FF0FF32664B00
:101B2000FFF7F0FD002840F08D80504659464FF0F9
:101B3000FF326FF48013FFF7A9FD002840F0828088
:101B40005046594600220023FFF7A0FD002840F030
:101B50008881CDE906ABDDE9063407F400629946D9
:101B600017F48063A046129213937BD159EA0403C1
:101B700040F0A480002A40F08E810623089317F0DD
:101B800002020E9240F08A810A9B0421042B38BF86
:101B90000423043B10910C921293504659460022A4
:101BA0000023FFF773FD002840F0C9819DED067BFF
:101BB000129B0B9A0393089B8DED007B029327F4F5
:101BC0000063049329463346099800F021FA02463F
:101BD00017F0200F0CBF6520452033462946099C8D
:101BE000571CA04705230593109B0020013B04933D
:101BF0000A230C99CDE9023081EAE173A3EBE1738A
:101C0000C90FCDE900313A46334629462046FFF751
:101C1000C3FE0E9B07468BB10B9BA0EB03080A9BF0
:101C200043450BD999463A4633462946202008F1C8
:101C30000108A047C14507F10107F4D8384615B09F
:101C4000BDE8F08F0A9B2946DDE908402193334621
:101C5000CDE91EAB0B9A2297209415B0BDE8F04F4A
:101C600000F0D6B959EA04032AD1129B002B86D082
:101C700000230C93089B0C9A934200F3BA814FF017
:101C800000085046594600220023FFF7FFFC0028B9
:101C900040F0ED809DED067B0A9B8DED1E7BCDE92E
:101CA000208327F4006343F480632293294633465C
:101CB0000B9A0998D1E700BFFFFFEF7F0623089337
:101CC000C8F30A50A0F2FF30FFF786FCC0A3D3E9A7
:101CD0000023FFF70FFCC0A3D3E90023FFF7E2FBCB
:101CE000C8F31303CDE90C0143F07F5148460022AD
:101CF000B14B41F44011FFF7E9FBA3A3D3E9002363
:101D0000FFF7F8FB02460B46DDE90C01FFF7CAFBC3
:101D1000FFF786FC0C90FFF75FFC9DA3D3E900233F
:101D200080468946FFF7E6FB0022A44BFFF7BAFB8B
:101D3000FFF776FC034649461C4697A3D3E90023E8
:101D40004046FFF7D7FB804620468946FFF744FC14
:101D500093A3D3E90023FFF7CDFB02460B46404691
:101D60004946FFF7B3FB02460B4680468946FFF71C
:101D7000C1FB42464B46CDE90E0140464946FFF7BE
:101D800091FB0022CDE91001DDE90E018C4BFFF73C
:101D9000D5FB00228B4BFFF785FB02460B46DDE9A6
:101DA0000E01FFF7CBFB0022874BFFF77BFB0246C0
:101DB0000B46DDE90E01FFF7C1FB42464B4680466C
:101DC000894600204FF08041FFF780FB02460B461A
:101DD00040464946FFF766FB02460B46DDE9100127
:101DE000FFF7ACFB0022794BFFF75CFB04F2FF3CF2
:101DF00000224FEA0C53FFF77DFBDDE90623804606
:101E00008946FFF77FFC50B10C9B4046013B494699
:101E10000C9300226B4BFFF791FB804689460C9B8D
:101E2000129A6333C62B07F002030E930CD8002AD4
:101E300067D10A9A042A7FD9002B00F0D4800423AA
:101E4000109302230E936AE0002A2FD10A9A052AE2
:101E500004D9002B00F0D28002230E9305231093A7
:101E600061E00BF10043CDF818A0079373E60A9BDD
:101E70002946CDE9208327F4006343F4806322934D
:101E80003346DDE90667344607F10045CDE91E45D6
:101E90000B9A0998E1E64FF00508F2E604220023C8
:101EA0001092022212930E920C9376E60523109361
:101EB00058EA09033FF4DEAEDDE906013AA3D3E9AF
:101EC0000023FFF70BFC48B1DDE9060138A3D3E995
:101ED0000023FFF7DBFB00287FF4CCAE089B9BB10F
:101EE000139A002A41D0013B109A08930A9B93420F
:101EF00004D90E99002943D002230E930023129394
:101F00000DE004231093D3E70A9B109A934267D9FC
:101F10000E99002934D0089B129302230E930C9B38
:101F2000002B3FF43AAEDDE9060142464B46FFF78F
:101F300005FBCDE9060130E604231093EFE7DDE968
:101F400006ABD046129B0BF100490393089B0B9AFA
:101F5000029327F40063049329463346CDE90089B0
:101F6000099800F055F8024632E60A9B109A93420F
:101F70004AD90E9921B1139B129302230E93CEE7F7
:101F80009B1A1293CBE700BF61436F63A787D23FD1
:101F900071A379094F930A401655B5BBB16B024046
:101FA000EF39FAFE422EE63F2D431CEBE2361A3F94
:101FB0000000000080842E410000F83F0000E03F58
:101FC00000002C4000002440000018400000F03FBA
:101FD000FB799F501344D33FB3C8608B288AC63F18
:101FE000089B12939BE7042310930A9B043B1293D4
:101FF00095E7A3EB020808F1FF3842E605231093AA
:102000000A9B053B12938EE7139B129387E700BF51
:102010002DE9F04F97B0DDE92067CDE90501DDE955
:10202000225807920C9332463B4630463946DDF83B
:102030009090FFF719FB002840F0BD8130463946EB
:102040004FF0FF326FF48013FFF720FB002840F0C1
:102050001081304639464FF0FF32C14BFFF752FB3B
:10206000002840F0E680BAA3D3E900233046394681
:10207000FFF748FB002840F0CE80B7A3D3E9002348
:1020800030463946FFF702FB002840F0C480304656
:10209000394600220023FFF7F9FA002840F0DE80DD
:1020A0000D9019F4806F08BF062530212B460EAA2B
:1020B000A5F1200A05E0013B534502F8011B00F0A1
:1020C0004281092BF7D89A46ED1A39463046FFF778
:1020D000A7FAA44B044603EBCA0393ED007B8DEDF6
:1020E000087BFFF779FA02460B4630463946FFF780
:1020F000EDF9DDE90823FFF7FDF902460B46CDE9CE
:102100000A23FFF79FFA8346FFF778FA02460B4649
:10211000DDE90A01FFF7DAF902460B46CDE90A23A9
:102120000022914BFFF7EEFA002800F0B3800BF18C
:10213000010B5846FFF762FA02460B46DDE908013B
:10214000FFF7B8FA10B14FF0000B0134BAF1000FED
:1021500000F0B280681E0EAB844E18440FE0A6FB60
:102160000B21C90801EB8102ABEB42023032BBF11B
:10217000090F00F8012F40F2CF808B461D46202D1D
:1021800005F101030AF1FF3AE9D12025691E0EABE2
:102190007748194410E080FB0462C3EBA20303EB11
:1021A0008302A4EB420404F1300201351C4601F81D
:1021B000012F002B00F09F80202D4FEAE473EAD11D
:1021C00009F00303012B18D1B8F1000F15D00D9BB6
:1021D000002B00F0D58008F1FF38B8F1200F0CD9A2
:1021E0006B1E0EA930220B4405E00135454503F86E
:1021F000012F80F08480202DF7D10EACCDE902892B
:10220000DDE906120C9B059801950094FFF78CFA06
:1022100017B0BDE8F08F0C9B0598CDE92067DDE98C
:102220000612CDE92389229517B0BDE8F04FFFF7DC
:102230005BBC19F0040F18BF0423DDE906120ABFC6
:1022400003234C4C4C4C219305980C9BCDE92289DF
:10225000209417B0BDE8F04FFFF766BA3B46324610
:1022600000200021FFF732F9012306460F460D93A7
:1022700017E70424DDE906120C9B05983F4DCDF8C5
:102280008C90CDF88880CDE9205417B0BDE8F04F90
:10229000FFF74ABA0022DDE90A01334BFFF7F6F9EE
:1022A00000287FF453AFBBF1000F7FD10BF1010B7E
:1022B000BAF1000F7FF44EAF2046FFF78DF90246CA
:1022C0000B4630463946FFF701F90022264B0646F9
:1022D0000F46FFF7DBF900287FF458AF3046394648
:1022E0000022214BFFF70EFA00287FF44FAF013494
:1022F00024F001044AE709F00303012B6AD0202DE2
:102300003FF47BAF0D9B002B45D02D220DEB050339
:1023100083F83820013570E7202B3FF436AF0EAA42
:1023200015449A44302205E00133202B05F8012F93
:102330003FF42BAF5345F7D12E210DEB030282F86A
:1023400038105D1C22E72025BFE600BFAFF30080F8
:102350000000000065CDCD410000000065CDCDC17D
:10236000FFFFEF7F983200100000E03FCDCCCCCCD7
:1023700067666666FC310010043200100C320010F3
:1023800019F00C0F22D008F1FF384545FFF428AFB3
:10239000202D3FF432AF19F0040F01D02B22B5E706
:1023A00019F0080F3FF429AF2022AFE71BF0010F0F
:1023B0003FF4CCAE7AE70324DDE906120C9B0598C6
:1023C0000B4DCDF88C90CDF888805CE74545FFF447
:1023D00007AF12E7B8F1000F91D00D9B002BCFD0C3
:1023E00008F1FF384545FFF4FBAE202D8DD104E701
:1023F0000832001000B9704700F0B0BC10B1D1E94C
:1024000000311847704700BF2DE9F04F9E4D9F4C9B
:10241000B1F1000B8FB018BF8146256018789C4D34
:10242000904608BFA946DDF860A0002800F034827D
:102430001C46002508E02A46434659460135C84750
:102440002078002800F0C780252804F10104F2D18B
:102450000023224612F8010BA0F1200110290AD80E
:10246000DFE801F03F09093B0909090909090937B2
:10247000093309092F00A0F13001092940F28980B0
:102480002A2800F0DE8000262E2800F0948000210B
:10249000A0F16807122F2CD8DFE817F039012B00C4
:1024A00034012B002B012B002B002B002B002B00C9
:1024B0002B002B0027002B002B002B002B002B00C8
:1024C0002700144643F00103C3E7144643F0020318
:1024D000BFE7144643F00403BBE7144643F0100380
:1024E000B7E7144643F00803B3E7607843F480731A
:1024F0000132672814467CD8242840F2AD80A0F130
:102500002502422A00F2A880DFE812F03C01A60072
:10251000A600A600A600A600A600A600A600A6008B
:10252000A600A600A600A600A600A600A600A6007B
:10253000A600A600A600A600A600A600A600A6006B
:10254000A600A600A600A600A600A6000901250177
:102550000901A600A600A600A600A600A600A600E7
:10256000A600A600A600A600A600A600A600A6003B
:10257000A6008301A600A600A600A600A600A6004D
:10258000A600A600A60083014301830109012501DD
:102590000901002606EB860600EB46061078144675
:1025A000A0F130010929A6F1300602F10102F1D9AA
:1025B0002E287FF46CAF60781746A0F1300109290E
:1025C00043F4806340F203812A2800F01A81144604
:1025D000002101325CE72C46A84501D808F1FF35FF
:1025E00043462A4659460020C84720460FB0BDE85A
:1025F000F08FA0F16902D2B20F2A2DD84FF0010C52
:1026000049F241070CFA02FC1CEA070C40F0EE808C
:102610000A2A27D0072A1FD143F021030593082354
:10262000049310230391CDF804C002935AF8043B9D
:102630002A460093594643464846FFF7ADF90546FA
:10264000FEE65AF8046B6078002E1446BCBF43F0D7
:1026500002037642013217E72A46434659460135BE
:10266000C847EDE6524652F804EB00299EF80000F8
:1026700014BF8A464FF0FF3A0B92002800F0078201
:102680007246F2440BE000BF09240010C40A002087
:102690002517001012F8017F002F00F0F4809245FA
:1026A000F8D1AAEB0E020A9213F4806704D00A9ABA
:1026B0008A4228BF0A460A9213F0020300F01181F1
:1026C0004FF0020C0C96F2462A460E46CDF834C066
:1026D00027B1731E002E00F0C9801E46434659469E
:1026E000C8471AF8010F0135002800F0BF802A46BC
:1026F000EEE760786C287FF4F9AEA07843F440737D
:10270000E21CF6E6607843F400730132F1E660788B
:10271000682800F0BC8043F080030132E9E66728B6
:1027200000F09F80472800F0A980452800F0A8808D
:10273000CDE903630AF1070A02912AF0070A2A4643
:10274000FAE80267434659464846CDE90067FFF775
:10275000CBF9054674E6462808BF43F02003CDE9CF
:1027600003630AF1070A02912AF0070A2A46FAE8E7
:102770000267434659464846CDE90067FFF748FCE3
:1027800005465DE62A464346594625200135C84799
:1027900056E60AF104029B0705F101070A9240F18F
:1027A00082802A46434659469AF80000C847012EBF
:1027B00088BFAD1940F22A813A4643465946202047
:1027C0000137C847BD42F7D1DDF828A038E600211F
:1027D00001EB810100EB410117F8010F3039A0F145
:1027E0003002092AF4D93C467A1C51E66F283BD0C6
:1027F00040F22581782800F0F7800A2223F01003A8
:102800000EE05AF8041BA0780234621C21EAE17140
:102810003EE6582843D0622808BF022240F0988044
:10282000580540F1BC8023F00D0313F4007040F014
:10283000EF8013F4807F0AF1040740F017815806F7
:1028400000F1D78018064CBFBAF80000DAF8000093
:10285000CDE904630023CDE9022100902A460193CB
:1028600095E043F4006363E70822D9E7DDE90C6CE7
:10287000BCF1000F5DD1DDF82CA0E1E543F400636D
:1028800043F0200354E7A2EB0E020A920CE7A07873
:1028900043F0C003E21C2CE6044605469CE61022E9
:1028A00043F02003BCE7012E40F2AA806B1E3344A4
:1028B000CDF82CA02F469A463A464346594620204A
:1028C0000137C847BA45F7D15346DDF82CA01A4660
:1028D0009AF8000043465946C8473544DDF828A019
:1028E000AEE50A9A964240F2E7800A9B06EB050A9B
:1028F000CDE90CE60A970E466746AAEB030A2A467C
:102900004346594620200135C847AA45F7D1DDF88E
:1029100030E031460D9E9EF80000731CBC460A9FB5
:102920000A9300287FF4CEAEA5E713F0020700F06B
:10293000BD802F460A9B9E429DD93544ED1A3A46EA
:102940004346594620200137C847BD42F7D192E798
:102950005F054BD523F01102900523D4D3050AF16E
:10296000040773D450063BD4130640F18980BAF9AA
:10297000003083EAE370A0EBE37080B2DB0F0193D9
:102980000A23CDE904622A4603910090029343464C
:1029900059464846FFF700F8BA46054650E523F089
:1029A0000C0342E79FED487B0AF1070A2AF0070A69
:1029B000DAF804305AF8080BDF0F002BCDE9076274
:1029C0008DED047B02460691029715DBCDE90023CD
:1029D00059462A4643464846FFF728F805462FE55C
:1029E0009AF800301846C9E7102219E723F01002C0
:1029F000B2E79AF800002BE7424263EB4303E5E7B6
:102A00002A46434659469AF80000C8473D46DBE649
:102A100004922A460025CDE907630AF1070A0691C8
:102A2000059502952AF0070AFAE8026743465946D7
:102A30004846CDE90067FEF7F9FF054600E569283D
:102A400023F010022DD15F0586D583E7DAF8003038
:102A500003910A21029183EAE371A1EBE371DB0F99
:102A6000CDE90462CDE900132A4690E7CDE90221C1
:102A7000CDE904630190DAF800302A46009386E736
:102A8000DAF8003083EAE370A0EBE37076E713F442
:102A900080620A923FF449AF9F0705D52F460A90FE
:102AA00048E713460A22BBE64FF48067002E3FF446
:102AB000E2AE00230A9318E79C46134601330A93BB
:102AC00000E600BFAFF300800A0000000000000035
:102AD00070B594461E4605460C4684B04FF0FF3252
:102AE000634602A900960348CDE90254FFF78CFC27
:102AF00004B070BDFD23001010B5094B84B01C68F4
:102B00004CB1034600914FF0FF3203A90548A0479E
:102B1000012004B010BD00F031F9204604B010BD12
:102B2000C40A0020F523001000BEFDE7704700BF77
:102B300008B5FFF7F9FF00BF38B5064C064DFEF7A4
:102B40008BFBAC4204D254F8043B9847AC42FAD316
:102B500038BD00BF38310010383100100368084616
:102B600011461847437D2DE9F04780460F4616462B
:102B7000002B43D0002A32DD00244D1EA14606E082
:102B80006A780A2A2DD0B44205F1010514D02146F5
:102B900001340029F4D13B780A2BF4D198F8143091
:102BA000002BF0D102211948D8F800309847B442E0
:102BB000A14605F10105EAD14E4506DDD8F8003001
:102BC000A6EB090107EB09009847374417F8013CC9
:102BD000A3F10D03B3FA83F35B0988F81430BDE861
:102BE000F0872A780D2ACED08945DBDAD8F8003074
:102BF000A1EB090107EB09009847D3E73846D8F85D
:102C000000301146BDE8F047184700BFE832001019
:102C1000F8B50B685A1C802A0B440A60187100D062
:102C2000F8BD0D4B0D461C689CB10C4E0F1D01E00C
:102C3000246974B12368002BFAD033680BB1A34226
:102C4000F6D1204639462A68FFF78CFF2469002C0C
:102C5000F0D100232B60F8BDBC090020C009002082
:102C60002DE9F04F83B00D4691461C460746FEF70E
:102C70001DF94FF0FF3C6FF00046254A821841F1E4
:102C80000003944576EB03013CBF6246334621487E
:102C900000F026FA6B1C82462DD04CB3DFF8808002
:102CA0001D4B1C68ECB14FF00A0B1C4E01E024696F
:102CB000BCB12368002BFAD033680BB1A342F6D124
:102CC0002A4639462046C047B9F1000FEFD02046CA
:102CD00001220DF107018DF807B0C0472469002CCF
:102CE000E7D1BAF1000F0BD1284603B0BDE8F08F51
:102CF000DFF83080D4E7384600F0C0F90546CCE76D
:102D0000044800F0E9F9284603B0BDE8F08F00BFA1
:102D100040420F0060070020BC090020C0090020CD
:102D2000652B00105D2B0010084A136823B90AE0D8
:102D300003F110021B6933B18342F9D129B9186933
:102D400010601961704701B110607047BC09002024
:102D500008B500F069F9012008BD00BF012310B5D6
:102D6000044682B0002219460DF107008DF8074095
:102D7000FFF776FF204602B010BD00BF38B504460D
:102D800000F07CF9012305461A4620462946FFF744
:102D900067FF054B1C682CB1636803B19847246931
:102DA000002CF9D1284638BDBC0900202DE9F0419E
:102DB000A2B004460D46FEF779F84FF0FF376FF0EA
:102DC0000046254ADFF8A080821841F100039742AF
:102DD00076EB03013CBF3A463346204800F080F9C9
:102DE00000272B462246064601A91D480197FFF7FA
:102DF0006FFE019B0546D8F80040BBB14CB3194F9C
:102E000001E0246974B12368002BFAD03B680BB150
:102E10009C42F6D12046019A02A9FFF7A3FE24693D
:102E2000002CF0D10023D8F8004001932CB1636846
:102E300003B198472469002CF9D11EB9284622B065
:102E4000BDE8F081054800F047F9284622B0BDE80A
:102E5000F0810194F1E700BF40420F0060070020BD
:102E6000112C0010C0090020BC0900200FB400B5CF
:102E700083B004A951F8040B0191FFF797FF03B049
:102E80005DF804EB04B07047B1F1000C1DDD0F4A92
:102E90000F4B126830B5D31AB3FA83F30D240D4DDE
:102EA0005B09411E35F913E08C4411F8010F86458A
:102EB00006D093699B06FCD461451060F5D130BD06
:102EC00093699D06FCD41460F3E77047700B0020F3
:102ED000008007406C0B0020224BB1F1000C10B4B5
:102EE0001C682EDD034600201F4A591E1268936994
:102EF000DB0617D401309369DB06FCD413688445E4
:102F000001F8013FF3D14CB150211346916353F8BE
:102F1000342F02F0380203F580531A6060465DF8E2
:102F2000044B70474CB150211346916353F8342F32
:102F300002F0380203F580531A6078B15DF8044B53
:102F400070475CB1084B50211A681346916353F8DF
:102F5000342F02F0380203F580531A606FF002003C
:102F6000DDE700BF08090020700B0020054B1B683F
:102F700033B10021044A054812680068916318477C
:102F8000704700BF08090020700B00200C090020CA
:102F9000024B1A6893691B07FCD47047700B002022
:102FA000F8B51C4F1C4D3A681C4EAA4214BF21258F
:102FB00022250446D6F800C018B1BCF1000F10D08D
:102FC000F8BDBCF1000FFBD0014690632846FDF729
:102FD0008FFA28461249FDF7CFFA124B34601C6075
:102FE000F8BD0B460F4A0E49306028461360FDF7C6
:102FF00095FA01212846FDF77BFA3A6850211346DD
:10300000916353F8342F02F0380203F580531A60AD
:10301000F8BD00BF700B00200080074008090020A9
:103020006D2F00100C09002010B50E490E4C0F48F2
:103030000F4A104B007821600020022112781B7883
:10304000FDF7C4F902210120FDF7C0F94FF4E13189
:103050002068FDF7B5FFBDE8104001210648FFF7E5
:1030600063BE00BF00000740700B00203433001027
:10307000303300102C3300104807002020F00301EB
:1030800010F00300C0F1000051F8043B00F1040C03
:103090004FEACC0C6FF000021CBF22FA0CF2134373
:1030A0004FF0010C4CEA0C2C4CEA0C4CA3EB0C023C
:1030B00022EA030212EACC1204BF51F8043B0430A6
:1030C000F4D0C2F1000102EA0102B2FA82F2C2F1C6
:1030D0001F0200EBD20070475FF800F01D020020D5
:1030E0005FF800F0E50100205FF800F065020020C5
:1030F0005FF800F0E50500200513001079120010BC
:10310000AD12001085130010E5120010FD11001023
:103110002D130010E91100102108001031130010C8
:10312000A90B00104912001019130010C912001049
:08313000A9040010D1040010F5
:10313800697465723D256C752061726974683D30EB
:10314800782530386C78206372633D3078253038C4
:103158006C7820686173683D30782530386C782049
:10316800736F72743D30782530386C780A0000002F
:103178000A2A2A2A2050414E4943202A2A2A0A008C
:10318800486172647761726520616C61726D202597
:103198006420616C726561647920636C61696D6536
:1031A8006400000048617264206173736572740082
:1031B80052656C6561736500626F6F74325F773258
:1031C8003571303830000000322E332E30000000C8
:1031D8007069636F320000006370755F62656E63CB
:1031E800686D61726B0000004175672031312032D3
:1031F80030323600666E692B00000000666E69008A
:103208006E616E00666E692D0000000055415254D3
:1032180020737464696E00005541525420737464BD
:103228006F7574005541525420737464696E202F71
:10323800207374646F75740006005250D3F07542A1
:10324800B831001006005250E182887FC03100106A
:1032580006005250ABB36053D031001006005250F4
:10326800BBFF3CB6D831001006005250861C030242
:10327800E0310010060052505422A29DF031001097
:1032880005005250DE65F468A43900100000000003
:10329800000000000000F03F000000000000244093
:1032A80000000000000059400000000000408F406E
:1032B800000000000088C34000000000006AF840D9
:1032C8000000000080842E4100000000D0126341FD
:1032D8000000000084D797410000000065CDCD4173
:1032E8000D0A00000600525053B4F4A12C3200100D
:1032F80008005250120000000800525092100000BE
:083308008CCFFF0F0100000053
:10331000403200104C32001058320010643200105D
:10332000703200107C320010883200100033001020
:08333000F8320010EC3200102D
:10333800034600B50268EFF3108C72B6D2E8CFEFFF
:103348000120BEF1000FF9D1C2E84E0FBEF1000F07
:10335800F4D1BFF35F8F93F90420002A0ADB01B18F
:103368000A60002000221B68C3E88F2F8CF31088A6
:103378005DF804FB4FF05042126801201A71F1E722
:103388004FF050412DE9F8430027044616461D46E4
:10339800DFF86C90D1F8008011E099F800C05FFA6E
:1033A8008CFCC2E88F7F83F3108899F8003063455E
:1033B80000D120BF3046294600F09AFAE8B92168C2
:1033C800EFF3108372B6D1E8CF0F01220028FAD1AB
:1033D800C1E8402F0028F6D1BFF35F8F94F904109D
:1033E80022680029D9DA002184F80480C2E88F1FF6
:1033F80083F310880120BDE8F8830020BDE8F88336
:10340800750B002070B582B001A9064615461C460A
:10341800FFF78EFF38B94FF050439DF9042093F918
:1034280000309A4201D102B070BD2A462346304688
:1034380002B0BDE87040FFF7A3BF00BF0368EFF319
:10344800108172B6D3E8CFCF0122BCF1000FF9D1B9
:10345800C3E84C2FBCF1000FF4D1BFF35F8F4FF0DE
:10346800FF0C074A80F804C013780133DBB21370ED
:1034780000230268C2E88F3F81F3108840BF70477D
:10348800750B002053B94AB9002908BF00281CBF92
:103498004FF0FF314FF0FF3000F0B2B9ADF1080C3A
:1034A8006DE904CE00F006F8DDF804E0DDE902235A
:1034B80004B070472DE9F04F8C46099E04460F462C
:1034C800002B48D18A4215465ED9B2FA82F33BB145
:1034D800C3F120029F409D409C4020FA02F217430E
:1034E8004FEA154E1FFA85FC220CB7FBFEF10EFBC6
:1034F800117701FB0CF042EA0742904207D9AA185B
:1035080001F1FF3702D2904200F258813946121A6F
:10351800A4B2B2FBFEF00EFB102200FB0CFC44EA46
:103528000244A4450BD92C1900F1FF322CBF012706
:103538000027A44502D9002F00F04381104640EA35
:103548000140A4EB0C0400211EB1DC400023C6E9B5
:103558000043BDE8F08F8B4206D90EB1C6E90001E1
:1035680000210846BDE8F08FB3FA83F1002951D154
:103578006345C0F01681824240F213810846002E4E
:10358800E7D0C6E90047E4E7002A00F0AF80B2FAC6
:1035980082F3002B40F0C2808A1A4FEA154EAFB270
:1035A8000121200CB2FBFEFC0EFB1C2240EA024269
:1035B80007FB0CF090420ED9AA180CF1FF382CBF6B
:1035C8004FF001094FF00009904203D9B9F1000FFB
:1035D80000F0F080C446121AA4B2B2FBFEF00EFB53
:1035E800102200FB07F744EA0244A7420ED92C191F
:1035F80000F1FF322CBF4FF0010E4FF0000EA74232
:1036080003D9BEF1000F00F0D2801046E41B40EA57
:103618000C4099E7C1F120058B400CFA01F400FA3F
:1036280001F922FA05F72CFA05FC8A401F4320FA13
:1036380005F3380C23431FFA87FE1C0CBCFBF0F87B
:1036480000FB18CC44EA0C4408FB0EFCA4450ED938
:103658003C1908F1FF3A2CBF4FF0010B4FF0000B5B
:10366800A44503D9BBF1000F00F0B880D046A4EB05
:103678000C041FFA83FCB4FBF0F300FB134403FBB8
:103688000EFE4CEA0444A6450ED93C1903F1FF305E
:103698002CBF4FF0010C4FF0000CA64503D9BCF12C
:1036A800000F00F09F80034643EA0840A4EB0E0495
:1036B800A0FB02EC64457346E04602D307D1F1450E
:1036C80005D2BEEB02036CEB070C0138E0465EB195
:1036D800B9EB030264EB080404FA05F522FA01F3D6
:1036E800CC401D43C6E90054002132E742082F466A
:1036F8004B08AC4642EAC172AE46C407110C92B2FE
:1037080041EA034142EA0142B1FBF5F1B3FBF5F0AE
:103718001F23A2EB0C0241EA004142E79D40C3F19E
:10372800200299409C402CFA02FC4FEA154E20FAE0
:1037380002F2AFB2BCFBFEF80A430EFB18CC110C28
:1037480041EA0C4108FB07FC8C4550D9691808F17F
:10375800FF302CBF4FF001094FF000098C4502D90A
:10376800B9F1000F30D0A1EB0C01B1FBFEF808FB5A
:1037780007FC0EFB181192B242EA0142624534D2AC
:10378800AA1808F1FF312CBF4FF001094FF00009CA
:103798006245BED2B9F1000FBBD1A8F102012A449B
:1037A800B7E7841A6CEB030201201746E7E62C44BE
:1037B80002382BE7ACF1020C2A440CE702392A4400
:1037C800A5E62C440238BAE6A5EB0C0CA8F10200D9
:1037D8006144B1FBFEF808FB07FCCAE7A8F1020840
:1037E8003C4444E7023B3C445EE7414691E7A1EB99
:1037F8000C014046B1FBFEF808FB07FCB9E700BF27
:10380800704700BF844641EA000313F0030349D11F
:10381800403A23D30B6803604B6843608B6883602E
:10382800CB68C3600B6903614B6943618B69836132
:10383800CB69C3610B6A03624B6A43628B6A83621A
:10384800CB6AC3620B6B03634B6B43638B6B836302
:10385800CB6BC36340304031403ADBD230320BD3BC
:103868000B6803604B6843608B688360CB68C360F8
:1038780010301031103AF3D20C3205D351F8043B12
:1038880040F8043B043AF9D2043208D0D2071CBFEE
:1038980011F8013B00F8013B01D30B880380604617
:1038A800704700BF082A13D38B07B1D010F0030369
:1038B800AED0C3F10403D21ADB071CBF11F8013BD9
:1038C80000F8013BA4D331F8023B20F8023B9FE704
:1038D800043AD9D3013A11F8013B00F8013BF9D277
:1038E8000B7803704B7843708B7883706046704711
:1038F8005FF800F0910D00107856341210000000A7
:1039080000000000000001000000000000000000AE
:10391800000002000000000000000000000003009A
:1039280000000000000000000000FF000000000090
:1039380001B5486801318E4600477046093801498B
:10394800884701BD6D070010FFFFFFFFFFFFFF7FE6
:10395800000000000000000000000000000000005F
:103968000000000068070020892E0010912F001029
:10397800D92E0010A12F0010000000000001000047
:08398800000000000000000037
:10399000D3DEFFFFFE010000FF010000A8C7FFFF0C
:0439A000793512ABB8
:040000051000014D99
:00000001FF
