:020000041000EA
:10000000F2EB88714C38001074380010A400001016
:1000100090A31AE7D3DEFFFF420101114403000061
:100020003600001000200820FF040000F8660000E1
:10003000793512AB69A8974100109381A1A41721CB
:100040000810130121FC173500101305B5C77310F4
:100050005530732540F125ED170700001307C7043D
:100060000C4391C55043144731070D28D5BF973530
:1000700000109385A5E21386818221A023A00500AC
:100080009105E39DC5FEEF20D054B120EF20105420
:100090000290FDBF884108C291051106E36CD6FEAF
:1000A000828001007438001000000020982E00208B
:1000B0000C67001000000820000008200C670010EA
:1000C0000010082000100820000000008280216538
:1000D0001305C5DF02851D71A2CCA6CACAC8CEC64B
:1000E000D2C4D6C2DAC05EDE62DC66DA6AD86ED608
:1000F00086CEB73D0020EF203077B737002003A62B
:100100000DE83737002093874720373D0020B73C64
:10011000002037340020B73A0020373B0020B78951
:10012000B8EDB7040001930307063EC4130D0D0E8E
:10013000938C0C0E1304041E938A0A20130B0B28B5
:100140009389093293843419014F814701478146CD
:100150008142094C930B100213090008130A000294
:10016000FA8F8945938EF5FF2E83330EBC401A8893
:100170007685C288336805034685E31C08FEB3080C
:100180006E003385A8020503AA9FE31273FF85055D
:10019000E39A75FD9E859E88014532831316D30030
:1001A0003346660013531601334666001313560098
:1001B00033436600137675003356C3002380C800AE
:1001C00005058508E31C25FD1A8693C6F6FF83C83E
:1001D00005002145B3C6160193F81600B308104177
:1001E000B3F8380185827D15B3C6160175F585050E
:1001F000E31FBDFC93C6F6FF93051F006683E688E8
:1002000016C6131ED600334ECE0013561E01334EB3
:10021000CE0013165E003346CE0033CEC500935E8B
:100220008E00A380D80193520E01935E8E0123802D
:10023000C80123815800A381D8019108E31314FD5C
:10024000B242B7A81C8123AECC0F938858DC034E72
:1002500003000503B3481E01B3889802E31964FE46
:10026000334717011D0FD68ED68832831316D3005D
:1002700033466600135316013346660013135600C7
:100280003343660033466F0023A0C8009108E31F84
:100290001BFD224E1A8623A06DE82EC6054316C804
:1002A00083280E009A85728F8322CFFF63F958004E
:1002B00023205F00711FFD15E398EAFF8145B3C558
:1002C000552123A015010503110EE31B43FDB24583
:1002D000C24283A80E001355D561910EC29805083D
:1002E00033C5A800E31748FF37486587130818325D
:1002F00033880503B7A89100AA979388382BFE92FC
:100300001355186063F4A8002E8F99BD373500107F
:100310001686130505443ECE3ACC36CA16C82EC6FC
:10032000EF209067B2453735002003A60DE8C242A2
:10033000D2466247F247930305062E8F15B5B7875D
:1003400003409107B347F52098438566BE9613474F
:1003500007041377070C3786024098C23365C5201F
:100360000D67BA974CC11307001098C3828039718A
:100370003733001022CC2A841305034806CE2ED230
:1003800032D436D63AD83EDA42DC46DEEF20D050C0
:1003900001CC4C1022852EC6EF20101E37350010E0
:1003A00013058550EF20504F0545EF20D021F376FF
:1003B000043037370020130737021318370033187B
:1003C0000029719BAF280745B3F80801E39C08FE9C
:1003D0000F00300313D735003A950347050093F714
:1003E0007500B317F0283378F700631108025D8FAA
:1003F0002300E5000F003003B73700209387870103
:10040000A3850700A18A73A006308280411132853E
:1004100006C6B13F37370020034547E8DD4693075E
:10042000150093F7F70F63F3F600C1472302F7E8CF
:100430008280B7360020938686018147130600022A
:100440000F0030033387F600230007008507E39988
:10045000C7FE8280035705009318B02893551700F4
:100460009317170093F6053093F7070813562700E4
:1004700013182700D58F93567700AA97C18A137552
:1004800008400E071378E60093F50504AA97B3E633
:10049000060113770702B6974D8FBA973375160189
:1004A0003385A740828081463D481D459305400322
:1004B00093F736008A073317F80013D62600420751
:1004C000518F733037BEB317F500C207D18F73A0B9
:1004D00037BE8506E39EB6FC736004308280935776
:1004E000550086073315A028C176E98E13871700BB
:1004F0004205558F5D8D91C9733025BE733027BE7F
:10050000732005BE732007BE8280733005BE733032
:1005100007BE828073770430B737002093871702B5
:1005200093963700B316D028F19B2FA6D744758E2B
:100530006DFE0F003003F327503013054503F19B88
:10054000B347F5209443B7370020938747E60A0561
:100550006384F6006395D502F3275030F19BAA9788
:100560008CC30F0030030F003003B7370020938790
:100570008701A3840700218B7320073082804111FB
:1005800006C6EF00507F797106D64ECE56CA5AC8BD
:1005900062C4F37A0430B7370020938717021397A9
:1005A00037003317E028F19BAFA6E744F98EEDFE44
:1005B0000F003003F327503013074503F19BB34777
:1005C000F72003AB0700B7370020138C47E69319D9
:1005D000270063038B0326D2AE84630ABB044AD090
:1005E00037390020130989C433072B419307F002E0
:1005F00063F3E70492540259F3275030F19BCE97EE
:1006000023A067010F0030030F003003B73700202D
:1006100093878701A384070093FA8A0073A00A30A6
:10062000B250F249D24A424B224C456182809254E8
:10063000138B47E6D1B752CC5EC622D4AA8B135A8D
:100640004500732A0ABE81459377F500135A0A01C3
:10065000335AFA4869350F003003F32750BE139719
:10066000070163450714918393F7F71F93854703A9
:100670006392FB1E5A84014618405C4093768700C3
:1006800099E6137707801317B748D187BA97638C19
:10069000F4008307A40063C20710B3A7F7202286E3
:1006A00033C42721D1BF8304A40063C30410B3A7BC
:1006B0009420B3C727219843139C1400DC439376FE
:1006C000870099E6137707801317B748D187BA9741
:1006D00063036403139717008566758F3E9713773E
:1006E00007801317B748D2071367770B93E7770E86
:1006F00018C09397F72833079C00B346272103C6F9
:10070000B6005CC0B167A305C4008386A6000A07D3
:10071000938727E42305D40063C406062107330525
:10072000E9000D3B930784003307F540931717004A
:10073000856613563700F58F118A93167700931547
:10074000B028D18FED8E13161700D58F1376066063
:1007500093562700D18F93F6061013161700D58FE6
:10076000137606089356170093F60604D18F0A07EE
:10077000D58F13778703A966D98F13871600D98F72
:100780003737002083460728269C334C2C2123141E
:10079000F4002305DC0023009728D2855E85813391
:1007A000225492540259624AB24BB9B58145D9B527
:1007B00085ED59CEF177938727E47D572314F60012
:1007C0002305E600B307244137B7AAAA1307B7AA3F
:1007D0008987B387E7023737002083460728230538
:1007E000D4002300F72855BF373700209307840033
:1007F000130747C81D8F93171700856613563700D8
:10080000F58F118A931677009315B028D18FED8E4E
:1008100013161700D58F1376066093562700D18FD5
:1008200093F6061013161700D58F13760608935605
:100830001700D18F93F606040A07D58F1377870325
:10084000D98F93E717009397D7282314F400B1B7F3
:10085000628B8DBFEF003052F32750BE1397070114
:10086000014663490700918393F7F71F9387470376
:1008700013962700F3750430B737002093871702CB
:10088000139737003317E028F19BAFA6E744F98EA2
:10089000EDFE0F003003B7370020938887C433077D
:1008A0001541B7B6AAAA9386B6AA09873307D70215
:1008B00013174760F3265030F19AB29603A306004F
:1008C000938787C481461148630FA3020386A7005C
:1008D000B1076304E6048506E39A06FFB7370020F4
:1008E00083C607282380E7282305D5000F0030039F
:1008F000B737002093878701A384070093F785000B
:1009000073A007308280F3275030B7360020F19B68
:10091000B297938646E694C3D1B7B3A6D620F177B3
:10092000B3C616217D56938727E42385C6002394FA
:10093000F6006DB7B737002093878701AE971CC1CB
:100940008280011122CC26CA37340020B73400201F
:1009500006CE930704E9938484E963F897024AC8B2
:100960004EC6130404E9FD591309F00F1C409DC342
:100970005534AA8522857D3F231224010F003003C0
:100980002104E36594FE4249B249F2406244D244F4
:10099000056182804134AA852285693F23023401A2
:1009A0000F0030032104E36394FCF1BF37360020CD
:1009B000832746287377043093963700B316D028E0
:1009C000F19BAFA5D744F58DEDFD0F003003B73691
:1009D000002083C7162803264628850793F7F70FBC
:1009E000A380F6280F0030032300060093778700CA
:1009F00073A00730332010000145814582805D716E
:100A000086C6A2C4A6C2CAC04EDE52DC56DA5AD886
:100A10005ED662D466D26AD06ECEF32750BE1397EC
:100A20000701634E073213DA47009377FA1F898371
:100A3000137A3A00B319402937090B40639D0734F4
:100A400037370020B3C747211307071EB3C7E72076
:100A500003AB07008D6793874704CA97930B8B00FE
:100A600023A037017D54FD54B34A2A21831D8B00F6
:100A7000232E390363D90D0883574B009397576092
:100A800063D5071683476B00639D071E83168B0093
:100A900063C7060403274B01B3A6D620FD57B3E670
:100AA000E62083AC860003ACC6006394FC006300C0
:100AB0009C030327890283A70A01B386EC40998F20
:100AC00063E0F60483270902B3D7474995CB4A85EB
:100AD000D12563C68501E31BBCF8E37995F9332082
:100AE0001000B640264496440649F259625AD25A3A
:100AF000425BB25B225C925C025DF24D616182807E
:100B000023A89A01E9B783274B0133ACBD214A855D
:100B1000336CFC20832CCC00032D8C00A52DE3CD61
:100B200095F5638ABC1C63CC0C1C03270C01B7171A
:100B300000109387E79F83254C016305F7248317F3
:100B40008B0003552C00C2075D8D0297AE862A8765
:100B5000B367D7006385071A63D906203307ED40D2
:100B6000B387DC40333DED00BA86B387A741031756
:100B70000C002324DC002326FC00E34F07EE0325B2
:100B80004B013328E720131617003368A82083256C
:100B9000C80083288800E3C1B7EE6394F500E3ED55
:100BA00016ED2314EB0013088B0031A08328860078
:100BB0004C46131617003A963366A62063CDB7004D
:100BC000638FF51C0317060032883326E72033664F
:100BD000A620E35D07FC2310EC002310B801835727
:100BE0004B0093975760E3CF07E883270B01737798
:100BF000043093963700B316D028F19B2FA6D74424
:100C0000758E6DFE0F00300383584B00FD57231285
:100C1000FB009398586083270B010F00300323805B
:100C200007009377870073A00730E3CD08E403251E
:100C30004B0103178B0033A818213368A820032326
:100C400088000326C800DE85635A070039A8638C34
:100C5000C60E03970700BE8563490700B327E72048
:100C6000B3E7A720D447E354D6FE23901501831899
:100C700008002310E800E3DE08FA83476B00E387EF
:100C800007E023030B0003178B007D555E83E30809
:100C9000A7E483284B01B327E720BA86B3E71721DF
:100CA00003D62700BA853A881316566003970700C3
:100CB000634306023E83E30DA7DCB327E720B3E7D7
:100CC000172103D62700BA853A8813165660039772
:100CD0000700E35106FE80C7C4C7638AD50023100E
:100CE000E30083568B002390D7002314BB00C286F9
:100CF000E315A7FC71BBE361A5D9E3D80CE2035768
:100D00000C0083270B012314EB00737704309396B8
:100D10003700B316D028F19B2FA6D744758E6DFEF1
:100D20000F00300383562B0083270B012310DC00B8
:100D30002311BB010F003003238007009377870046
:100D400073A0073015BB9447E375D3F023901501CA
:100D5000831808002310E800E3DD08EC39BF85495B
:100D6000CE87014A37890B40E1B94A8536C63AC475
:100D700015212247B2462A97AE96B337A700B697F9
:100D8000BA86F5B39C492E852EC482972DD9A245EB
:100D90009841D44175BB854737890B4055B1E3F382
:100DA00016E315BD411122C437340020130444C991
:100DB0001C4806C691CB2244B240373500201305AB
:100DC0004528A9454101BDB68D4537050B4026C2D2
:100DD0005526B7070B405CC4EFF0CFE38D472300E7
:100DE000F400370700D003280700B73700209387A7
:100DF0008701B706110058483E95FD55FD163D4642
:100E0000C16708C8A300040114C42312B40023114D
:100E1000C400AE97938617002310F700B3C70608E7
:100E20006107E399C7FEA144B7070B40B71500104F
:100E300084D39385E59FB73700200D4523A6871EF1
:100E4000EFF04FED85450D45EFF06FE9B7270B400B
:100E50002244B240A4C3924437350020938707044C
:100E600013054528A9454101F1B4AA8708497378BB
:100E7000043093183500B318102971992F231545A4
:100E800033731301E31C03FE0F00300303932700A9
:100E900083A847011375880033286320336818211D
:100EA00083A80701634B0308035E08002391C70171
:100EB0000F0030032380080073200530835828007A
:100EC000054E13150301F298C60893D81801B3F81C
:100ED000C80B232AE8002328D8002324B80023269F
:100EE000C8002311180133651501984BF3760430BF
:100EF000131637003316C028719BAF25C744F18DF8
:100F0000EDFD0F00300303D64700984B2310C800B7
:100F1000239267000F0030032300070013F78600B9
:100F20007320073003C70700DC47896693864604B1
:100F30003317E028B69798C382800F0030032380D0
:100F40000800732005307D5582800357A50093D794
:100F5000054163D8E7045449B3A7F7201849B3E71C
:100F6000D720F3760430131637003316C028719B50
:100F70002F28C7443378C800E31C08FE0F00300355
:100F800003D62700B3C5050813F78600B346060845
:100F9000630BB6001C490F00300323800700732049
:100FA0000730014582809396F6282391D700854724
:100FB0002303F50014490F0030032380060073203B
:100FC0000730834605005845096613064604B316E4
:100FD000D02832973E8514C38280011122CC26CAC4
:100FE00006CEAA842E84F32750BE139707016350C0
:100FF00007084EC6B739002083A789E8638DA70884
:1010000052C4373A002093074AC956C24AC883AA35
:10101000C70003C907005685B52A334959218327DC
:1010200009013387A440B305B440B3B6E400958DFD
:10103000898F63C4050899E16361F7084249224A30
:10104000924A33200000B7070B40D85363608706ED
:101050009C57018FB24933B597003337E000133501
:101060001500598DF2406244D24405618280B70771
:101070000B40D8530145E367B7FE9C57F2406244EA
:1010800033B597000D8F3337E00013351500D24488
:10109000598D0561828083A7C9E8E393B7F63320B1
:1010A0000000B7070B40D853E37487FAF24062445C
:1010B000B249D244014505618280ED203385A440C8
:1010C00033B5A400B305B440898D63C60506B716D1
:1010D0000010A6859386C69A0147228613054AC941
:1010E0006933AA856359A004B7070B40D85323A4DA
:1010F00099E823A689E8636787009C5763F6970001
:10110000631487003320000013054AC93D3DB7072B
:101110000B40D8530145636487049C57018F3337D4
:10112000E00033B59700133515004249B249224A11
:10113000924A598D05BF37070B405C5363E687021F
:101140001857818FB337F0003337970013371700E4
:101150004249B249224A924A33E5E70021B742495F
:10116000B249224A924AFDBD4249B249224A924AB4
:101170000145CDBDB787F4BFAA973735002093B797
:10118000170013058528373600103E9513060649CB
:101190006FF0EFA14C51AA8788572E87CC53E31DDF
:1011A000B7FE8280B7070B40CC5388572E87CC53AD
:1011B000E39DE5FE828037070B405C5303288702DE
:1011C000BE865C53E39CD7FE33060501BE953335DE
:1011D000A6002E95636DF5026389A702B7070B4041
:1011E000D853AA876377A700B7060B40D852E36F9E
:1011F000F7FE631BF70037070B4021A0545363959C
:10120000F6001457E3ECC6FE8280E37906FDB707CB
:101210000B40DC537D573E86E38FE7FCBA873A8666
:10122000E1B7011122CC2A84194526CA06CEAE8424
:101230004AC80D2C0E0533559502050593577500C8
:10124000A5C3C166F916416763FAF6087D178147A1
:1012500058D01CD403290403B7044000938404FC31
:1012600093771900A1CB8D67938707034EC61307A9
:101270001030A29798C3832944021C5419459A0937
:10128000BE99CD22B7872B8F938757B73335F50299
:10129000AA0981452D8133D5A902313FB24919A848
:1012A00093040004054758D01CD403290403937702
:1012B0001900D5FB85679387C702A297585423A0CE
:1012C0000700232824031945712AF24062440A05C5
:1012D000335595024249D2440561828005811375D8
:1012E000F503939467003E87AA94AA876DBF4111C6
:1012F00022C42A84194526C206C6AE84A5223DC151
:10130000B7870740370700046303F406B727024096
:1013100098C3B7060240B737024098C3A1069C4263
:10132000B377F740EDFFB787F8BFA2971387C18067
:1013300093B71700B3A7E720A685130700102285EF
:101340002390E700F93D585485679387C7021347F8
:101350000707A2971377E70798C3930710301CD8A5
:101360008D473CC4B24022449244410182803707F9
:10137000000869BFB70701403328A5203348F8208B
:101380008327480063F4E7002322E800130EC5FF1B
:10139000854763F6C7073733002013038303B3473A
:1013A000652083A807008D67C297931EB02823A0ED
:1013B000D7010A0563990802832808001606856785
:1013C000334616011376060EC29790C30546637224
:1013D000C6078967C2971316B0281A9590C314C11F
:1013E0002322E800828083274301B3D717038507B0
:1013F000B3A7F7209387E7FFE3DE07FE75BFE39C03
:10140000F5F88D67C2978D4823A0170183278800C0
:10141000858BEDDF832808001606856733461601A5
:101420001376060EC297373300200A0590C31303C4
:101430008303832808003316B028B3C515018D89AE
:101440008CC383278800F18FEDDF8967C29713165D
:10145000B0281A9590C314C12322E80082800000AE
:10146000416709BFB7370020938787033345F520CD
:1014700008418280B727B700938707B0B3D7B70278
:1014800083280500C206320733E8E6003356F60229
:1014900063C40804B787054011676300F506B727E2
:1014A000024098C3B7060240B737024098C3A1066E
:1014B0009C42B377F740EDFF0D670CC1110710C5D3
:1014C0002A97930710021CC31C41E3DF07FE232663
:1014D0000501A1471CC382801C4193F7F703E39BDE
:1014E000B7FA1C45D207D183E396C7FA5C45377734
:1014F0000700F98FE39007FB828021674DB7B7871C
:1015000010403325A5203345F5204CC185471CC12B
:101510008280A1679387A7DF83D7070085458287ED
:10152000B7170E409387878298437DDF0F00300303
:101530008280B7170E403E871307C7829387C78004
:101540000F00300323A007009107E39BE7FE828092
:101550008567938707AA378704401CC39307A011A8
:101560005CC7B7B6FA00B7A7044094C35C43E3DF97
:1015700007FE828082803735001041111305454BEC
:1015800006C6EFE0DFDE411122C426C23734001068
:10159000B734001006C6930744409384044463F9AB
:1015A0009700130444401C4011048297E36D94FE9D
:1015B000B2402244924441018280B747EFEF9387C3
:1015C000F7B7B72602403707F4039CC25917B7375D
:1015D0000240B706024098C3A1069C42B377F74089
:1015E000EDFF8280B7071150F847A1676303F7004A
:1015F0008280B727115037070400F8C78280370769
:1016000000207D17B7370240B706024098C3A106F5
:101610009C42B377F740EDFF8280156541111305B9
:10162000352506C6FD35B240AA871145410182879E
:10163000156541111305352506C6E13DB240AA875F
:101640000545410182876FE0DFDE411122C406C6F5
:1016500026C24AC03704014023220408D53DB737CB
:1016600001400547D8DF7C40E39FE7FE0D47B737D1
:10167000014098DB0544370701401C5FE39F87FE6C
:1016800037366859A285130606F00947954637058F
:101690000540CD33154737968647BA86A28513068F
:1016A00006C037850540F933B726B700938606B0E4
:1016B0000146894511456D33B7D6F008A28593865A
:1016C000061801461545693BB776DC02938606C0CD
:1016D0000146814521456933B776DC02938606C011
:1016E000014681452545AD3BB7D6F00893860618DF
:1016F000014681451945AD33B7D6F00893860618E3
:10170000014681451D45A93B1145A93BB7E71B4350
:10171000938737E8B334F50201441949C98022851B
:10172000A6850504E93BE31C24FFB2402244924411
:101730000249410182808280797122D44ECE52CCFE
:1017400056CA5AC85EC662C466C206D6C68C26D2BF
:101750004AD093F83800AA892E8A328BB68ABA8B7F
:101760003E84428C639F08063309F8403299B28464
:1017700063FD07072686D6868504D28513050002F9
:101780008299E39924FF21C02299330689407D1470
:10179000B3878B0003C50700D686D285CA84829999
:1017A0006DF493FC2C0063800C02338B6441637CEA
:1017B0008B012686D686D28513050002050B85048B
:1017C0008299E3688BFFB25022540259F249624A6F
:1017D000D24A424BB24B224C924C268592544561E0
:1017E00082803289B284CDF36DBF3289D1FFE1BFEF
:1017F000A242C28F024E93FE220012483E8363969D
:101800000E046318080C63F2C70593F31200930EDD
:101810000002130F00036309D3010503B307670038
:10182000A38FE7FFE369C3FF63820306930E000201
:10183000130F0003637B03016304D30D0503B30798
:101840006700A38FE7FFE31903FF93F70201B5CB0E
:1018500093F70240B1E763110304C1476383F816AD
:101860008947638FF816930700032300F7000543A9
:10187000639B0F0693F74200F5C3B3086700130E8E
:10188000B002930713002380C80191A093F70201CF
:101890008DCB93F7024089E763036E0A6301680A00
:1018A000C1476388F80689476384F80893070002F4
:1018B000630DF3009A870503BA979308000323800A
:1018C000170193070002E315F3FA930700029688C5
:1018D000A5B593F3120063820302638D0F087D1890
:1018E000E3E7C7F3A1B7B3086700130ED002238064
:1018F000C80193071300968881B5E3EAC7F1B1B731
:1019000093F70201F9D393F70240D9D7C147E39E79
:10191000F8FA93F70202A5CB93070002E307F3FA64
:10192000B307670093088005238017010503BDBF37
:1019300093070002E30BF3F89A87050311A89307B6
:10194000F3FFB1CF414E6383C80B094EE396C8F74E
:10195000BA97930820062380170189BF93F8820065
:101960009A87E38608F63A939308000285072300D6
:101970001301B1BF93F7C200B337F0003308F8404A
:10198000E367C3E965B593070002E300F3F4B30727
:1019900067009308800723801701050301BFC14733
:1019A000E390F8EC93F702029DCF9308800593072C
:1019B000000323001701A300F7000943E38C0FEA9B
:1019C0001DB793F7020285C39307800593080003B0
:1019D0002300F700A30017010943E38D0FE821B7A7
:1019E00093072006E5B793078007CDB79308E3FF79
:1019F00013FE0202BA9863070E00130E80052380BF
:101A0000C8015DBD130E80072380C80175B539710B
:101A100026DA06DE22DCC28E96443A8E3E8809E73C
:101A200093F70440BD98A5E793D754489302100656
:101A3000A1EFD91281471808A5431304000221A081
:101A4000638987021A8E337FDE031373FF0F930FB0
:101A5000030316931373F30F63E4E30113F3FF0F10
:101A60008507330FF700A30F6FFE3353DE03E379CF
:101A7000DEFD064426C446C022C2F688953BF250DD
:101A80006254D25421618280930210045DB7814771
:101A90001808C5B77571A2DCA6DADAD0E2CCE6CABE
:101AA000EAC8EEC63E8C86DECED6DECED98F2ACAF6
:101AB0002ECC32CECA4C7A4B3A84368DC28DC68437
:101AC00091E793770B40137BFBFEC5EFCAD8D2D4C6
:101AD000D6D293575B4813091006CDE35919814BB1
:101AE00093090102254A930A00022686E68622858A
:101AF000E28597F0FF0FE78040A31375F50F3306DB
:101B00002501930505031376F60F6364AA0013F607
:101B1000F50F850BB3857901A38FC5FEE686268672
:101B20002285E28597E0FF0FE780A067636B9C0149
:101B300063878C0163875B012A842E8C7DB7E37BEE
:101B400094FE4659265A965AEA477246E2453EC2E4
:101B5000DA4752455AC43EC0A6886E88DE874E8753
:101B6000EA867931F6506654D654B659065BF64B80
:101B7000664CD64C464DB64D49618280130910041F
:101B8000B1BF814B93090102C1B7297123282113E9
:101B9000232631132324411323225113AA892E8A89
:101BA0003289B68A3A85BE853A86BE86232C811252
:101BB000232A91122328A1112326B111232E1112B9
:101BC000032D01143A84BE84C2C1C68D9710001043
:101BD000E78080B0631F0516B737001003A687792A
:101BE00083A6C7792285A685232C8111232A9111EA
:101BF00097000010E780A0B56349A014B737001024
:101C000003A6077A83A6477A2285A6852320611337
:101C1000232E711197000010E78040BF634B05161B
:101C200022D026D2025592550146814697000010D7
:101C3000E780C0BD139BF4696344050022D0268B66
:101C40009317B028B376FD0013770D40BAC336CC96
:101C5000B3676401631807146394071A6391064A13
:101C60009947BEC1137C2D0063140C52914BB3F7FE
:101C70007D0BF1173ECC814C22D426D62255B2558D
:101C80000146814697000010E78040B86347055041
:101C900082575ADF3EDD6A57FA57E2480E4893767C
:101CA000FDFF9396B648135D5D4836C04A86D686DA
:101CB000D2854E857D1D312B137D0D022A86D68659
:101CC00013055D04D2851304160082999547FD1B08
:101CD0003307904122863EC25EC033E7EC0A93D7B9
:101CE000FC01D686D2854E85814829480D332A8449
:101CF00063000C0233092541637CB9012286D68634
:101D0000D28513050002050905048299E368B9FF2D
:101D10008320C113228503248113032B0112832BFB
:101D2000C111032C8111832C4111832441130329F8
:101D300001138329C112032A8112832A4112032D20
:101D40000111832DC11031618280032C8111832CFC
:101D5000411122CC26CE6247F2470E482320A1151E
:101D6000EE88D6864A86D2854E8503248113832049
:101D7000C11383244113032901138329C112032AA8
:101D80008112832A4112032D0111832DC11031616B
:101D900089A1032B0112832BC111032C8111832CE8
:101DA000411145BFA5E3E247E38E07EA814C8E4728
:101DB000814B63C6FC40A2C5A6C72E45BE45014661
:101DC000814697000010E78060A463430532A2D1EA
:101DD000DAD30E579E57131DBD48136D0D405E8814
:101DE000032B0112832BC111032C8111832C411170
:101DF0002320A115EE88D6864A86D2854E85B5B7B2
:101E00009947BEC113554B011375F57F130515C0D6
:101E100097100010E780E09BB737001003A6877A81
:101E200083A6C77A97000010E78040AAB737001052
:101E300003A6077B83A6477B97F0FF0FE780E0A50B
:101E40009317CB003706F03FB183D18F3EDA22D80B
:101E5000B737001003A6877B83A6C77B2A8CAE8B7F
:101E60004255D25597000010E780A0FBB73700100D
:101E700003A6077C83A6477C97000010E78000A597
:101E800062DC5EDE2A86AE866255F25597F0FF0F61
:101E9000E780A0A097100010E780C087AA8C971059
:101EA0000010E7800093B737001003A6877C83A655
:101EB000C77C2A8CAE8B97000010E78020A1B73733
:101EC000001003A6077D83A6477D97F0FF0FE780EC
:101ED000C09C97100010E780E08337370010E2C005
:101EE000DEC20326877DAA87964506458326C77DE1
:101EF000BE8B97000010E780609D2A8C5E855ED8BF
:101F0000AE8B97100010E780C08CB737001003A687
:101F1000077E83A6477E97000010E780209BE2C4DF
:101F2000DEC62A86AE862645B64597000010E780B5
:101F300040EFAAC8AECA4646D646AAC02EDC9700D5
:101F40000010E780A098E25706472A8CBECEBACC94
:101F5000BAD0BED2AE8B6646F64606559655BEC47E
:101F600097F0FF0FE7806093B7360010E2D4DED61B
:101F7000AA882E8803A6867E265583A6C67EB655D9
:101F8000C6C042DC97F0FF0FE780801D373300109A
:101F90000326037F8326437F97F0FF0FE780E08FC0
:101FA000E2D8DEDA2A86AE864655D65597F0FF0F80
:101FB000E780001BB736001003A6867F83A6C67F86
:101FC00097F0FF0FE780608DE2DCDEDE2A86AE86CA
:101FD0006655F65597F0FF0FE78080184647A647ED
:101FE000AA8B3AC13EC3B747001003A507802E8CC9
:101FF0000A4683A547809A4697000010E78060E272
:102000005EC562C72A86AE862A45BA4597F0FF0F9D
:10201000E780A088864862582A8646C942CBAE86A9
:102020004A45DA4597F0FF0FE7808013B747001065
:1020300003A6878083A6C78097F0FF0FE780E0851F
:10204000C25701473ACD9387F73FD2073ECF6A4642
:10205000FA4697000010E780608722D15AD30A56CB
:102060009A562A8CAE8B97F0FF0FE780406E37337D
:1020700000106351A002E2C9DECB4E45DE450326C7
:10208000037F8326437FFD1C97F0FF0FE780400D01
:102090002A8CAE8B93863C061306600C6287DE8723
:1020A000137C2D00636CD602E246EDE29146B68BBE
:1020B00063F5B60163090C10094CE38F0CBA5ADBC7
:1020C0003AD522D93ED72A56BA564A55DA5597F00C
:1020D000FF0FE780E0082AD02E8B79BEE24695E21A
:1020E0009546B68BE3FDB6FD63070C0C094CC1BFEA
:1020F000131BFB69A2D5DAD72E57BE57E9B9954B0A
:102100005DB9954BB366F7003ED83ACCE38106CA79
:10211000A2CDDACFB746001003A606816E45FE4574
:1021200083A6468197F0FF0FE78060626247C2573F
:1021300063440502B7460010A2D9DADB03A6868104
:102140004E55DE5583A6C68197F0FF0FE780006CE1
:10215000E34F05C46247C2578E4699CE1E4609CE4C
:10216000FD16B6C102CCE3FABBF563000C0402CC49
:10217000094CE3960CF409B602CCE3F0BBF5630618
:102180000C0202CC094CE39C0CF2FDB4914B9DBFB8
:1021900002CC914B814C094CC5B48257131BFB698F
:1021A000DADFBEDD6E57FE57CDBCB3867D4136CC3F
:1021B000E3970CF0D1B49386BDFF36CC09B7B38B4F
:1021C0009741FD1BCDBE9386CDFF36CCE3990CEE37
:1021D00065B431714ED752D556D35AD1AA892E8AB9
:1021E000B28A368B3A85BE853A86BE8622DD26DBEC
:1021F0004AD95ECF06DF8E4BBA843E8442C0468900
:1022000097000010E780404D63140546B737001073
:1022100003A6077A83A6477A2685A2856AC96EC770
:1022200097F0FF0FE780805E634B0524B7370010FF
:1022300003A6877983A6C7792685A28562CD66CB5A
:1022400097F0FF0FE780A0506348A01CB74700102D
:1022500026C422C62245B24503A6078283A647822A
:1022600097F0FF0FE780A04E634DA016B747001010
:1022700026C822CA4245D24503A6878283A6C782C2
:1022800097F0FF0FE7808058634D051426CC22CECF
:102290006245F2450146814697F0FF0FE7800057FF
:1022A0006340051C02DC93F70B4099E399473EC05D
:1022B0008246130D0106EA87938806FE254693059C
:1022C0000003637AD61C2380B700FD168507E39AC6
:1022D00016FF930C000226D022D20255925546C01A
:1022E00097000010E78000438248B73600109386BD
:1022F0008673B3E6D82003A846009C4246CC42C26F
:102300003EC0AA8D97000010E780A04C26D422D6AC
:102310002A86AE862255B25597000010E78060B03D
:102320000246924697F0FF0FE780405A2E8C2AC84B
:1023300097000010E78060442AC497000010E780EF
:10234000A050C24762DA2A863ED8AE864255D255A0
:10235000373C001097000010E780A0AC03260C7DEE
:1023600083264C7D2AC82ED097F0FF0FE780203EB1
:102370002243E2486352A02405031A8546C81AC4C2
:1023800097000010E780404C2A86AE8602459245B1
:1023900097F0FF0FE78080472243C2486344A000C4
:1023A000850D0143638E080E37D5CCCC1305D5CCF3
:1023B000130E0002A54E638BCC273337A302850C86
:1023C000B3069D01FD180D83B347E7208607B307C9
:1023D000F34093870703A38FF6FE63F96E223A83D7
:1023E000D9BF26DC22DE6A54DEC16257F2570248AA
:1023F0006A4CDA4C4A4DBA4DFA50DA54FA4BCA8854
:10240000DA864A590A5B5686D2859A5A2A5A4E85E6
:10241000BA5929616FF06FF793F74B0085EF3737A3
:1024200000101307C7508D476A4CDA4CDE884A8883
:10243000DA865686D2854E854A4DBA4D6A54FA5090
:10244000DA544A59BA592A5A9A5A0A5BFA4B2961FC
:102450006FF08FAE37370010130747509147E9B739
:10246000A6C8A2CA4646D646014581459700001037
:10247000E780209B8547AA842E843EDC2DB5373724
:102480000010DE884A88DA865686D2854E85130784
:102490004751914755B78247B688B38CD74025BD81
:1024A0006E8597000010E780C032A6C4A2C62A86B7
:1024B000AE862645B64597000010E7808096032437
:1024C0000C7D83244C7D2AC02286A6862E8C97F014
:1024D000FF0FE780A033634F05008247E2CEF64549
:1024E000BECC66452286A68697F0FF0FE7802026A1
:1024F0006355A01637656666130575669308000276
:102500001DA0B397AD02850CB3069D018987998FF5
:1025100033C7F7200607B38DED4013870D03A38F54
:10252000E6FEBE8D9DCF13D7FD41E39C1CFD93F6C7
:102530003B0005466399C60463070904E257DDC7FB
:102540007D1963F22C051306000293050003638CCA
:10255000CC02850CB3079D01A38FB7FEE3E92CFFE6
:1025600031A093F63B0005466383C6129306000232
:10257000638BDC00E257C9C71306D002B3862C0078
:102580002380C606850CDE884A88E6876A87DA8655
:102590005686D2854E85EFF02F9AFA506A546A4CCF
:1025A000DA4C4A4DBA4DDA544A59BA592A5A9A5A0B
:1025B0000A5BFA4B29618280C24746C41AC0BEC07A
:1025C00082570645BEC2B7370010964503A6077D61
:1025D00083A6477D97F0FF0FE78040230243A24880
:1025E000E34205DC6310030805036DBB93F6CB00E3
:1025F000C1CE7D19E3E92CF593060002E385DCF8F2
:1026000093F64B0095CE1306B0028DBF6380CC03CA
:10261000E6989305000313060002638C1C01850CE9
:10262000B3079D01A38FB7FEE399CCFE930C000284
:10263000D1B58A989306E002850C2380D8065DBD4B
:1026400093F68B00A9D213060002B387CC00B386A1
:1026500027002380C604850C3DB713881D00937D99
:10266000E8FF49BD93761300E38E06D205031DBB38
:1026700037370010DE884A88DA865686D2854E853E
:10268000130707518D475DBBE3EF2CEBEDBDE30F67
:1026900009ECE257A1DF7D19E3E72CEBE39E1CED8B
:1026A000DDB511E182806F00101D01C59C41CC4158
:1026B00082878280B727001059719387476BA6D213
:1026C000CAD0CECEDEC66EDE86D6A2D4EAC023A89D
:1026D000F1802E89B284B68DBA8BAA8963870536BC
:1026E00003C50D00014D630B0536D2CCD6CADAC83E
:1026F000E2C4E6C2130B50024144373A0010A54A27
:1027000011A86A86A686CA85050D829903C50D00A3
:1027100063000512850DE31665FF814603C50D00B4
:1027200013871D00930705FE93F7F70F6368F40006
:102730001306CA59B3C7C7209C438287930705FD78
:1027400093F7F70F63FDFA089307A002014C6305A6
:10275000F5169307E00201486309F50A930785F926
:1027600093F7F70F49466363F604373600101306F4
:10277000065EB3C7C7209C43828793E61600BA8DD6
:1027800071BF93E62600BA8D51BF93E64600BA8D1D
:1027900071B793E60601BA8D51B793E68600BA8DFC
:1027A000B5BF03C51D0093E6061005079307700625
:1027B000BA8D63E9A70A93074002E3F4A7F49307ED
:1027C000B5FD93F7F70F13072004E36CF7F23737E3
:1027D00000101307C762B3C7E7209C438287014CF0
:1027E000B34E8C21B3AEAE2003450700BA8D138CD7
:1027F0000EFD930705FD93F7F70F0507E3F2FAFEC9
:102800009307E0020148E31BF5F403C51D00A5474B
:1028100093E60640930505FD93F5F50F3A8663F3BD
:10282000B7249307A0026301F528BA8D05073DB7C9
:10283000664AD64A464B264C964C6A8463649D0091
:10284000138DF4FFA6866A86CA8501458299B65023
:102850002285265496540659F649B64B064DF25D2C
:1028600065618280930775F993F7F70F3D47E36A37
:10287000F7E8256713071704B31CF02833F7EC00BB
:102880003AD26315072029476382E7041D47E39A7C
:10289000E7E603A70B0093E61602A147C2886A8603
:1028A00036C23EC041488147A686CA854E85EFF0B4
:1028B0000F96910B2A8D99BD03AC0B00910B6347CA
:1028C0000C0803C51D00BA8D050761B593874B0041
:1028D0003ED683AB0B007D5663030800428603C5DA
:1028E0000B005E96DE876307053A6300F62A03C78E
:1028F000170085077DFBB38777413ED493F70640E9
:102900003ED089C7A257B3D7070B3ED4898A6388C4
:10291000062C89473ED2EA8C825791C79307F8FF6D
:10292000630008023E8842CE6686A686CA858299E2
:10293000850C3387AC415E9703450700724869FDFB
:1029400092576399072CB25B668DC9B303C51D000E
:1029500093E62600BA8D330C80410507DDBB03C525
:102960001D009307C006E310F5E403C52D0093E6B0
:10297000063013873D001DBD03C51D0093E60620EC
:1029800005072DB503C51D00930780066303F520D9
:1029900093E60608050719BD930770066304F51250
:1029A00093077004630EF51C93075004630CF51C29
:1029B0009D0B93FB8BFF03A70B0083A74B006A863D
:1029C00036C0E288A686CA854E85EFF00F9CA10B23
:1029D0002A8D2DBB930760046303F50E9D0B93FBBB
:1029E0008BFF03A70B0083A74B006A8636C0E288E3
:1029F000A686CA854E85EFF0CFFDA10B2A8D39B38F
:102A00006A86A686CA8513055002050D8299FDB90E
:102A100093874B00898A3ED0930C1D00638606186D
:102A200003C50B006A86A686CA8582998547629D82
:102A300063F087296686A686850CCA851305000281
:102A40008299E3199DFF825BD1B103C50D00B719CF
:102A5000001093896973014DE31905C80144E363CC
:102A60009DDEF9BB3E873348082105063328A820A0
:102A700003450600130808FD930705FD93F7F70FBC
:102A8000E373F7FEB28D13071600C9B99307F0067A
:102A9000630DF50263FDA724930780074146630792
:102AA000F502BD9A29461DA003A80B0003C52D0001
:102AB000890D13871D003368080A910B45B193E611
:102AC000060229BF9396B628E5B5214693F706403E
:102AD00093F536FF99C393F526FF93F70520639C82
:102AE000071C93F70510938C4B00639F072093F707
:102AF0000504639E071893F705086384072203D72C
:102B00000B002EC262C0C288328881476A868DA0BF
:102B1000930780056306F508930720060946E30737
:102B2000F5FA93F7064093F5E6FE638F071493F7E3
:102B300005206393071093F70510938C4B00639B5C
:102B4000071893F70504639D071293F7050863833D
:102B5000071C83970B0093D6F74033C7D700158F18
:102B600033470708C2882EC262C0FD836A8629489F
:102B7000A686CA854E85EFE09FE9E68B2A8D79B659
:102B80009396B62893E6060225B5B30776413ED460
:102B9000B5B303C52D0093E6060C13873D0039B18C
:102BA00093E6060241461DB7854763FD870F9307ED
:102BB000FDFFE2973ECEEA8C6686A686CA8513059F
:102BC00000028299F247850CE39897FF03C50B003A
:102BD0003E86A686CA858299629D825B05BEA25703
:102BE00063F187172257B307AC01B38CE74042CE9D
:102BF0006A86A686CA85130500028299050D724869
:102C0000E397ACFF03C50B0093071C003ED4E3140D
:102C100005D015BB668D225763738713B307AC01CC
:102C2000B38CE7406A86A686050DCA8513050002A7
:102C30008299E399ACFF01BB9D0B93FB8BFF03A52E
:102C40004B0083A70B006A869356F541B58F3387F7
:102C5000D740B3C8A600B386D840B3B7E70042C296
:102C60002EC662C402C0B387F6401358F501A948C6
:102C7000A686CA854E85EFE0FFE1A10B2A8D79B4C7
:102C800083C70B003E87F9BD93F5F6FE4DB503C72C
:102C90000B0085BD93F706403ED4D1CB898AD5C6BB
:102CA00002D495BF03C50B006A86A686CA858299A1
:102CB000825B668DA1BC9D0B93FB8BFF03A70B0072
:102CC00083A74B00B28842C26A862EC662C402C085
:102CD000014879BF83A70B00C2882EC23307F0409A
:102CE00033E7E70A62C06A86FD83294851B5930736
:102CF000900693F5F6FE6319F50293F70640E38814
:102D000007E293F5E6FE25B503A70B00C2882EC2A5
:102D100062C0DDBB83A70B003307F04033E7E70A4F
:102D200091B503A70B00F1BBAE86294645B393F7D7
:102D300026003ED0E39107EE02D4E3150CEAEA8CBC
:102D400019B185073ED402D2F9B6930700403ED0B0
:102D5000E5B70111B72800102A88AE8736872C0006
:102D6000B2861385A86A7D5606CE42C43EC6EFF0F1
:102D70007F94F2400561828083A70181011106CE14
:102D800091CFAA86372500102E871305256A6C007F
:102D90007D568297F240054505618280F52CF24010
:102DA0000145056182800D45731025BE7D15E35DEB
:102DB00005FE05651305058073104530736004300A
:102DC0007310003482800290FDBF8280411106C6DC
:102DD000DD3F411122C426C206C637340010EFE0A1
:102DE0008FFAB7340010930704449384044463F9C2
:102DF0009700130404441C4011048297E36D94FE71
:102E0000B24022449244410182801C412E85B28509
:102E100082878347550179714ECE52CC56CA06D669
:102E2000AA8A2E8AB289E9C322D426D25EC6AE848B
:102E30000144814B635CC0065AC862C466C24AD072
:102E4000B74C0010294B354C01A883C70400638898
:102E5000670785046387890222890504E31709FE51
:102E600083470A00E39767FF83C74A01FDF383A7FF
:102E70000A00894513850C83A28B82978504E39D04
:102E800089FC63D93B0183A70A00B38579413305E7
:102E90007A0182974A9A83470A000259424BCD171A
:102EA000224C924C93B71700238AFA002254B25056
:102EB0009254B24BF249624AD24A4561828083C73A
:102EC000F4FFE38887F9E3D42BFB83A70A00B3055B
:102ED000794133057A01829783A70A0089451385D2
:102EE0000C83A28B829759BF1C41B250F249D24A3F
:102EF0005285624AB285456182879C4193060008EB
:102F00001387170098C1AE972382A7006303D700E9
:102F10008280011122CC03A4818126CA06CEAE8410
:102F20001DC44AC84EC61389450019A0004811CCDB
:102F30001C40CA852285FDDB83A7418199C3E397A5
:102F400087FE9040F935004865F44249B249F240A5
:102F5000624423A00400D24405618280397122DCDE
:102F600026DA4AD84ED606DEB28952D456D25AD084
:102F70002A89AE843684EFE0EFA2B7470F0093872B
:102F80000724AA9733B5A700370700803306B5009A
:102F90007D17BE856374C7003A86FD55B73A002099
:102FA00013850AE997D0FF0FE780A016FD572A8BFB
:102FB000638AF4063DC0373A0010130A2AE103A4DD
:102FC00081811DCC5ECE62CC294C19A000481DC465
:102FD0001C402686CA852285F5DB83A7418199C3DB
:102FE000E39687FE029A05469305F1002285E38F5A
:102FF00009FCA3078101029A004879F8F24B624C60
:1030000063190B02F25062544259B259225A925A31
:10301000025B2685D25421618280373A0010130A60
:10302000AAE071BF4A8597000010E7800099AA8442
:1030300051B713850AE997D0FF0FE780C011D9B7C0
:1030400083A781811387818199C76389A70013872B
:1030500007019C4BFDFB91C108C38280FDFD944B91
:1030600014C323A807008280411106C6FD24B24084
:103070000545410182800111854622CCB6852A840E
:1030800001461305F10006CEA3078100C13DF240C1
:103090002285624405618280411106C622C426C28F
:1030A0002A8497000010E7804091AA8485462285F3
:1030B000A6853686653503A4818111C45C4091C321
:1030C0008297004865FCB240224426859244410123
:1030D0008280717122D526D306D74AD14ECF56CBE6
:1030E0002A84AE84EFE00F8CB7470F009387072444
:1030F000AA9733B6A700370700802E967D17BE85A6
:103100006374C7003A86FD55B7390020138509E975
:1031100097D0FF0FE780E0FF2A8937350010A68699
:1031200022866C001305A5EF02C62531B24703A421
:103130008181AA848DC352CD0DE86A4A02C6631606
:103140000904BA502A540A59FA49DA4A26859A5487
:103150004D618280004865D45C40EDDF8297004875
:10316000DDBF32467D31004801CC1C400C08228571
:10317000FDDB83A74181F5D7E305F4FE004875F434
:1031800003A481816A4A02C6F9B7138509E997D079
:10319000FF0FE78040FC75B73971130341022ED24F
:1031A0009A8506CE32D436D63AD83EDA42DC46DEAE
:1031B0001AC60537F24021618280635EB00203A720
:1031C0004182B787F8BFBA9793B717009386C1803B
:1031D000B3A7D720039807003306B500B54583464B
:1031E0000500630BD8001C4F93F70702EDFF14C3D3
:1031F0000505E316C5FE82801C4F93F70702EDFF1D
:103200000CC3D5B703A801822A866351B00603A771
:10321000418201451C4FC18B9DEB05051C4FC18BA5
:10322000F5FF1443B307A600A38FD7FEE394A5FED2
:10323000630D0800930700051CDF5C5B85669386C1
:10324000460393F7870336971CC32E858280630D50
:103250000800930700051CDF5C5B856693864603C8
:1032600093F7870336971CC30DC18280630F080054
:1032700083A7418213070005856698DFD85B938694
:103280004603B6971377870398C37555828083A743
:10329000018281CB03A7418203A5C181232C0702B0
:1032A0008287828003A741821C4FA18BF5FF828019
:1032B00041114AC003A64182B787074022C4B30721
:1032C000F64093B7170026C206C61384170283A7D9
:1032D000018201C99DCFB24022449244024941017A
:1032E0008280F5DB2285232C06028145EFD02F9FBB
:1032F000B735001022859385E528EFD0CFA8B240DE
:10330000224423A0018223AE01809244024941015C
:103310008280AE86B73500102A8722859385E528FE
:1033200023A0E18223AED180EFD0CF9E22858545B8
:10333000EFD0EF9A83A7418213070005856698DFD7
:10334000D85BB240224493864603B697137787032F
:1033500098C39244024941018280374600103747A2
:103360000010B74700104111034606870347C78680
:1033700083C7878622C4B70607408945014506C62C
:1033800023A2D182EFC0BFFB89450545EFC03FFBBB
:1033900003A54182F16593850520EFD05FF52244B6
:1033A000B24037350020130585E68545410149B90E
:1033B000B70700D09C4337470010130747844111DB
:1033C000B3C7E72026C28443B76500101306000088
:1033D00026859385C57006C622C41304000097F0A5
:1033E000FF0FE780C063338584001306000081452A
:1033F00097F0FF0FE780E0512682B24022449244CA
:10340000410182801A160010BA150010E415001050
:103410004A160010FE150010321500104616001056
:103420002015001042090010A40D001074150010A2
:1034300030160010A62D0010A6040010B0330010A6
:10344000697465723D256C752061726974683D30E0
:10345000782530386C78206372633D3078253038B9
:103460006C7820686173683D30782530386C78203E
:10347000736F72743D30782530386C780A00000024
:103480000A2A2A2A2050414E4943202A2A2A0A0081
:10349000486172647761726520616C61726D20258C
:1034A0006420616C726561647920636C61696D652B
:1034B0006400000048617264206173736572740077
:1034C00052656C6561736500626F6F74325F77324D
:1034D0003571303830000000322E332E30000000BD
:1034E0007069636F320000006370755F62656E63C0
:1034F000686D61726B0000004175672031312032C8
:1035000030323600666E692B00000000666E69007E
:103510006E616E00666E692D0000000055415254C8
:1035200020737464696E00005541525420737464B2
:103530006F7574005541525420737464696E202F66
:10354000207374646F75740006005250D3F0754296
:10355000C034001006005250E182887FC834001049
:1035600006005250ABB36053D834001006005250DE
:10357000BBFF3CB6E034001006005250861C03022C
:10358000E8340010060052505422A29DF834001076
:1035900005005250DE65F468206700109A2700107D
:1035A0003C2700103C270010922700103C270010F9
:1035B0003C2700103C2700103C2700103C2700103F
:1035C0003C2700103C2700108A2700103C270010E1
:1035D000822700103C2700103C2700107A2700109B
:1035E00084290010AC27001078290010AC270010A7
:1035F0005E290010AC270010AC270010AC2700108B
:10360000AC270010AC270010AC270010AC2700102E
:10361000A2270010AC270010AC270010AC27001028
:10362000AC270010AC270010A2270010002A0010C1
:1036300002270010022700100227001002270010A6
:103640000227001002270010022700100227001096
:103650000227001002270010022700100227001086
:103660000227001002270010022700100227001076
:103670000227001002270010022700100227001066
:103680000227001002270010022700100227001056
:103690000227001002270010022700100227001046
:1036A000022700100227001002270010982900109E
:1036B000D4290010982900100227001002270010BA
:1036C0000227001002270010022700100227001016
:1036D0000227001002270010022700100227001006
:1036E00002270010022700100227001002270010F6
:1036F0000227001002270010102B001002270010D4
:1037000002270010022700100227001002270010D5
:1037100002270010022700100227001002270010C5
:10372000102B0010102A0010102B001098290010E8
:10373000D429001098290010000000000000F03F7C
:10374000000000000000244000000000000059407C
:103750000000000000408F40000000000088C340CF
:1037600000000000006AF8400000000080842E4144
:1037700000000000D01263410000000084D7974190
:103780000000000065CDCD410600525053B4F4A1B5
:103790003435001000000000FFFFFFFFFFFFEF7F48
:1037A000FFFFFFFFFFFFEFFFFB799F501344D33F65
:1037B000B3C8608B288AC63F000000000000F83FB5
:1037C00061436F63A787D23F71A379094F930A4082
:1037D000000000000000E03F1655B5BBB16B024091
:1037E000EF39FAFE422EE63F0000000000002C40B8
:1037F000000000000000244000000000000018400D
:103800000000000000000040000000000000F03F49
:103810002D431CEBE2361A3F0000000080842E414D
:103820000000000065CDCD410000000065CDCDC198
:103830000D0A00000800525012000000080052500B
:0C38400092100000A8320020A8320020E6
:10384C004835001054350010603500106C350010F0
:10385C007835001084350010903500103C3800107D
:08386C00343800108837001009
:103874001C412A87F3760430139637003316C02888
:10388400F19B2FA5C744718D6DFD0F003003830795
:10389400470063CF070091C19CC101451C430F0041
:1038A40030032380070093F7860073A007308280DB
:1038B400B70700D09C4305452302F7001C430F00C3
:1038C40030032380070093F7860073A007308280BB
:1038D4000111B70700D022CC26CA4AC84EC652C42A
:1038E40003A9070006CE2A84AE89B284373A0020A1
:1038F40005A803471A281377F70F0F003003238016
:10390400060073A0073083471A286394E700332026
:1039140000004E85A685971000F0E78040F339E556
:103924001C407377043093963700B316D028F19B6C
:103934002FA6D744758E6DFE0F0030030308440094
:10394400144093778700E35608FA230224010F00FA
:1039540030032380060073A00730F2406244D2444F
:103964004249B249224A054505618280F2406244D7
:10397400D2444249B249224A01450561828001117B
:103984004AC82E896C0022CC26CA06CEB2842A8468
:10399400C53509E9B70700D0838707000307C100CD
:1039A4006318F700F2406244D244424905618280C0
:1039B40022856244F240CA8526864249D244056182
:1039C40001BF1C417377043093963700B316D02897
:1039D400F19B2FA6D744758E6DFE0F003003B736CA
:1039E400002083C716287D562302C500850793F758
:1039F400F70F1041A380F6280F00300323000600C0
:103A04009377870073A007303320100082803288B8
:103A1400AA882E87D5EA63FFC50EC167636CF618C2
:103A2400B7070001E1466373F600C146B7370020CB
:103A34003353D600938787B49A9783C70700130339
:103A44000002B697B306F340630BF3003397D50037
:103A5400B357F5005D8F3318D600B318D50013564D
:103A640008013355C70293160801C18293D7080190
:103A74003377C702B385A6024207D98F63FAB7002A
:103A8400C2971307F5FF63E4070163EFB72E3A8586
:103A94008D8F33D7C702C20893D80801B3F7C70282
:103AA400B386E602C207B3E8F80063FBD800C29805
:103AB4009307F7FF63E50801791763E3D8003E87AE
:103AC4004205598D8145828063F5D50081450145C4
:103AD4008280C16763E8F618B7070001614863F3A1
:103AE400F6004148B737002033D70601938787B4DF
:103AF400BA9703C70700930700024297B388E740C9
:103B04006398E71663E4B6263335C500133515000C
:103B14008145828055C6C1676372F6241337061047
:103B2400133717000E07B356E600B7370020938704
:103B340087B4B69783C7070093060002BA97B38E7B
:103B4400F640639FF608B387C540935606014206C4
:103B54004182854533D5D70213D70801B3F7D7027D
:103B64003303C502C207D98F63FA6700C2971307EC
:103B7400F5FF63E4070163E667203A85B38767408E
:103B840033D7D702C20893D80801B3F7D702330654
:103B9400C702C207B3E8F80063FBC800C2989307E2
:103BA400F7FF63E50801791763E3C8003E87420520
:103BB400598D82809336061093B616008E06BDB5D5
:103BC400B73700208146938787B4B69783C7070029
:103BD400014793060002BA97B38EF640E385F6F6E2
:103BE4003318D60133D3F50093560801335ED3025C
:103BF40013160801B395D5014182B357F500CD8F53
:103C040013D70701B318D5013373D302B305C60321
:103C1400420333676700637BB70042971305FEFFD7
:103C2400636D0715637BB714791E42970D8F335567
:103C3400D702C207C1833377D7023303A6024207F0
:103C4400D98F63FB6700C2971307F5FF63E307137C
:103C540063F167127915C29793150E01C98DB38765
:103C64006740CDBD13B80610133818000E089DBD6B
:103C7400335EE600B3961601336EDE0033D8E500FA
:103C8400935E0E01B357D80313130E01B3951501B8
:103C9400135303013357E5004D8F93560701331631
:103CA40016013378D803B305F3024208B3E60601DC
:103CB40063FBB600F2961388F7FF63E2C60D63F068
:103CC400B60CF917F2968D8E33D8D603420741838A
:103CD400B3F6D603B3050303C206558F637BB7005F
:103CE40072979306F8FF6368C7096376B708791873
:103CF4007297C2079316080113130601B3E707016D
:103D0400C1821353030113D807014182330E6802A1
:103D14000D8F33836602B386C60293550301F29670
:103D2400AE963308C80263F4C6014166329813D6CE
:103D3400060142966360C7026305C7003E8581455C
:103D44008280420313530301C206331515019A9668
:103D5400E376D5FE1385F7FF81458280B70700011E
:103D64006377F602935606014147C1B38145054581
:103D740082803A85D5B53688ADBF2A8E45BDC287C7
:103D840099B77915C297DDBB7915C29711B39356CC
:103D94008601614759BB3288AA882E832E87CDE6D7
:103DA40063FFC50EC1676362F618B7070001E146F9
:103DB4006373F600C146B73700203353D6009387A8
:103DC40087B49A9783C7070013030002B697B30614
:103DD400F340630BF3003397D500B357F5005D8FC1
:103DE4003318D600B318D500935508013356B702DB
:103DF400131308011353030193D708013377B70250
:103E0400330666024207D98F63F7C700C29763E49B
:103E1400070163E4C72E918F33D7B70213950801C6
:103E24004181B3F7B70233076702C2075D8D637838
:103E3400E5004295636505016373E5004295198DBC
:103E44003355D5008145828063F3D5008280C167F4
:103E540063EBF616B7070001614863F3F6004148C7
:103E6400B737002033D70601938787B4BA9703C7BF
:103E740007009307000242973388E740639BE714E7
:103E840063E4B600636AC500B308C5403333150163
:103E9400B386D5403383664046859A85828041CE79
:103EA400C1676370F62413370610133717000E0723
:103EB400B356E600B7370020938787B4B69783C715
:103EC400070013030002BA97B306F3406315F3081F
:103ED4003387C5401353060142064182B355670236
:103EE40093D7080133776702B385C5024207D98F98
:103EF40063F8B700C29763E5070163F3B700C2979D
:103F04008D8F33D76702C20893D80801B3F76702CD
:103F14003307C7021395070133E5A800E36BE5F007
:103F2400198D3355D500814582809336061093B69A
:103F340016008E0649B5B73700208146938787B4AB
:103F4400B69783C70700014713030002BA97B30665
:103F5400F340E30FF3F63318D60033DEF5001353C2
:103F64000801B35E6E0213160801B395D5003357EA
:103F7400F50041824D8F93570701B318D500337E66
:103F84006E02B385CE02420EB3E7C70163F8B700F1
:103F9400C29763E5070163F3B700C2978D8FB3D56A
:103FA400670242074183B3F76702B385C502C207BC
:103FB4005D8F6378B7004297636507016373B70049
:103FC40042970D8F21BF13B80610133818000E083E
:103FD40041BDB3960601B358E600B3E8D80033D325
:103FE400E50013DE0801B356C303939E080193DE74
:103FF4000E01B357E500B3950501DD8D93D7050197
:1040040033160601331505013373C303338FDE0200
:104014004203B3E7670063FBE701C6971383F6FF28
:1040240063EB170D63F9E70DF916C697B387E741FC
:1040340033DFC703C205C181B3F7C703B38EEE03F1
:10404400C207CD8F63FBD701C6979305FFFF63E2D9
:10405400170B63F0D70B791FC697C206131E0F0107
:10406400B3E6E60113130601135E0E0113530301B5
:10407400C182135F0601B38F6602B385D741330350
:104084006E02330EEE03935703017E9EF297B386BE
:10409400E60363F4F701416EF29613DE070142036F
:1040A40013530301C207F2969A9763E4D50263801F
:1040B400D502B307F5403335F500958D898D3397D7
:1040C400E50033D50701B3D50501598D8280E3722C
:1040D400F5FE3386C740B3B7C700C6979D8EB28737
:1040E400C9BFB7070001637CF60093560601414738
:1040F400D1B32E8F9DB79A8615BFC29729BB93560D
:104104008601614745BB3703100001117D1313D7A6
:104114004601B377B3003378D30056C293DA45012E
:104124008E0726CA52C493FAFA7F135AD50193D440
:10413400F5010E089375F77F06CE1357D60122CCEE
:104144004AC84EC6FD82336AFA00B288B387BA40C1
:1041540033670701131E3500931E36006389D40E9E
:104164006355F00463920516B366D7016381063084
:104174009386F7FF638C06621306F07F6386C73A63
:1041840013068003635FD6561304FEFF333E8E008E
:10419400330ACA4193168A0037078000BE8A63DA5D
:1041A4000604130AF7FF7D54B9A26384071AB38780
:1041B4005541639D0A3C3366CA0163000658138661
:1041C400F7FF6307066A1305F07F638FA762130581
:1041D40080036356C5741384FEFFB3BE8E00330A96
:1041E400D74113168A00370780006341067CB684E2
:1041F400BE8A9307440033B48700229A3E849317FF
:104204008A0063DD072093871A001307F07F26884E
:10421400638AE720370780FF7D1793F7F77F3377AB
:10422400EA001316D7010D802607418E3183F24030
:104234006244D207D98F1317F801D98FD244424967
:10424400B249224A924A3285BE8505618280268817
:10425400635DF01C63920516B366D701638906207B
:104264009386F7FF638E064E1306F07F6389C75A61
:1042740013068003635CD66293168A0037078000B6
:1042840013041E00BE8AE3D606F63A8A0144850A60
:104294009307F07F6387FA18B70780FFFD17B3779A
:1042A400FA001357140005889396F701418F13DA27
:1042B400170033E4E60093777400B1D39377F400E6
:1042C4001147E38EE7F235B79306F07F638EDA2465
:1042D4009306800363D2F61C1304FEFF333E8E0064
:1042E400330ACA4113178A00B7078000E35307F063
:1042F400138AF7FF7D545285EF109061930785FF71
:1043040013070002B306F740B356D400331AFA0079
:10431400B3E646013314F40063C7572FB3875741FC
:1043240085071D8F3316E4003336C000335AF4007A
:10433400336646013397E6003364C70033DAF60088
:10434400B3674401814AA5FB26888147014701469A
:10435400F9BD93871A0093F7E77F63920728B36741
:10436400CA013366D70163910A3E638B0752630522
:104374000620B305DE413336BE00B307EA40918F11
:1043840013968700635F065C338ECE41B3BECE01C5
:10439400330747413307D741B367EE007284B684CD
:1043A400C5D79317870063D70760B70780FFFD174A
:1043B4007D8F36888547B5B59306F07F6386DA1618
:1043C4009306800363C2F62CB7068000558FFD4622
:1043D40063C8F640130600021D8EB316C700339659
:1043E400CE00B3DEFE003357F7003336C000B3E629
:1043F400D601B3E7C6003A9A3E9EB337FE003E9A12
:10440400728493178A00E3C407E893777400638C7B
:10441400075A9377F4001147E39DE7DCD6870D80B4
:1044240091A8D6870147014619B563890710B38758
:10443400554163940A26B366CA01638D064C93867C
:10444400F7FF638F06301306F07F6384C73E1306BD
:104454008003635BD65293168700370A8000BE8AB6
:104464000144E3C606E213841E003A8A59B31314C6
:1044740035000D801316DA019306F07F418E135731
:104484003A006398D708598E59CA01489307F07FB8
:1044940037070800014661BBB7068000558FFD460B
:1044A40063C0F618930600029D8E3314D700B396AA
:1044B400DE00B3DEFE00B336D0003364D4013357DC
:1044C400F700558C330AEA4033048E40333E8E00A5
:1044D400330ACA4193178A00E3D907F2260A135A0A
:1044E4009A00E31A0AE02285EF10904293078501AF
:1044F4007D47E357F7E06115B316A40063D657155B
:10450400370780FF7D17758F1316D701B387FA40DD
:104514000D833207318393F7F77F268809BB2688FA
:104524009307F07F014721B313143500135534006A
:104534001316DA01498E13573A00B1B793871A005C
:1045440093F6E77F639F0616B367CA01639E0A3A30
:10455400B366D7016380074085C2F29E33BECE01A5
:104564005297330AC70193178A00768E63C00742B5
:10457400B3E74E01E38A07DC135E3E001316DA014B
:104584003366C60113573A00814761B71306F07FBB
:10459400638CC526130680036347F616370680002E
:1045A400336ACA007D46634EF628130600021D8E48
:1045B4003314CA003316CE00335EFE003336C00017
:1045C4003364C401B357FA00518C1D8F33848E4079
:1045D400B3BE8E00330AD741AE8AB684E5BD330438
:1045E400DE4133368E00B307EA40918F139687007D
:1045F400634A06123366F4003E8AE31406EE014869
:10460400814701472DB1370A80FF7D1A1377740063
:10461400B38AFA4033FA4601E31D07DED68701B5B3
:10462400938607FE13060002B356D700638AC700B9
:1046340013060004B307F640B317F700B3EEFE0009
:104644003334D001558C49B5338457419307140052
:10465400635DF72E05141307000233D48600638BC1
:10466400E70013070004B307F740B397F600B33726
:10467400F0005D8CE30A04CC93777400814AE39FD5
:1046840007C2014A0D80FDB313178A00B7078000E3
:10469400635D071C3E8A0144DDBE9306F07F638A96
:1046A400D5189306800363D5F62093178700370A3D
:1046B4008000AE8A0144E3CC07BC13841E003A8A0E
:1046C4000DBE9306F07FE38FD7D4F29E33BECE01A6
:1046D4005297729793DE1E001314F70193F67E002F
:1046E4003364D401135A170099C69376F400114623
:1046F400BE8AE390C6B00D801316DA01418E118391
:1047040009BDB68769BB1384FEFFB3BE8E00330AAE
:10471400D74113178A00B7078000634B071CB68480
:10472400AE8AC1BC338ECE41B3BECE0133074741FE
:104734007284330AD741B6846DB313963800135488
:104744003600B6843A8A3DB3E9EB63090622139630
:1047540038009317D7010D82B6845D8E0D8325B37F
:10476400F29E33BECE01529772979317870063D49B
:104774000718B70780FFFD1793D61E007D8F931788
:10478400F70193F57600D58F135617006382051E43
:1047940093F6F7009145638DB61C3384B700B337A5
:1047A400F400338AC7000D808947E9B1B30EDE41B6
:1047B400333EDE013307EA40330AC74193178A00C8
:1047C400768463CD070093DE3E001316DA01336668
:1047D400D60113573A0085472DBBB684854AFDB9E7
:1047E400938607FE13060002B356D700638AC700F8
:1047F40013060004B307F640B317F700B3EEFE0048
:10480400B337D001D58FCDBE939738001316D70197
:104814008D83B6845D8E0D83BDB1E31806C6131473
:104824003500935734001316DA015D8E13573A009E
:1048340099B9939738001316D7018D835D8E0D8334
:1048440099B1138607FE130500023356CA00638A22
:10485400A70013050004B307F540B317FA00336E3D
:10486400FE003334C001518C95B313041E0051B2C1
:10487400338ECE41B3BECE0133074741330AD7410D
:1048840093178A007284E3CA07F4135E3E0013167A
:10489400DA01B6843366CE0013573A00854795B9DA
:1048A400E30F06D43A8A768EB684F9B1B68705B694
:1048B400B7068000336ADA00FD4663C4F6061306C1
:1048C40000021D8EB316CA003316CE00335EFE00FE
:1048D4003336C000B3E6C601B357FA00D18E3E9713
:1048E400B69EB3B6DE00338AE6007684AE8A11BE85
:1048F400AE8AB684F5BA1316D70193DE3E0033664A
:10490400D6010D83854731B18DD7B36ED701E39EB0
:104914000EB631B70E06135436003A8AA1BEB287DA
:1049240051B1138607FE930600023356CA00638A08
:10493400D70093060004B387F640B317FA00336E2A
:10494400FE00B336C001D18E61BF130700021D8F74
:104954000146F9BAE38A069E76843A8A81470D8035
:1049640011BE33E6F500E30C06C83E8A2E8E29B14B
:104974008D8376065D8E1183894761BE0148930756
:10498400F07F3707080065B0B6873DB7370780FF6B
:104994007D173377EA001316D70193DE3E000D83AB
:1049A4003366D60133776700854751B0BE8AB68433
:1049B4006FF02FFF1316D701135E3E003366CE004F
:1049C4000D838147B9B60D80D6876DB4797193D7BD
:1049D400450122D426D252CC56CA66C29394C5004D
:1049E40006D64AD04ECE5AC85EC662C46AC093F791
:1049F400F77F2A84B28C368AB18093DAF501638911
:104A040007121307F07F638AE7068E04935BD501D0
:104A1400B3EB9B0037078000138B17C0131C3500C2
:104A2400B3EBEB008144014D93574A011314CA00C0
:104A340093F7F77F3180135AFA01B5C31307F07F58
:104A4400638EE70C0E0413D7DC01938717C0418FE4
:104A540037048000330BFB40598C93973C0081460C
:104A64003D47B3C54A01636D9718373700201307D4
:104A740087B08A04BA9498400287B3EBA400639C7D
:104A84000B143E8B93574A011314CA0093F7F77F14
:104A9400014CA144094D3180135AFA01C5F3B3679F
:104AA400940163850714630604362285EF1040667B
:104AB4002A87930755FFF5469D8E930787FF331486
:104AC400F400B3D6DC00558CB397FC005A97130B53
:104AD400373F814671B79307F07F81460147B25053
:104AE4002254D207FE05D58FCD8F92540259F24934
:104AF400624AD24A424BB24B224C924C024D3A8506
:104B0400BE8545618280814781460147C9BF814591
:104B14009307F07FB70608000147D1B7B367940144
:104B2400130B1B80E9EB93E42400014489460DBF79
:104B3400B3EBA40063870B0A638F042A2685EF1066
:104B4400205D2A87930755FFF54B130C87FFB38B22
:104B5400FB40B3948401B35B7401B3EB9B00331C3F
:104B640084019307D0C0338BE7408144014D6DBD70
:104B7400D6855E84E2870947E30FEDF40D47E30829
:104B8400EDF80547E301EDF8930FFB3F7E87635A89
:104B9400F03B93F677006394063013D537009317F0
:104BA400740063D80700B70700FFFD1713070B4015
:104BB4007D8C9307E07FE3C0E7F29316D4011316CC
:104BC40094009377F77F33E7A6009356C60001BF9E
:104BD400D285368D4DB7A68B2A8C3E8BB1440D4DB4
:104BE400A1B5014C9144014B054D3DBD93E4140026
:104BF40001448546B5B593E43400E6878D468DB50A
:104C04006362741F638E8B1CE2867D1B014C131739
:104C140084001353070133D46B0213D68701598ED2
:104C24009318060193D8080113D706011398870037
:104C3400B3FB6B0233858802C20BB367770163F859
:104C4400A700B2971307F4FF63F6C7243A84898F49
:104C540033D76702C206C182B3F76702B38FE80293
:104C6400C207DD8E63F8F601B2969307F7FF63FE81
:104C7400C6203E874204598C93170401131E080171
:104C8400C183135E0E01935E08011355040133873B
:104C9400FE02B386F641338FC703B30FC5039357A0
:104CA4000F017E97BA973305D50363F4F701416783
:104CB4003A95931F0F0113D70701139F070193DF41
:104CC4000F01B307A7007E9F63E2F60E638EF60C16
:104CD400330FEC41333CEC019D8E930FFB3FB386C5
:104CE40086417E876304D616B3D7660213550F0137
:104CF400B3F66602B382F802C206C98E63FB56009D
:104D0400B2961385F7FF63E2C61A63F0561AF917D1
:104D1400B296B386564033D56602420F135F0F0135
:104D2400B3F66602B388A802C206336FDF00637B62
:104D34001F01329F9306F5FF636BCF1663791F172C
:104D44007915329FC207C98F93960701C18293D206
:104D540007013385DE02330F1F413383C203330E51
:104D6400DE021A9593560E01AA96B38E5E0263F480
:104D740066004165AA9E13D50601420E135E0E011C
:104D8400C2067695F2966367AF0A6303AF0A930689
:104D940020C093E717006348DB1213854700B3373D
:104DA400F5000D813E94E5BBE374ECF333070C018D
:104DB40033358701B30FC500FE963A8C930FF4FF89
:104DC4006371D60C63E6F600639FD70A637DE70B35
:104DD40042973335070132957914AA963A8CCDBDA2
:104DE400E364FCE29396FB0113571C0093DB1B0066
:104DF400D98E7E0C29BDEF10A03193075501F146E1
:104E040013070502E3D2F6D46115B31BA400014CC9
:104E140089BB6685EF10C02F93075501F146130730
:104E24000502E3DAF6C861153394AC00814779B919
:104E3400E38E06D4329FFA881383F7FF636BCF06A1
:104E4400636AAF126303AF149A8791B7014585472C
:104E5400E34AF0F563960F08370700809317F401CF
:104E64007D17D98F058013874700B337F7003E9429
:104E7400BA8713178400635907128547814601478F
:104E8400B9B9630ED6027E84A1B5E3F4F6DF7917CF
:104E9400B296CDB3E3FCA7DA7914B2974DBB93F67F
:104EA400F7001146E38BC6CECDBDAA879DB53685E6
:104EB40051BD9A87E39DA8ECE39B06EDC1B961F56A
:104EC400E3E8F6F011B7130710C0631CEB0013D727
:104ED4001700136717009317F401D98F058061B782
:104EE400FD5705473307F74193068003E3CDE6C03A
:104EF400FD4663D2E60A8556B386F64113060002E0
:104F0400B356D4006307C700130BEB433314640197
:104F1400C18FB337F000D58F13F77700814611CFD7
:104F240013F6F700114501476309A6003386A7006D
:104F3400B337F6001397D701B2878D835D8F81470E
:104F440079BEE3900FFA93F6770013D617007D4BE2
:104F54000547ADE2331B6401558EB367CB0093F66E
:104F640077003354E40091D613F7F7009146E30237
:104F7400D7F0D5BD13131800B3380301B298FA98CB
:104F8400F9171A88E38AA8F219B5E365D8FE9A8757
:104F9400E39F06DFE5BE130BEB41B3966701B3361F
:104FA400D00033D6E7007DB793169400B18213176F
:104FB400D40161B7B3F6E70071BF93D84501B707D1
:104FC400100013D746012A88FD171303F07F93F8C6
:104FD400F87F33756700428E33F7B700B28EF58FD2
:104FE400FD81FD82638E6802630F65006397080488
:104FF4003368070121E15D8E35C2631C08061395F1
:1050040016007D1582805D8E3DE26395080033674E
:10501400070175D7639BD500139515007D15828014
:105024003367070129E7630E1503B305B04013E5A1
:1050340015008280E30508FCF1BF65D9E397D5FE2E
:10504400E34515FFE3CAA8FCE3E1E7FEE316F7FC3A
:10505400E3EDCEFD0145E361DEFD8280E31708FC4C
:105064008280D18F89E7E392D5FC0145828079550E
:105074008280E38BD5FC55BF93D84501B707100058
:1050840013D746012A88FD171303F07F93F8F87F9E
:1050940033756700428E33F7B700B28EF58FFD810A
:1050A400FD8263836804630F6500639B08043368AF
:1050B40007013DE95D8E15C6631D080613951600AC
:1050C4007D1582805D8E094519EE6395080033676E
:1050D40007016DD76386D504B305B04013E5150009
:1050E4008280E31B08FE82803367070129E3E3150E
:1050F40015FFD18F0945E5FBE390D5FE014582807C
:1051040061DDE39BD5FCE34915FD63CBA800E3E532
:10511400E7FC6317F700E3E1CEFD0145E375DEFD2F
:10512400139515007D158280E30A08F865B70945D3
:105134008280E38ED5FC4DB7797193D7450122D493
:1051440026D252CC56CA62C41394C50006D64AD09D
:105154004ECE5AC85EC666C26AC093F7F77FAA8A63
:10516400328CB684318013DAF50163820734130775
:10517400F07F6384E7220E041357D501418F37046F
:105184008000138B17C0931B3500598C814C014D43
:1051940093D744011397C40093F7F77F935AC7003A
:1051A400FD80638F07201307F07F638EE72C9387BE
:1051B40017C029473E9B634C972513973A00935792
:1051C400DC01D98FB3469A00370780000946B3EA59
:1051D400E70013183C00B6858147635196030546E2
:1051E4003316960113770653631407229375062426
:1051F400639B053C13768608631A063A93970B0162
:1052040013160801C183418293DB0B011358080173
:105214003387C7023385CB0213530701B305F80262
:10522400AA952E93B38E0B036374A300C165AE9E3F
:10523400139E0A014207135E0E0193DA0A014183A9
:1052440093150301B388CB03BA9513530301338732
:10525400C703B387FA0213550701C6973E95B38B6C
:105264005B0363741501C167BE9B93170401931814
:105274000701C183418093D8080113170501B30FB7
:10528400F802469741813A935E95B308C402338F7E
:10529400C702C69F13560F017E96330888026374B3
:1052A4001601C1684698420F93180601135F0F0157
:1052B4004182469F4296B308C4033388C703B38729
:1052C400FA02135E0801C6973E9EB38A8A0263748B
:1052D4001E01C167BE9A9318080193D80801931759
:1052E4000E013308D301C6973E953337E800B3085F
:1052F400E8012A973A9633B808013298B337F50093
:105304003335A700C98F3337E600135E0E013336F9
:10531400C800F297518F939B98003E97B3EBBB0064
:1053240056972607B33B700193D87801135478013C
:10533400B3EB1B01260893177700598CB3EB0B01D1
:1053440063C907109307FB3F635BF02013F77B00EF
:1053540015C713F7FB0011466302C70213874B00FE
:10536400B33B77015E94BA8B13177400635807003C
:10537400370700FF7D1793070B40798C1307E07FF5
:105384006349F7241317D40193DB3B00260493F7F6
:10539400F77F33677701318049A8B36BA400639426
:1053A4000B1A3E8B93D744011397C40093F7F77FEE
:1053B4000144A14C094D935AC700FD80E39507DED3
:1053C40033E88A016308081263880A225685EF00CD
:1053D4003054AA87130755FFF546998E138887FF23
:1053E40033970A01B356DC00B3EAE60033180C0124
:1053F400B307FB402947138BD7C0634A97018947FA
:10540400B3469A00E3DC97DFB6858147C9BBD285F2
:1054140089476304FD1A8D47630CFD128547AE86E8
:105424006314FD04814701440147D207B250C18F80
:105434002254FE06D58F92540259F249624AD24A46
:10544400424BB24B224C924C024D3A85BE8545618B
:10545400828093D71B0093FB1B00B3E77701931B58
:10546400F401B3EB7701058093070B40050B6358F8
:10547400F00E13F77B00E30907EE13F7FB00114668
:10548400E31EC7ECD5B533E88A01130BFB7F631B1E
:10549400080893E72C002947E34BF7F6B3459A0035
:1054A400AE86638E0C1CBE8C814A89470DBBB36BE0
:1054B400A400638C0B02630304122285EF005045A1
:1054C4002A87930655FFF547930B87FF958F33146F
:1054D4007401B3D7FA005D8CB39B7A019307D0C0F3
:1054E400338BE740814C014D65B10144914C014B34
:1054F400054D79B993EC1C00A947E3CA97F1B3456C
:105504009A000947AE86814A8547E34A97CD094701
:105514006385E70A054D85470144814BAE86E31553
:10552400FDF409B793EC3C002947634597150547FB
:105534003316970113768608B3469A0062888D471E
:10554400E30E06CAA5A0AA8B3E8BB14C0D4D89B1C2
:1055540081469307F07F370408000147F9B50546F3
:10556400DDEB130BEB41B3976B01B337F000331B47
:105574006401B3E7670133D7CB005D8F937777007E
:105584003356C40081CF9377F70091456388B70001
:10559400B307B70033B7E7003A963E879317860000
:1055A40063D1070E85470144014741B53E8D8947C4
:1055B400A6855684C28BE310FDE6AE869307F07F82
:1055C400014401479DB581469307F07F37040800E5
:1055D400A9BD9307F07F0144014781BDEF0050331B
:1055E40093065501F14713070502E3DED7EC611575
:1055F4003394AA00814BDDB56285EF007031130747
:105604005501F14693070502E3D8E6DC6115B31AA8
:10561400AC000148F1BB1D8E13078003E344C7E0CF
:105624007D47E350C7F40557B307F740130700025B
:10563400B357F4006308E600130BEB43331B640118
:10564400B3EB6B01333770015D8F937777000144BF
:1056540091CF1376F700914581476309B60033066D
:10566400B7003337E6009317D70132870D835D8F78
:10567400814765BB81463704080001477DB38947EC
:1056840079B51314960031809317D601C5B7B707BF
:105694001000FD170111B3F8B70013D84601F58FB8
:1056A4008E081397370026CA52C456C2135AD5011E
:1056B40093DA45019357D60193D4F5011303F07F90
:1056C40006CE22CC4AC84EC61378F87F336A1A0134
:1056D400328ED98FFD82B3FA6A00A685931E3500F7
:1056E400931836006308681693C6160033870A4178
:1056F4006385D40C6352E05A630B0818638F6A38CD
:105704009306800363C3E61AB7068000D58FFD466F
:1057140063C4E64693060002998E3394D700B39689
:10572400D800B3D8E800B336D0003364140133D7BB
:10573400E700558C330AEA4033848E40B3BE8E00B2
:10574400330ADA4193178A0063C3072E93777400F0
:10575400638D07329377F40011476388E732930728
:10576400440033B48700229A3E8493178A0063DE90
:10577400073093871A001307F07F93F51400638FA3
:10578400E726370780FF7D1793F7F77F3377EA0023
:105794001316D7010D802607418E3183F2406244EF
:1057A400D207FE05D98FCD8FD2444249B249224A4D
:1057B400924A3285BE85056182806358E05A631C33
:1057C400082033E71701630E07221387FAFF630CDF
:1057D400074663846A5C9306800363C8E620FD463B
:1057E40063C0E65213060002198EB396C7003396BF
:1057F400C800B3D8E8003336C00033D7E700B3E6B7
:105804001601B3E7C6003A9ABE9EB3B7FE003E9AAD
:10581400768493178A00E3DB07F2850A9307F07F07
:10582400638CFA4CB70780FFFD17B377FA00135760
:10583400140005889396F701418F13DA170033E4B7
:10584400E6009377740095D39377F4001147E398B7
:10585400E7F021BF33E7170113861A8069C763880D
:10586400D40C63070610638A0A2C13173E001396A0
:10587400D7010D83B684598E8D835D8E630906200E
:1058840081459307F07F37070800014601BF33E7DE
:105894001701630807161387FAFF63080742638E2C
:1058A4006A1E93068003E3D4E6E61384FEFFB3BEC8
:1058B4008E00330ADA4113178A00B7078000E350D9
:1058C40007EA138AF7FF7D545285EF00700413072B
:1058D40085FF93070002B386E740B356D400331A1A
:1058E400EA00B3E646013314E400634B572333075D
:1058F40057410507998F3316F4003336C000335AE5
:10590400E400B397F6003366460133E4C70033DAA4
:10591400E600B3674401814A8DF793F5140081478B
:1059240001470146A5BD93C61600E39CD4F2630E5D
:10593400061663920A2C4287B366DA01638B065219
:105944009306F7FF638106301306F07F6305C72AC9
:10595400130680036354D65A93968700370A80004F
:10596400BA8A0144E3CB06EA138418003E8AC5BB15
:1059740013871A001377E77F6311071833E61701BB
:105984003367DA01639C0A28630E0746630D061425
:10599400B3851E4133B6BE003307FA40118F131688
:1059A4008700635A0652B38ED841B3B8D801B3877F
:1059B4004741B387174133E7FE007684B68431DF6D
:1059C4001397870063510756370780FF7D177D8F34
:1059D400B685854775BB63826A0C9306800363C6EC
:1059E400E600B7068000D58FDDBB13178A00B70722
:1059F40080006350072A3E8A014405B501470146E9
:105A040071BB131435000D801316DA011307F07FF0
:105A1400418E93573A00E382EAE6B20713D7C700F0
:105A240093F5140093F7FA7F95BBB684854A260A4A
:105A3400135A9A00E31A0AE82285D92D130785011F
:105A4400FD47E3D8E7E86115B316A400634A571588
:105A5400330457411307140063D4E746051493072E
:105A6400000233D48600630AF70093070004998F79
:105A7400B397F600B337F0005D8CE30004EA937744
:105A84007400814AE39207DC014A0D80B5BF93F5A7
:105A940014009307F07F014711B30E050D8113160F
:105AA400DA01498E93573A00C9BB13871A009376DB
:105AB400E77F639106103367DA0163950A3AB3E628
:105AC40017016304074085C2F698B3BED801D29784
