:020000041000EA
:1000000000B5324B212058609868022188439860DF
:10001000D860186158612E4B002199600221596106
:100020000121F02299502B49196001219960352056
:1000300000F044F80222904214D00621196600F024
:1000400034F8196E01211966002018661A6600F04E
:100050002CF8196E196E196E052000F02FF8012189
:100060000842F9D1002199601B49196000215960AB
:100070001A491B48016001219960EB211966A021F2
:10008000196600F012F800219960164914480160C1
:100090000121996001BC002800D000471248134993
:1000A000086003C880F30888084703B5996A0420EC
:1000B0000142FBD001200142F8D103BD02B5186610
:1000C0001866FFF7F2FF186E186E02BD00000240BE
:1000D000000000180000070000035F00212200005C
:1000E000F4000018222000A00001001008ED00E03C
:1000F00000000000000000000000000074B24E7A12
:1001000000200420F7010010CB010010CD010010E9
:10011000C9010010C9010010C9010010C901001077
:10012000C9010010C9010010C9010010CF01001061
:10013000C9010010C9010010D1010010D301001045
:10014000C1010010C1010010C1010010C101001067
:10015000C1010010C1010010C1010010C101001057
:10016000C1010010C1010010C1010010C101001047
:10017000C1010010C1010010C1010010C101001037
:10018000C1010010C1010010C1010010C101001027
:10019000C1010010C1010010C1010010C101001017
:1001A000C1010010C1010010C1010010C101001007
:1001B000C1010010C1010010C1010010C1010010F7
:1001C000EFF30580103800BE00BE00BE00BE00BECA
:1001D00000BE00BEF2EB8871704000109840001025
:1001E0003802001090A31AE700201E49086006C8D4
:1001F00081F3088810471C480068002801D00020BF
:10020000F3E70DA40ECC002902D000F012F8F9E7B4
:100210001649174A002000E001C19142FCD115495E
:100220008847154988471549884700BEFDE701C939
:1002300001C29A42FBD3704798400010C0000020D2
:1002400090020020684200100000042000000420FA
:10025000684200100010042000100420000000007C
:100260007047000008ED00E0000000D09002002080
:1002700074080020B536001081020010AD36001061
:10028000F0B54E46DE4657464546E0B58FB003F022
:1002900037FB7A4B7A4E9A461C68002304930993E5
:1002A000089307930693774B0A93774B9946774BBE
:1002B0000D934B460B93049BB346994602239846F5
:1002C00042465E1E02961F001E00D51A0395390095
:1002D00002980D0001F034F928000029F9D1039BA0
:1002E000DB19584301378144212FF0D1330001330A
:1002F000212BE5D15E46002207200C916303634069
:10030000590C4B405C015C40030021001340D94074
:10031000B1540132802AF1D1079B3000DA438023A7
:100320009B4601275A4DB34403785A40082351088D
:100330003A4052422A40013B4A40002BF7D101305B
:100340008345F1D1D2430A9D07922800049A6F1C7D
:10035000511C0591FF3762036240540C6240540106
:1003600054400A00624004C5AF42F4D1FC210A9D0A
:100370006A50484A017801304A40110489184900FE
:100380008918C9008918C900891849008A18874244
:10039000F0D1089980205140089107218C460B9F8D
:1003A000049A390062448446934661443A00884680
:1003B0005846610361404C0C61404C014C400100C7
:1003C000614002C7B845F4D151460C600B999C4678
:1003D0000F00012090460B00010002906046BB46D2
:1003E0007D68039004915A461268954233D259466B
:1003F0004A600422524294460499E344013904912C
:100400000029F0D1039A0021944602988900013016
:100410005D5004372028DFD11D21424663468C46BB
:100420000C996046C34101CA081801314340202994
:10043000F7D1069AA3314A440692099A0598944640
:100440009C446346FF31099301F0A2F8002907D0CC
:10045000059B04932FE7039A029894460499D5E7E5
:10046000099B069A0193089B059900930D98079B99
:1004700003F0D8FA53461C68EAE7C046E0010020C2
:1004800044050020CC050020E8070020083D0010AE
:100490002083B8EDC59D1C81094A83009A1810B5C8
:1004A00014684022544080322240064CC000A446CA
:1004B00063441A60044B9C466044416010BDC046D2
:1004C00004C0014004D00140004001400FB400B519
:1004D000084883B003F028FA049B002B07D005A935
:1004E0001800019103F0C6F8034803F01DFA01203B
:1004F00003F0D8F8483D0010D03D001070B5EFF380
:10050000108C72B60D4D2B68002BFCD0BFF35F8FA3
:100510000724CB08C618C05C01230C40A3401C0074
:100520000440034207D118433070BFF35F8F2C6043
:100530008CF3108870BD1000FFF7C8FF2C0100D0AD
:10054000044A1078431CDBB2172B00D91023137018
:100550007047C046E40100200021044B044ABFF369
:100560005F8F02C39342FAD17047C046000100D0AA
:10057000800100D0054B064A1360064A13605360A1
:100580009360D36013615361936170478080808072
:1005900000E400E004E400E01F2318401E3B834019
:1005A000002905D0C021044A490053501360704708
:1005B000802201498B50FAE700E100E010B5EFF32B
:1005C000108C72B60F4A1368002BFCD0BFF35F8FFC
:1005D0000D4B10309B6880001B580C4A934201D091
:1005E00099420CD1084B9B681950BFF35F8FBFF342
:1005F0005F8F0022034B1A608CF3108810BD00F04F
:10060000A9FEC046240100D000ED00E0C1010010A9
:10061000F0B5DE4657464E464546E0B583B0EFF3AB
:10062000108C72B6624A1368002BFCD0BFF35F8F48
:10063000604B9A68030010339E0094595E4A9146BD
:1006400094423DD08C424ED05C4D621B2F2A37D84D
:100650005B4A1768904601229246824017401F224B
:1006600002405046BB469040474680220190B85019
:10067000BFF35F8FEFF305829046002A35D0934297
:1006800000D093E0220053469A439768B94208D1BC
:100690007AE043001B189B00EB189F68B94236D0E4
:1006A0001A00062010560028F3DAB94258D05B46EB
:1006B000002B27D0C022424B01995200995019605B
:1006C0003C4B9B689C51BFF35F8FBFF35F8F002251
:1006D000374B1A608CF3108803B0F0BCBB46B246AF
:1006E000A946A046F0BD1400EAE7220053469A430B
:1006F0009768B942D5D106215156130000290ADA6C
:100700004C4635E080232E4A0199D150D8E7062186
:100710005956002925DB4A005718BF00E8198146C1
:10072000806898604846C079D8714846807940B260
:100730009871002826DB48468088400500153F1840
:10074000E81A804647441F483F057F0D07439F80B6
:1007500053181D4A9B00EB18157811709D71A6E780
:1007600013004146002914D1FF319171174991803E
:1007700015490A789A71164A5B1B5B415A43120D60
:100780000A7094E7114FE2E7062151561300002941
:10079000C1DA104A1049D21A083A55026D0D2943A0
:1007A00099800E4952080A43DA8080E700F0D2FDB2
:1007B000240100D000ED00E0C1010010E80100209C
:1007C00000E100E000E0FFFF7008002001BDFFFF36
:1007D000AAAA00002202002000F0FFFF00F8FFFF9D
:1007E000F0B5C646012600B50643EFF30584EFF3E6
:1007F000108C72B61C4A1368002BFCD0BFF35F8FBD
:100800001A4FA400BB681A4D1B590200984619499B
:100810000023521B52415143090D2A0049B2B045F1
:1008200015D0062414578C4215D001330C32042BFA
:10083000F7D1114B1A7819708271BFF35F8F0022C4
:10084000094B1A608CF3108880BCB846F0BDBB68B9
:100850000A4A1A51EDE75A00D3189B00ED18FF23FE
:10086000AB71074BAB80E4E7240100D000ED00E062
:10087000E8010020AAAA000070080020C1010010B1
:1008800001BDFFFF024B9C46614489000160704737
:100890004000003470B5114C114DAC421CD2FF2603
:1008A0000BE0FFF74DFE01002000FFF7EBFFA680F5
:1008B000BFF35F8F0834AC420ED22368002BF0D117
:1008C000FFF73EFE01002000FFF7DCFF2671BFF3BB
:1008D0005F8F0834AC42F0D370BDC0468802002060
:1008E000900200200A4B1968EFF3108072B60A6874
:1008F000002AFCD0BFF35F8F1B68BFF35F8F00221D
:100900001A6080F3108840BF002000217047C04665
:10091000E4070020F0B5DE4657464E464546E0B5B2
:1009200087B0EFF30583032201251A40954091001B
:100930008B46B24B03925C58B14B02951D60B14B94
:100940000493029BB04843630823E55E002D38DA28
:10095000A3881BB2002B00DBAEE0A379002B00D0F4
:10096000EFE00823E55E002D21DB6B005B19626977
:10097000DB00D3189E68DD68731C01D16B1C0ED0A0
:10098000A14801005944826A0B69B71A9B1A9F4219
:1009900015D30123026A039883401A420FD09A4864
:1009A00000F0BCFA8D4202DCCBD18642C9D940BFEF
:1009B00007B0F0BCBB46B246A946A046F0BD0E61EA
:1009C000EDE762696B0090465B19DB009844434693
:1009D0009E68DF6800F0A2FA8F42B9DC00D1FFE028
:1009E000002F00DAE4E04246434652691B69914613
:1009F000049A934200D1D5E042460821605E5288B5
:100A00000004494610439847009001910099019ACB
:100A10000B001000134300D1CAE013000A00B61AFD
:100A20009F41002806DB784800F078FA009E019F7D
:100A300036184F4143469E60DF6000229A5E002ACE
:100A400000DA85E7530099186069C90041189A4691
:100A50008B68C9689946B94200DD79E702D1B34293
:100A600000D975E708239C46A44405956546228174
:100A7000A44653462C0006E053009918C9004118BB
:100A80008D68C968A9469B18DB00C318B94206DC0B
:100A900000D1AFE01C000023E25E002AECDA230064
:100AA00064469C4643461A806346059D1D80A38884
:100AB0001BB2002B00DA50E72269EFF3108172B607
:100AC0001368002BFCD0BFF35F8F0123A7885B4224
:100AD000A3803FB22369BFF35F8F00221A6081F3C6
:100AE0001088002F00DA38E72300083322009846E8
:100AF00066697B00DB19DB00F318996840468C4679
:100B00000824115F9A46DD68002907DA0EE0AB423F
:100B100044D00023E15E2000002906DB4C0064186D
:100B2000E4003419E368AB42F1DD5346078000204E
:100B30001F5E1980002FDCDA1400A379002B00D18E
:100B40000FE70023A37127000823E15E08374B1C41
:100B500000D12CE70D00A046666902E007004B1C9F
:100B60001AD04B005B18DB00F0180A008C46F15ECF
:100B700043881BB2002BF1DA01235B42DC17836050
:100B8000C460AA4205D0434639801B89038043468E
:100B90001A8165464B1CE4D14446E4E6A3686345EC
:100BA000B7D9C2E74B4648461B69984700281BD176
:100BB00043461B8822692381EFF3108372B61168C4
:100BC0000029FCD0BFF35F8F414662880A8022690A
:100BD0006580BFF35F8F0021116083F31088B7E653
:100BE000864200D8FCE6B3E64B461A685B68009282
:100BF00001930BE7B14500D84CE750E7D006002041
:100C00003C700540150900100040054070B51D4CB2
:100C10002369002B04D00A211B48FFF733FE70BD67
:100C20001A4D0321280000F06FF9E560FFF788FCFA
:100C3000174B62699C4603232370D0231B061B6855
:100C400060446370134B8000A36001235B42A38068
:100C500010336380104B2061138001339BB2183234
:100C60000F2BF9D10D4B0320DC600824074B0C49F6
:100C70001C62FFF7A3FC01210320FFF78DFC094B49
:100C80001C60C8E738020020E4070020004005404F
:100C900040000034FFFF1000FFFF0000D0060020DE
:100CA000150900103860054070B501000469EFF3C4
:100CB000108C72B620680028FCD0BFF35F8F022032
:100CC0000D5E4C6968004019C00024180869002DA9
:100CD00036DB26884E80BFF35F8F002606608CF3DC
:100CE0001088E36063880498013320615B040598F1
:100CF0005B0CA26060611A1C002B1FD093B2280409
:100D0000628018430A69EFF3108C72B61368002BE7
:100D1000FCD0BFF35F8F8B8823808D800B69BFF37E
:100D20005F8F00221A608CF310880B7801329A4092
:100D3000CB6808498C4663441A6070BD0122DDE728
:100D4000BFF35F8F002303608CF3108801204042C3
:100D5000F3E7C0463C20000010B543890A149342D3
:100D60001ADD53009B184269DB00D3180469EFF3C6
:100D7000108C72B62268002AFCD0BFF35F8F5A88AD
:100D8000090494B2090C8A4208D00369BFF35F8F4B
:100D900000221A608CF31088002010BD80221202FD
:100DA00014435C80012302698371BFF35F8F0021CC
:100DB00011608CF31088044902788C469340C26815
:100DC000012062441360E8E73C200000F0B545468E
:100DD000DE4657464E46E0B504000D0085B0EFF301
:100DE00005838946002B37D1434B9A461B688342C3
:100DF0002DD0424B9B46DB6898465B461B784046AD
:100E0000039300F08BF84246039B060004339B00DB
:100E10009B580F001B1A290020000022801BB9419B
:100E20008A4228DC25D020BF354B586A48452ED34E
:100E3000401B9A6A431E98410023A2425B4118431B
:100E400005B0F0BCBB46B246A946A046F0BD53462D
:100E50005B688B42CDD1E6E7294900204B6AAB4263
:100E6000EED38A6A5B1B591E8B41A2424041184354
:100E7000E6E78342D7D900F059F822002B00121A76
:100E80008B41002B05DA1E4A536A4B452AD20020BB
:100E9000D6E7002301931B4B2200009358462B00FA
:100EA000FFF702FF011EEEDD53461C605D60144B30
:100EB0005A6A4A4514D39B6AA3420FD35846FFF798
:100EC0004BFF0F4A0020536A4B45B9D3926A5B1B14
:100ED000591E8B41A24240411843B1E74A45EDD12A
:100EE00020BFEBE70020926A5B1BA24240415A1EE2
:100EF00093411843A4E7C046300200203802002086
:100F000000400540E508001010B5024A0248FFF70E
:100F1000F5FA10BD583D0010180500200300416A85
:100F20000A00986A596A8A42FAD17047034B596A93
:100F30000A00986A596A9142FAD170470040054008
:100F400070B504000D00174A536A1900966A536A77
:100F50008B42FAD13000190024184D41AB4216D80B
:100F600013D0104A2B00526A954203D90D494A6AA0
:100F70009A42FCD39A4207D10A4A02E0516A994246
:100F800002D1916AA142F9D370BDA642E9D9054BBD
:100F90005B6A1C005A1CEFD0012301246442E51750
:100FA0005B42E3E700400540F8B5040006200D0071
:100FB00000F028F92900C00000F0EAFA0130C30966
:100FC00021D01F4A934233D900231E4A1E4F62622A
:100FD000A362256BEB071DD51C4B1D4AE3181A6055
:100FE000666AA36A0620B601F61800F00BF91949E3
:100FF00000F0CEFAB6020100300000F0C9FA00217C
:10100000FFF79EFF06E0402701226262A362256B84
:10101000EB07E1D40022E36A0F4B0620E3181A60C5
:10102000256300F0EFF83900800000F0B1FAF8BD58
:101030004006800E9F011A003F180300E5E7C046F6
:10104000FEFF0000FFFF0000C0FF3F003030000047
:10105000010300004E0E00002C10000070B50400CB
:1010600006200D0000F0CEF800282CD0164B1749B2
:10107000E3185A1E93418022120494465B429B0D52
:10108000134A9B0563441360124A136018000A68F0
:101090009043FBD10C4B104AE31859424B4180213D
:1010A0005B004900995220002900FFF77DFF702363
:1010B000E26A5A400E331340084AA2181360084BE4
:1010C00023630323A36470BD0080FCBF08C00040FD
:1010D00000E0004000F00040680800202C100000F4
:1010E00001030000F0B5DE4657464646C0B51F0076
:1010F000334B44009C462418A400644416006368E3
:10110000089A8B46934200D26260031FDBB2984676
:10111000012B2FD9C02380229B01E31812011A60F2
:10112000284B850059599A4600291AD17301E026A7
:10113000226853401E40802342465B01E3181E6034
:10114000012A2FD9802380229B01E31812011A6003
:10115000089B636053465F51E0BCBB46B246A8465D
:10116000F0BD586900F014FA013043001B18033B2E
:10117000FDD2DBE75B46012BCCD1C02303229B01D0
:10118000E3181A60023AA3681A42FCD07301E02601
:101190002268850053401E4080230A4A5B01924624
:1011A000E3181E605A462168514003220A401A6023
:1011B00001235A469340A2681342FCD0C2E7C046BE
:1011C000008000401C050020F0B583B005000E0033
:1011D00018000899170000F0DBF9089A03001402C0
:1011E00031003A0028000094FFF77CFF03B0F0BD07
:1011F00010B5802482B064000094FFF773FF02B042
:1012000010BDC046014B8000C05870471C0500202F
:10121000F8B5040021481E0017000D0000F0B8F9D1
:101220000100380000F0B4F9069B36041B031E438E
:101230002368002B20DB1A4B1A49E3185A1E9341EE
:101240008022920194465B421B0B174A1B036344A6
:101250001360164A13601F000A689743FBD1144BB2
:101260002560E2182123A06013602368002BFCDABC
:101270000823E6601360F8BD3F2322681340AB42A9
:10128000D9D1A3681B051B0D8342D4D1EE22E3689C
:10129000D2021340B342CED1EDE7C046001BB700E7
:1012A0000040FDBF08C0004000E0004000F00040EA
:1012B000043000008023024A9B000B43D362704736
:1012C00000800540002310B50100988A1B8B9847C9
:1012D00010BDC046162310B50100188802331B88C4
:1012E000984710BDF8B54746CE4680B50F1E18D0BA
:1012F00014239946043304000025012698464B46E2
:101300001888434621681B88984701C4431E9841AA
:1013100001350640AF42F2D13000C0BCB946B046FC
:10132000F8BD0126F8E7C046AA23064A1B01136050
:101330008D235B00D3600449044B19605368002B74
:10134000FCDA70470040024000B0FA000060024042
:101350007047C04610B50148FFF7B8F87C3D001053
:1013600070B5074D074EB54209D20024013E761BE9
:10137000B60808CD984723000134B342F9D170BDB7
:10138000C83C0010043D0010054B064A06491A608F
:10139000064A074B1A6010000B689843FBD1704750
:1013A00000E00040BFCDFBFE08C00040FE7F3C00D7
:1013B00000F00040044BDB6C002B03D18022034B78
:1013C000D2021A607047C046000011504C201150E4
:1013D000044A054B1A60054A1368DB018033FBD1D0
:1013E0007047C046FFFFFF0100F0004008C000400A
:1013F0004022034B9A675A671A67DA667047C046FD
:1014000000F0014010B5FFF7A7F810BD70B50D4909
:101410000D4C0E4D641AA4082200302C00D9302245
:101420002800920000F00AFF2F2C07D82A00A30002
:101430000749EB18C03202C39342FCD1054B9D60B3
:1014400070BDC04600010010C00100100000002067
:10145000C101001000ED00E0002310B5294C82B05E
:10146000A367FFF761FF0122274B1A60636C012B12
:10147000FCD10322254B1A60224A936B012BFCD12D
:10148000013300930121224A22480433FFF7C0FEB2
:10149000052301210093204A2048FFF7B9FE0022CE
:1014A000022104201E4BFFF7A3FE0022012105208C
:1014B0001C4BFFF79DFE0022002107201A4BFFF76F
:1014C00097FE002200210820174BFFF791FE802392
:1014D000DB000093002200210920134BFFF774FE6C
:1014E0000022104B00210620FFF782FE0420FFF7A8
:1014F00089FE0E4900F04CF801000020FFF7DAFEEB
:1015000002B010BD008000403CB0004030B0004050
:10151000002F685900800240008C864700C00240BE
:10152000001BB70040597307006CDC0240420F00FB
:1015300001480421014B184750020020E512001019
:10154000124A936F9B0815D29066D166002905D088
:10155000FFE7FFE7FFE7516F106F704704B5802189
:101560000906C2175140002800D0C84302F0A4FB6E
:10157000002104BDF0B5146E556E576F166FFFF75E
:10158000E3FF1466556657671667F0BD000000D08C
:10159000114A936F9B0813D210665166002905D03B
:1015A000FFE7FFE7FFE7516F106F704704B50028B2
:1015B00001D00020C04302F07FFB002104BDC046E3
:1015C000F0B5146E556E576F166FFFF7E5FF146692
:1015D000556657671667F0BD000000D094464A4A2A
:1015E000926F9208624601D228E0C046F0B5464E9E
:1015F000346E756E776F366F00F020F89446424A6D
:1016000014665566576716676246F0BD94463E4AB3
:10161000926F9208624601D254E0C046F0B53A4E4D
:10162000346E756E776F366F00F04CF89446364A1C
:1016300014665566576716676246F0BD002B24DBBB
:1016400011D000293EDA00B5C943404200D1013132
:1016500000F038F8C943404200D10131DB43524227
:1016600000D1013300BD002AEBD1002801D10029AF
:1016700005D00020C90FC90701D1C043410800B5FA
:1016800002F002FB0022002300BD00B500290ADBA6
:10169000DB43524200D1013300F014F8C943404209
:1016A00000D1013100BDC943404200D10131DB43CB
:1016B000524200D1013300F005F8DB43524200D121
:1016C000013300BD002923D1002B18D1002A0CD0F2
:1016D000BC460D4F38667A6600210023FFE7FFE71E
:1016E000FFE77A6F386F67467047002801D00748D8
:1016F000010000B502F0C8FA0022002300BD02007C
:101700000B00002000217047000000D0FFFFFFFF0A
:10171000002B00D0BFE0130C28D1002AE7D080B402
:10172000114F39667A66FFE7FFE730B4040C7B6F30
:10173000396F1B0423433B667A66FFE7FFE7FFE749
:10174000C04684B27B6F3D6F1B0423433B667A66C1
:10175000FFE7FFE7C04600232C042D0C7A6F386F9B
:1017600000196941B0BC7047000000D0F0B5944644
:101770000025140E01D112020835140F01D11201F7
:101780000435940F01D192000235D40F01D15200DB
:101790000135D40B0134254F7C66254C3C660E0C7C
:1017A00093B2FFE7FFE7FFE73C6F6643360C770332
:1017B000BE467343DF0B5B04C01AB941130C73437D
:1017C000DB18C91ACE086643360CB64493B273438D
:1017D0001F0F1B01C01AB941130C73431F0B1B05CC
:1017E000C01AB941860D8F023E436643360C092D5F
:1017F00024DB520A7243801A7703460A6643360C8A
:1018000016235B1BDE40DF40BF1964466643821B24
:101810007046043506330100D940A840C01900D3F2
:101820000131A24206D20023F0BD0000000000D02A
:10183000FFFFFFFF121B0130F3D3F1E709277F1BE6
:10184000FE406446A2B27243801A00D20139220CD3
:101850007243130C1204821A99410B00704604352E
:1018600013370100F940A840801900D30131002B43
:1018700002D1A2420AD2F0BD013000D30131121BC5
:10188000FAD2013BF8D1A24200D2F0BD013000D320
:101890000131121BF7E7F0B51C0C00D080E00CB44E
:1018A00000251C0A04D11B02160E33431202083510
:1018B0001C0B04D11B01160F3343120104359C0B82
:1018C00004D19B00960F334392000235DC0B02D10A
:1018D00092185B4101351C00971864410134464F52
:1018E0007C66464C3C660E0CFFE7FFE7FFE7C04610
:1018F0003C6F6643360C7703BE4697B27743C01BF6
:1019000000D20139C01B00D201399FB27743C91BF5
:10191000C91B170C77437E04FF0B801BB941CE080F
:101920006643360C0C2D33DBB644120B1F053A43CD
:101930001B0B97B27743C01B00D201399FB277438C
:10194000C91B170C77433E043F0C801BB941860D21
:101950008F023E43664329277F1BFE400C3D77469E
:10196000AF40BF1930BCA2B2ABB272437343801A0E
:101970009941220C7243130C1204801A99410200FF
:101980000B000137001BA941F9D2781E0021F0BDE0
:101990000C277F1BFE4077467F0BAF40FF19E0E727
:1019A00000245D1C07D0144F7D663966FFE7FFE712
:1019B000FFE7FFE73C6F95B29EB265436643401B6D
:1019C000B141150C1E0C6543664336042F0C3E4393
:1019D0002D04401BB141994204D202000B002000AB
:1019E0000021F0BD01D19042F7D3801A9941013412
:1019F0009942F2D3F6E70000000000D0FFFFFFFF9E
:101A000048404140484018B41B4B5B68FC4601937A
:101A100008BD04DF771C001018B4174B1B68FC4688
:101A2000019308BD00DF811C00109446134A926F99
:101A3000920809D2624618B40F4BDB68FC4601934A
:101A400008BD0CDF391F00100C4AF0B5146E556E3E
:101A5000576F166F6246FFF7EEFF084A1466556629
:101A600057671667F0BD18B4034B9B68FC4601939B
:101A700008BD08DFDD1D001010040020000000D0AC
:101A8000FFB550404240504059404B40594000E063
:101A9000FFB5154F4C00640D03D0BC4204D10C03BC
:101AA00014D80020090D09055C00640D03D0BC4268
:101AB00004D11C030AD800221B0D1B0501264B4034
:101AC00009D44B4003D58B4200D18242FFBD9942DD
:101AD000FCD19042FFBD0B43DB1803431343F5D009
:101AE000C9434918FFBD0000FF07000000B5FFF71C
:101AF000CFFF804100BDC04600B5FFF7C9FF01D947
:101B0000002000BD012000BD00B5FFF7B9FF01D9DD
:101B1000002000BD012000BD00B5FFF7B1FF8041EE
:101B200000BD012040054A00121804D85A001218BE
:101B300001D80020704701207047000000210028D4
:101B400005D17047C1174840401AFAD0C90713B5EC
:101B5000064B1B6898470CBC441CA2401005120B96
:101B60000349091B09051943114310BDE006002074
:101B70001F04000010B54C00620D8023D218DB005A
:101B8000D21A5B057E2A10DD9E3A13DACC170903C0
:101B9000490819435242D140640001341532202AC9
:101BA00005DAD0400843604310BD002010BD084650
:101BB000604310BDC80FC018013810BD18B4044BE5
:101BC0005B6AFC46019308BD24DFE9200010000099
:101BD00010040020132370B51C78012C19D014DDDB
:101BE0001248FFF777FB06001148FFF773FB114D12
:101BF00080223100280000F021FB022C13D00E4877
:101C0000FFF760FB0D4B186070BD0D4A094DAA64CB
:101C1000F5E7084D0A4A29002B00803104C38B42A6
:101C2000FCD1AA64EBE7064AAA64E8E75344000043
:101C300053460000100400204C330000E006002052
:101C4000451C001007B5604601880A0A0230DF2AE9
:101C5000FAD1C9B2820804D3028840880004104334
:101C600000E00068014A5050039007BD10040020B6
:101C70000FB403BC0CBCF0B50124E407634000E0E2
:101C8000F0B50C0DCF0F661E3605891B640503D316
:101C9000C943404200D30131640D03D0661CF60AEB
:101CA00007D0E41B00207F00791C89078912803C43
:101CB00024031D0DDF0F6E1E36059B1B6D0503D320
:101CC000DB43524200D301336D0D03D06E1CF60A84
:101CD00007D0ED1B00227F007B1C9B079B12803DE1
:101CE0002D032F1B661B58D4A446202E46DA20371E
:101CF0001400BC401D00BD40F24033412A4380180F
:101D00005941CB0F05D0C943C04300226442504122
:101D1000514162464D0D28D10D0D07D100281FD02D
:101D2000241940414941013A0D0DF9D0640006D310
:101D3000013000D30131002C01D140084000013AAC
:101D40000BD4941CE40A04D112051144DB07194496
:101D5000F0BDD907204B194300E0D9070020F0BDA2
:101D60000029DDD1002CDBD1F0BD0132C6074008CF
:101D7000CD0728434908002EE1D0D9E73C2E29DAC7
:101D8000203E40371400BC4000D00124F2401443F0
:101D90001A00BB401C43D317ACE7AC46202F08DA2F
:101DA00020360400B4400D00B540F84039412843C6
:101DB000A5E73C2F0CDA203F40360400B44000D0A9
:101DC0000124F84004430800B1400C43C117EAE77E
:101DD00010001900002494E70000F07FF0B50C0D0E
:101DE000661E3605891BE60A6405640D02D0651C73
:101DF000ED0A04D0002001210905803C2403A446FB
:101E00001C0D671E3F05DB1BE70A6405640D02D04D
:101E1000651CED0A04D0002201231B05803C24032D
:101E20007740644497B484B296B27443070C7E43FF
:101E3000150C6F4380B26843361802D301200004AA
:101E40003F183004350C00197D41844688B29AB29F
:101E500050430C0C62431F0C7C438EB27E4392199C
:101E600002D301263604A4191604170C361867414C
:101E700001BC81B29AB25143040C62431B0C5C4317
:101E800080B25843121802D3012000042418100411
:101E9000130C401863412D185E410020474106BCD9
:101EA00088B293B258430C0C6343120C544389B26A
:101EB00051435B1802D301210904641819041A0C58
:101EC000091862416D1856410020474118BCF902BB
:101ED000720D1143F0026A0D1043ED020A0D03D199
:101EE0006D1940414941013B124E9B1B7600B342A4
:101EF0000ED26D0007D3013000267141664635438E
:101F000001D1400840001B05C918E4072144F0BD79
:101F10000BDA013306D1013004D101314F0D01D06C
:101F20004908F2E7E1070020F0BD01363105002045
:101F3000EBE70000FF030000F0B51C0D671E3F0536
:101F4000DB1BE70A6405640D02D0661CF60A04D0A8
:101F5000002201231B05803C2403D0252D060026EA
:101F6000F6432E661E096E66CE0FF619B44649007A
:101F70004F0D02D07E1CF60A03D000200021403F06
:101F80003F033E1BB600B444013F7F05C91B49080F
:101F90002E6F013676089C02950D25437543ED138F
:101FA0007543AD1301356D10F603761B0CB4CC02EE
:101FB000450D2C43A2B2B3B25A43270C7B43350CD8
:101FC0006F43A4B26C431B1902D3012424043F19AC
:101FD0001C041D0CA4187D4124196D41009A91B276
:101FE000ACB26143170C7C432B0C5F4392B25A4353
:101FF000A41802D301221204BF182204230C521881
:102000007B41019C6C431B19520ED9010A434401C8
:10201000A01A81B2B2B2514303145A43360C73432F
:1020200087B27743D617D21900277E4136049B1911
:102030001704160C7F185E417316ED18F301002685
:1020400080337541A90F06D16400690AE8055B0A6F
:10205000184309D22FE00422944480337541A90A21
:10206000A8059B0A184326D3404149412404009AFD
:10207000019B0D005543641B4343E41A95B286B29D
:102080007543170C7E43030C5F4392B25A43B61854
:1020900002D301221204BF183204330C52197B41BF
:1020A00052429C41002C02D4002201305141400890
:1020B000CA071043490802B06246D7079210084B7E
:1020C000D218084B9A4203D212058918C919F0BDDB
:1020D0000020002A01DC3900F0BD01331905F5E7C5
:1020E000FD030000FE070000002200B5203200F0D2
:1020F00004F8080000BD000000220B150AD410B53A
:10210000944600F031F81414013400DA0021CB17A2
:10211000144C20470020002170476244343A0CD40C
:102120000C2A07DA04009140904052422032D440F9
:10213000214310BDD843D94310BD203207D40C46EB
:102140009440524220321141D040204310BD08003B
:10215000C917203203D452422032104110BD18005A
:10216000190010BD1B2100100A0DCC0F531E1B05BA
:10217000C91A520503D3C943404200D30131520D5D
:1021800003D0531CDB0A07D0121B00206400611C23
:1021900089078912803A1203014BD21A7047000056
:1021A000FF030000132310B510481C78FFF792F8C6
:1021B0000100012C0AD003DD80220D4800F03EF81A
:1021C0000C48FFF77FF80C4B186010BD084C5422E8
:1021D000200000F033F823002100084A54338031F6
:1021E00004C38B42FCD12262E261E9E7534600005E
:1021F000E40600204C330000E0060020012200101D
:1022000007B5604601880A0A0230DF2AFAD1C9B24E
:10221000820804D3028840880004104300E000686C
:10222000014A5050039007BDE406002001480421F4
:10223000014B184760020020E5120010014B5B685B
:1022400018470000600200207047C046F8B55746A6
:10225000DE464E464546E0B599460A9B07009A463B
:102260000D9B884693460B9C9B073CD10C9B9C4244
:102270003ED20C9B0B941E1B15000C005E442A00E2
:102280004B46013521002020B847B542F7D1A04682
:102290000B9C002C20D0454636195346321B013C7E
:1022A000185D29004B46B847002CF6D12B003500AD
:1022B00098460D9B9B070FD55B46EC1A0C9BA342DF
:1022C0000AD9464698462A004B4631002020013460
:1022D000B84701354445F6D32800F0BCBB46B246AA
:1022E000A946A046F8BD16001500002CD3D1E0E7A2
:1022F00016001500002CCED1EEE7C046F0B54546DD
:10230000DE4657464E46E0B585B09C4610AB1B787E
:10231000149F934698460F9C129E139DBB074DD465
:10232000002D43D1B44249D201233B4099460E9B34
:10233000013B9A46302304E0524601341355A6422D
:1023400001D9202CF8D14B46002B00D185E00E9B03
:10235000013B99463023A54205D82FE04A46013477
:102360001355AC422AD0202CF8D1FB060DD57B05A5
:1023700055D4A64264D0A54262D0119B102B51D0F7
:10238000119B022B57D0202C32D1202301930E9B7E
:102390005A460093039763460295FFF757FF05B02F
:1023A000F0BCBB46B246A946A046F0BD01233B4067
:1023B000994601233B422AD1B442B8D3FB061CD52F
:1023C0007B05DAD4002CD4D1119B102B5DD0119B4E
:1023D000022B6DD0302301240E9A13704346002B3C
:1023E00010D17B073FD52B260E9A631C1655CDE7DF
:1023F0002300013430260E9AD654202CC5D04346F3
:10240000002BEED02D260E9A631C1655BEE74346D0
:10241000002B31D0013DB44200D288E797E7119BF1
:10242000102BB2D1BB0639D5202CAED058230E9A32
:1024300013550134A7E7202CA7D02300013408E06E
:10244000631E012CC0D0119A102A33D0119A022A8F
:10245000D0D162260E9AD65495E7FB06CDD57B05E2
:1024600000D486E789E723003E0700D48EE72026C4
:102470000E9A0133165589E70C233B405A1E9341AF
:10248000ED1AB44200D252E761E7BB060ED47823BE
:102490000E9A02241370302353709FE7202C00D132
:1024A00073E778230E9A135501346CE75823EFE74E
:1024B0006033EDE70E9AA61E91464E44BA0602D549
:1024C0005822327096E77822327093E7F0B557467B
:1024D0004546DE464E46E0B593B09B461CAB80CBEE
:1024E00080461B78894692461E9D0993002F07D18E
:1024F0001022219B00249343219A2193520524D436
:10250000219B61229B0639D4D3B202AA1F2694468E
:102510000A3B00246644089308E03033DBB2013400
:102520003355AF4211D3202C0FD0070029003800BB
:10253000FFF72EF8CBB20929EFD9089A0134944657
:102540006344DBB23355AF42EDD2219B5246069332
:10255000209B494605931F9B40460493099B039586
:1025600002930AAB009301945B46FFF7C7FE13B0DA
:10257000F0BCBB46B246A946A046F0BD4122C3E727
:10258000F0B55746DE464E464546E0B595B09B460B
:102590001E9B1F9D9A4620AB1B78229F0B93534690
:1025A000239E089009910A922B4307D11022269B63
:1025B00000249343269A2693520530D4269A612309
:1025C000920645D404A91F228C46624490460A22F2
:1025D00052429146DBB299443B00002457469A464A
:1025E0000CE043463032D2B201341A55AE4215D80F
:1025F000AE422FD0202C11D007000D0052463300E0
:1026000038002900FFF702F8D2B2092AE9D9434677
:102610004A44D2B201341A55AE42E9D95746269BF4
:102620000A9A0693259B09990593249B089804937D
:102630000B9B039702930CAB009301945B46FFF74F
:102640005DFE15B0F0BCBB46B246A946A046F0BD43
:102650004123B7E7BA45CDD95746E0E7F0B557462D
:102660004E46DE464546E0B593B01C9E1D9F824611
:1026700088469346994632003B0030003900FFF708
:1026800050FA002848D1012230003900CC4B524288
:10269000FFF742FA00283FD1012230003900C94B30
:1026A0005242FFF723FA002836D1002200233000DF
:1026B0003900FFF71BFA002800D0D3E106960797F0
:1026C000069807998023209ADB001A400F928022F7
:1026D000209D120115402A000D95209D0C000890A8
:1026E0001D4230D10B00034355D1002A00D00DE22A
:1026F00006331E930225209B209A1D40022313427D
:1027000000D005E21F9B042B00D207E2043B0D938F
:10271000002304240A93FDE0209B00960197049374
:102720001F9B03931E9B02934B465A4641465046BD
:1027300000F020FA0400200013B0F0BCBB46B24603
:10274000A946A046F0BD069A079B1900114324D163
:102750000D9B002BCED000230A931E9B0A9A0024C7
:10276000934200DDF3E10022002330003900FFF73F
:10277000BDF9002800D0B3E1209B934A02941A408F
:102780008023DB00134304931F9B0393069B079C4A
:1027900000930194C8E706231E938C4B60009C466F
:1027A000400D6044FFF7CEF9894A8A4BFFF75BF989
:1027B000894A8A4BFFF730F92403894B240B2343C2
:1027C0000A900B91002208981900864BFFF71BF91D
:1027D000854A864BFFF747F902000B000A980B99D0
:1027E000FFF71AF9FFF7C6F90A90FFF7ABF9804A2D
:1027F000804B04000D00FFF736F900227E4BFFF7F7
:102800000BF9FFF7B7F97D4A7D4B29000E902000A8
:10281000FFF729F904000E980D00FFF793F9794AA4
:10282000794BFFF720F902000B0020002900FFF789
:10283000EAF804000D0002000B0008940995FFF768
:1028400012F904000D000898099902000B00FFF727
:10285000E3F80022109011916C4B20002900FFF743
:10286000E4F800226A4BFFF7D7F802000B002000C3
:102870002900FFF7DAF80022664BFFF7CDF80200D7
:102880000B0020002900FFF7D0F8089A099B0D00E3
:1028900080210400C9050020FFF7B5F802000B00F5
:1028A00020002900FFF7B8F802000B0010981199DA
:1028B000FFF7BBF800224A4BFFF7AEF8564B0E9CD1
:1028C0009C46644423050022FFF7CDF8069A079B37
:1028D00004000D00FFF720F9002800D09EE00A9BBD
:1028E000089409956333C62B00D8A7E00223209DE6
:1028F00005241D400D9B002B00D0BBE01F9B052B2A
:1029000000D90DE106980799089A099BFFF78DF801
:10291000069007910022002330003900FFF7E6F807
:10292000294B209A134004930D9B03931E9B029303
:10293000002800D0F9E0069A079B414600920193D7
:1029400050464B465A4600F015F902002020209BC5
:10295000561C034059424B415B42184041464B468E
:102960004530D0470523059300230A9A03930A3381
:102970000293D30F01931300D2179B185340013CCD
:102980000494009332004B4641465046FFF79EFDAB
:102990000400002D00D1CEE65B46C51A1F9BAB425A
:1029A00000D8C8E65646474622004B46390020204C
:1029B000B0471F9B01350134AB42F5D8BBE6C0469A
:1029C000FFFFEF7FFFFFEFFFFFF7FFFF01FCFFFFC0
:1029D000FB799F501344D33FB3C8608B288AC63F0E
:1029E0000000F03F0000F83F61436F63A787D23FCC
:1029F00071A379094F930A400000E03F1655B5BB1B
:102A0000B16B0240EF39FAFE422EE63F00002C4047
:102A10000000244000001840FF0300000A9B002231
:102A2000013B0A9320004E4B2900FEF7FEFF0A9B54
:102A3000089009916333C62B00D957E70223209DE4
:102A400004241D400D9B002B14D11F9B042B04D983
:102A5000002D00D17EE0042402250A9B002B00D02B
:102A600050E757E780231B069C46BC446346069606
:102A7000079325E6089A099B1100194300D16CE6DB
:102A800006980799374A384BFFF73EF8002808D0D8
:102A9000069807990022354BFFF728F8002800D048
:102AA0005BE61E9B002B10D00F9B002B0DD01E9BB6
:102AB000013B1E9300230D931F9BA342CDD9002DF4
:102AC0003DD0002302250D93C7E700230D931F9BE4
:102AD000A342C2D9002D32D0002302250D93BCE7BA
:102AE0008020209B224A00061A40802384460294BC
:102AF000069C079D2900DB00134304931F9B614440
:102B0000220003930B00009201930DE605242AE6B0
:102B10000023042402250D930A93FBE60423F5E524
:102B2000002D0FD002250524ECE68020069E079F8D
:102B3000000639008446614432000B00FDE61B1B91
:102B40000D938AE71F9B0524053B0D93DAE69C1A3B
:102B5000013C08E61F9B0424043B0D937DE7C0461F
:102B6000000024402D431CEBE2361A3F80842E41A6
:102B7000FFF7FFFFF0B54E46DE4645465746E0B547
:102B800095B08B46904699461E9A1F9B0A90190055
:102B90001000209EFEF7C5FF002800D0A2E11E987D
:102BA0001F990122C64B5242FEF7A0FF002800D019
:102BB00006E11E981F990122C24B5242FEF7ACFF5C
:102BC000002800D0DCE01E981F990022BE4BFEF7C3
:102BD000A3FF002800D0BDE01E981F990022BB4B28
:102BE000FEF784FF002800D0B4E01E981F99002251
:102BF0000023FEF77BFF002800D0D6E000230B93D4
:102C0000229B5B0500D406260024302307E0172111
:102C100006AA013452181355013E202C01D0092E6A
:102C2000F5D81E981F99FEF7A5FFA94BF2009B1837
:102C30001A685B68050008920993FEF783FF02009B
:102C40000B001E981F99FEF7DEFE089A099BFEF7FF
:102C50000AFF06900791FEF7B1FF0700FEF76EFF2F
:102C600002000B0006980799FEF7CDFE0022994B53
:102C700006900791FEF750FF002800D1C9E0013708
:102C80003800FEF75BFF02000B0008980999FEF779
:102C900033FF002801D000270135002E00D197E036
:102CA00006AA1723944663449A46069511E05346B4
:102CB0000A21380001341D19FEF76AFC30312970F1
:102CC00038000A21013EFEF763FC092F00D8BDE061
:102CD0000700202CEBD1069D0CAB20249A4606ABB6
:102CE00017279C4667440EE028000A21FEF728FCBF
:102CF00001343031E619280031700A21FEF720FC3A
:102D0000051E00D192E0202CEED10323229A13401D
:102D1000012B18D1219B002B15D00B9B002B00D130
:102D2000AAE0219B013B2193202B0CD9302308E002
:102D3000172106AA521801341355219A944200D340
:102D400079E0202CF4D1229B01940393219B0293E0
:102D500053461FE0229B42460493219B594603930E
:102D60000A981E9B1F9C0296009301944B46FFF706
:102D700075FC15B0F0BCBB46B246A946A046F0BDF6
:102D8000229B5B070ED40322534B2299019203919D
:102D900021990291009342464B4659460A98FFF703
:102DA00055FAE6E704224D4BEFE71E9A1F9B0020E1
:102DB0000021FEF728FE01231E901F910B931FE7B1
:102DC000229B0393219B029304230193444BE1E74D
:102DD0002800FEF7B7FE02000B001E981F99FEF7B1
:102DE00012FE3C4B002206000F00FEF77FFE0CABEC
:102DF0009A46002800D072E7002230003900354B97
:102E0000FEF78AFE002800D069E7012301359D43C3
:102E100065E70022069807992E4BFEF767FE00280B
:102E200000D03AE7002F45D1013736E70323229A35
:102E30001340012B63D0202C00D184E70B9B002B87
:102E400027D02D235246135501347CE7069D202CB4
:102E500000D141E73023361905E0524601341355BD
:102E6000202C00D138E7B442F7D10CAB9A462E2380
:102E700052460134935532E70C23229A134239D03B
:102E8000219B013B21939C4200D24FE7202C00D193
:102E900059E7229B5B0704D52B2352461355013477
:102EA00051E7229B1B0700D44DE7202352461355C0
:102EB000013448E7FB0700D4EFE60137EDE6C046F2
:102EC000FFFFEFFFFFFFEF7F65CDCD4165CDCDC1AA
:102ED000004000100000E03FD43D0010CC3D001049
:102EE000DC3D0010229B0393219B0293032301935B
:102EF0000A4B4FE7219B9C4200D217E723E7219B17
:102F0000002B98D00B9B002BB6D0219B013B21932B
:102F10009C4200D20AE7202C93D114E7D83D001040
:102F200010B5002800D110BD00F0F0FCFBE7C04652
:102F30000B0010B5002802D049681B68984710BDE7
:102F4000F0B55746DE464E464546E0B597B01C0004
:102F5000209B17000B93CD4ACD4B83468A461A60BF
:102F6000002900D1C1E120780025002800D1C3E16B
:102F7000C84BB8469946C84B5F460D93D346CA46E0
:102F800008E02A00434659466E1CB84735002078B1
:102F9000002876D001342528F3D104239946023B3A
:102FA00000269C462078611C0300203BDBB2102BDE
:102FB00003D852469B00D3589F460300303B092B51
:102FC00038D9002399462A2800D19EE000230C938B
:102FD0002E2844D00200683AD2B2122A1CD80D9B87
:102FE00092009A58974601230C001E43DAE7634685
:102FF0000C001E43D6E74B460C001E43D2E71023BD
:103000000C001E43CEE708230C001E43CAE78022B3
:1030100060785200164301310C00672845D82428F7
:10302000AFD90200253AD2B2422AAAD89B499200CF
:103030008A58974600231A0000E0013193009B183C
:103040005B001A1808780C000300303B303A092B5B
:10305000F3D90023914601310C932E28BAD1802058
:10306000303B9C46C000064360780A0084446346B7
:10307000092B00D842E12A2800D159E10C00013186
:10308000A8E7DA462C00BB464746AF4200D87D1E73
:103090003B002A0051460020D847200017B0F0BC62
:1030A000BB46B246A946A046F0BD0200693AD2B27C
:1030B0000F2A00D965E70121794B91409C460B40CE
:1030C0000E936346194200D028E10A2A27D0072A26
:1030D00000D056E721220B9B3243994605920822E5
:1030E0000C9B0492039310234A4602930E9B59466D
:1030F000019308CA3800914600932A004346FFF71F
:10310000E5F94B4605000B9341E70B9B04CB914639
:10311000002A57DB60780B930C00013156E70B9BBC
:103120000C9904CB94461093002900D10BE163461F
:10313000187862466144002805D15FE25378013275
:10314000002B00D166E19142F8D16346CB1A0F9370
:1031500080223300D20013400B93164204D00F9A02
:103160000C9B9A4200D90F93B60700D48FE102233B
:103170000E9363462A005D1B4B4611932300A9461C
:103180005C460C9D9B4600E032000B9B002B04D05C
:103190006B1E002D00D150E11D0043462100561C3E
:1031A000B8474B46985D0028EED1119B99465B4687
:1031B000A3461C000E9B002B00D08BE1109B35001A
:1031C0000B93E4E6022216434A4652426078914647
:1031D0000C000B930131F9E660786C2800D11DE1F9
:1031E000802252001643013116E780229200607857
:1031F0001643013110E76078682800D114E180227D
:103200000131164308E7672800D1A1E0472800D123
:10321000FAE0452800D1FAE00B9A072107321300A3
:103220004A468B43190003920C9A049602920CC9E9
:103230003800009201930B912A0043465946FFF74C
:103240000DFA0500A3E6462800D17EE00B9A07217F
:10325000073213004A468B43190003920C9A0496D6
:1032600002920CC93800009201930B912A00434648
:103270005946FFF77FFC050089E62A004346594678
:1032800025206E1CB847350081E6C046412F00104E
:10329000CC060020643E0010A83E0010F43E001052
:1032A000419000006B1C0E930B9B04330C93B607EC
:1032B00000D4C9E00B9B2A00187859464346B8470A
:1032C0004B464D44012B00D85CE1A1465C460E9E66
:1032D00032004346013621002020B847B542F7D1DD
:1032E000A3464C460C9B0B9351E6D44B20789B464F
:1032F0000025002800D03BE60024C6E600218B0014
:103300005B185B0001321918107830390300303B2C
:10331000092BF4D90C911400511C5BE66F281BD0CB
:1033200000D850E11021782817D08E43063914E0D8
:103330000B9AA07808CA0234D943C9170B400C93E2
:103340000B92611C46E60139F1E6202216437DE727
:103350008022120116435FE70821720500D4CEE0F7
:103360000D229643320080201300800003409C46CB
:10337000024200D008E10B9B1E1DD00500D52CE1B8
:103380000B9B500600D5F5E0100600D442E11888EA
:103390004B4604930C9B05920393002302910193E7
:1033A00000902A00434659463800FFF78FF80B96E5
:1033B0000500ECE558283CD002216228CDD07205EA
:1033C00000D4D3E0112296433200910500D59AE053
:1033D0000B9B1E1DD10500D5E6E00B9B510600D5C9
:1033E000C1E0110600D404E10021595ECB17C818D2
:1033F000584080B24B4604930C9BC90F03930A2399
:10340000059202930191CBE78022120116432022FC
:10341000164301E76346D31A0F9399E6C022920040
:10342000A0781643E11CF7E5C022A0781643E11C02
:10343000F2E52022102116438FE7119B16009946D2
:103440005B46A3461C00B5E64B46012B00D893E033
:103450006B1E4B444A462E00A9465D46A3461C00FF
:103460000E930F9232004346013629002020B847C0
:10347000B442F7D10F9B5C46AB464D4699460B9B39
:10348000594618780E9A43464D44B8472AE70F9B91
:10349000994500D8D4E04B465E190F9BF61A634657
:1034A0000F9323005C469B462A00434601352100CA
:1034B0002020B847AE42F7D10F9B9C465B46A346FF
:1034C0001C004B4601330F9363461878002800D048
:1034D0004FE673E635000F9B994500D8ACE04A46AD
:1034E000A1465C465619F61A2A00434601352100CA
:1034F0002020B847AE42F7D1A3464C465EE60C22E8
:10350000964332002FE7082307209C460B9907318A
:1035100081438C44634603C90B934B4607930C9B32
:10352000089206930A22002304920593CB0F02937C
:10353000CB1712931393129A139B16004640180050
:1035400048401496159014981599801A99410200D4
:103550000B000092019359462A0043463800FFF7BA
:103560000FF8050013E51978080043E71022964389
:1035700032002AE718780BE70B9B2A001878594687
:103580004346B8470E9DADE64B4607930C9B072676
:10359000069300230B9808920730B04304910593DB
:1035A00002930CC80B90D4E719684B4604930C9B0C
:1035B000059203930A230293CB0F0193CB17C918EB
:1035C00059400091EDE61022330093431A00692818
:1035D00022D1710500D4F8E6F4E64B4604930C9B27
:1035E00005920393634601930B9B02911B68009322
:1035F000D7E61968CB17C8185840FBE6802233007D
:10360000D20013400F93164209D0B6071DD50023F0
:103610000F9360E71868BBE61E000A219DE60222B0
:10362000130033400B93324200D054E700230F9332
:103630004B46002B00D02EE72E00BFE5492200109C
:1036400001330F9300230E9393E50B92EEE7C046F0
:1036500010B50C0084B00394012402A902900093D9
:10366000034813006242FFF76BFC04B010BDC04674
:10367000312F001010B5094A0300146884B0002CE3
:1036800008D0012200910648524203A9A047012018
:1036900004B010BD00F048F90020F9E7CC06002086
:1036A000212F001000BEFDE77047C04610B5FFF7A0
:1036B000F9FFC04670B5FDF753FE074D074EB54202
:1036C00009D20024013E761BB60808CD9847230096
:1036D0000134B342F9D170BD043D0010043D001027
:1036E000030010B5080011001B68984710BDC046C4
:1036F000F8B557464E464546DE46E0B5437D804622
:103700000F001600002B48D0002300249946002A01
:103710002ADD244B9B464B1E9A4604E07B5D0A2B18
:1037200028D0A64212D025000134002DF6D13B78D6
:103730000A2BF6D143461B7D002BF2D143460221D2
:1037400058461B68A1469847A642ECD14E4505DD78
:103750004B46F11AF81843461B6898477B5D0D3BB2
:103760005A42534142461375F0BCBB46B246A94685
:10377000A046F8BD53465B5D0D2BD2D0A945DDDADE
:103780004B46E91AF81843461B68984743460221FE
:1037900058461B68A1469847D6E7036811003800D1
:1037A0009847E1E750400010F8B50B680D005A1C2F
:1037B000CB180A601871802A00D0F8BD0E4B1C6827
:1037C000002C15D00D4E0F1D02E02469002C0FD0E7
:1037D0002368002BF9D03368002B01D0A342F4D129
:1037E000200039002A68FFF783FF2469002CEFD1FD
:1037F00000232B60E1E7C046C4050020C805002077
:10380000F0B54546DE464E465746E0B585B0914692
:103810001C0080460D00FDF789FB0023254A121885
:103820004B41002B02DA0122234B5242234908006C
:103830008A4600F031FA01906B1C03D1404600F03B
:10384000F3F90500002C2FD01D4F1E4B1C68002CD7
:103850001FD00A231C4E9B4602E02469002C18D07E
:103860002368002BF9D03368002B01D0A342F4D198
:103870002A0041462000B8474B46002BEDD05A465F
:1038800002AB2000DA71D91D0122B8472469002C4F
:10389000E6D1019B002B09D1280005B0F0BCBB4646
:1038A000B246A946A046F0BD084FCEE7504600F00C
:1038B000FBF9F1E740420F00FFFFFF7F8802002085
:1038C000F1360010C4050020C8050020E1360010C4
:1038D0000A4A1368002B05D10CE01A001B6910324C
:1038E000002B07D08342F8D1002902D1186910605B
:1038F000196170470029FCD01060FAE7C405002068
:1039000010B500F069F9012010BDC04610B582B0B5
:103910006B4604000022D81D012101230470FFF72B
:103920006FFF200002B010BD70B5040000F07CF9FC
:1039300001230100050001222000FFF761FF064B73
:103940001C68002C06D06368002B00D098472469BF
:10395000002CF8D1280070BDC4050020F0B5CE467B
:10396000474680B5A3B004000D00FDF7DFFA002341
:10397000264A12184B41002B02DA0122244B5242F4
:10398000244E300000F088F9002322000193070044
:103990002B00214801A9FFF75BFE204B804699468A
:1039A0001C68019B002B1AD0002C2DD01C4D02E06E
:1039B0002469002C0FD02368002BF9D02B68002B32
:1039C00001D09C42F4D12000019A02A9FFF790FE99
:1039D0002469002CEFD14B461C6800230193002C76
:1039E00006D06368002B00D098472469002CF8D1DA
:1039F000002F05D1404623B0C0BCB946B046F0BD4B
:103A0000300000F051F9F5E70194F1E740420F0072
:103A1000FFFFFF7F88020020A9370010C4050020A7
:103A2000C80500200FB400B583B004A901C90191F5
:103A3000FFF794FF03B008BC04B01847F0B50029A5
:103A400015DD0E4B0D271A680D4B0E4CD3185D4239
:103A50006B41451820215B001E5F0478A64207D009
:103A600093691942FCD101301460A842F5D1F0BD30
:103A700093691942FCD11760F2E7C0466C08002038
:103A80000080FCBF68080020204B70B504000D1EAC
:103A90001E682ADD002010211D4B013C1A68936925
:103AA000194214D1013093691942FCD1136823548F
:103AB0008542F4D1002E08D050239363516B183BFC
:103AC0000B4014498C4662441360280070BD002EE0
:103AD00008D050239363516B183B0B400D498C4623
:103AE000624413600028F1D10CE0002E0AD050226D
:103AF000074B1B689A63596B183A0A4005498C4674
:103B000063441A6003204042E0E7C04610050020ED
:103B10006C08002034100000064B10B51B68002B09
:103B200006D00021044A12689163044A106898473D
:103B300010BDC046100500206C08002014050020B0
:103B40000822034B19688B691A42FCD17047C046A2
:103B50006C080020F8B51A4F1A4B3A680500D318C4
:103B600058424341184E14331C003368002D02D0D4
:103B7000002B0FD0F8BD002BFCD000212000956356
:103B8000FCF70AFD20001149FCF742FD104B35609F
:103B90001D60EFE70E4B200019600C493560FCF703
:103BA0000DFD01212000FCF7F7FC50223B689A63D1
:103BB000596B183A0A4007498C4663441A60D9E7A2
:103BC0006C0800200080FCBF10050020193B00108D
:103BD00014050020341000000D4B10B51B780D4B60
:103BE0000D4C1B780D4B02211B780D4B00202360E0
:103BF000FCF752FC02210120FCF74EFCE121206879
:103C00004902FDF72BFA01210648FFF761FE10BDBE
:103C100094400010904000106C0800208C40001070
:103C2000004003407002002010B583070AD0030053
:103C3000032102E001330B4205D01A78002AF9D1A2
:103C4000181A10BD030019680C4A0D4C8A188A43D3
:103C500022420FD15968094A04338A188A43224202
:103C600008D15968054A04338A188A432242F1D0A0
:103C700000E001331A78002AFBD1E1E7FFFEFEFEE7
:103C8000808080800000000001B40248844601BCAE
:103C9000604700BFCD01002001B40248844601BC4A
:103CA000604700BF7101002001B40248844601BC96
:103CB000604700BFA501002001B40248844601BC52
:103CC000604700BFCD01002089130010B51300101C
:103CD000311500102D220010D51B0010A521001059
:103CE00059140010D1130010F11300100514001026
:103CF000950800100D1400100D0C00105113001049
:043D00007505001035
:103D0800697465723D256C752061726974683D300F
:103D1800782530386C78206372633D3078253038E8
:103D28006C7820686173683D30782530386C78206D
:103D3800736F72743D30782530386C780A00000053
:103D48000A2A2A2A2050414E4943202A2A2A0A00B0
:103D5800486172647761726520616C61726D2025BB
:103D68006420616C726561647920636C61696D655A
:103D780064000000486172642061737365727400A6
:103D880052656C6561736500626F6F74325F77327C
:103D98003571303830000000322E332E30000000EC
:103DA8007069636F000000006370755F62656E6321
:103DB800686D61726B0000004175672031312032F7
:103DC80030323600666E692B00000000666E6900AE
:103DD8006E616E00666E692D0000000055415254F8
:103DE80020737464696E00005541525420737464E2
:103DF8006F7574005541525420737464696E202F96
:103E0800207374646F75740006005250D3F07542C5
:103E1800883D001006005250E182887F903D0010D6
:103E280006005250ABB36053A03D0010060052503C
:103E3800BBFF3CB6A83D001006005250861C03028A
:103E4800B03D0010060052505422A29DC03D001003
:103E580005005250DE65F468684200100630001014
:103E6800BA2F0010BA2F0010FE2F0010BA2F001022
:103E7800BA2F0010BA2F0010BA2F0010BA2F001056
:103E8800BA2F0010BA2F0010F62F0010BA2F00100A
:103E9800EE2F0010BA2F0010BA2F0010E62F0010D6
:103EA800F631001018300010EA31001018300010F8
:103EB800D8310010183000101830001018300010D9
:103EC800183000101830001018300010183000108A
:103ED8000E30001018300010183000101830001084
:103EE80018300010183000100E3000107A32001010
:103EF800822F0010822F0010822F0010822F0010B6
:103F0800822F0010822F0010822F0010822F0010A5
:103F1800822F0010822F0010822F0010822F001095
:103F2800822F0010822F0010822F0010822F001085
:103F3800822F0010822F0010822F0010822F001075
:103F4800822F0010822F0010822F0010822F001065
:103F5800822F0010822F0010822F0010822F001055
:103F6800822F0010822F0010822F001006320010BE
:103F78004632001006320010822F0010822F0010E7
:103F8800822F0010822F0010822F0010822F001025
:103F9800822F0010822F0010822F0010822F001015
:103FA800822F0010822F0010822F0010822F001005
:103FB800822F0010822F0010B4330010822F0010BF
:103FC800822F0010822F0010822F0010822F0010E5
:103FD800822F0010822F0010822F0010822F0010D5
:103FE800B4330010A4320010B433001006320010AD
:103FF8004632001006320010000000000000F03FBA
:1040080000000000000024400000000000005940AB
:104018000000000000408F40000000000088C340FE
:1040280000000000006AF8400000000080842E4173
:1040380000000000D01263410000000084D79741BF
:104048000000000065CDCD410D0A00000600525069
:1040580053B4F4A1FC3D00100800525012000000B7
:08406800080052509210000004
:10407000103E00101C3E0010283E0010343E001080
:10408000403E00104C3E0010583E001068400010AA
:084090006040001054400010D4
:1040980003000068EFF3108C72B60268002AFCD0A7
:1040A800BFF35F8F04229A56002A0BDB002900D049
:1040B8000A6000201B68BFF35F8F00221A608CF330
:1040C80010887047D0221206126801201A71F1E791
:1040D800F0B54F46D6464646C0B51F00D0231B064E
:1040E8001B6804009A460023904699460BE0BFF3EC
:1040F8005F8F4946116083F310884046390000F00D
:104108004FF800281AD12668EFF3108372B6356885
:10411800002DFCD0BFF35F8F257922687F2DE6D96B
:1041280051462171BFF35F8F0021116083F310881E
:104138000120E0BCBA46B146A846F0BD0020F8E729
:1041480070B582B001A9040016001D00FFF7A0FF9A
:10415800002807D1D0231B0601991B7849B25BB20E
:10416800994201D102B070BD32002B002000FFF748
:10417800AFFFF7E70268EFF3108172B61368002B00
:10418800FCD0BFF35F8FFF2303710368BFF35F8F1A
:1041980000221A6081F3108840BF70477047C046FC
:1041A80001B40248844601BC604700BFCD0D001031
:1041B80078563412100000000000000000000100D2
:1041C80000000000000000000000020000000000E5
:1041D80000000000000003000000000000000000D4
:1041E8000000FF000000000001B5486801318E465C
:1041F8000047704609380149884701BDE1070010AA
:10420800FFFFFFFFFFFFFF7F00000000000000002E
:1042180000000000000000000000000090020020E4
:10422800503300004C330000543300005233000078
:104238004D5300004D430000533400004334000048
:104248003D3A0010413B0010893A0010553B0010E0
:104258000000000000010000000000000000000055
:04000005100001E9FD
:00000001FF
