:020000042000DA
:100000006F00001A00000000000000006F0060197F
:100010000000000000000000000000006F00401819
:100020000000000000000000000000005D7106C03C
:1000300016C21AC41EC62AC82ECA32CC36CE3AD030
:100040003ED242D446D672D876DA7ADC7EDE73258A
:100050001034F3250030AAC0AEC2736651BEB2C4DC
:1000600073E540BE6341050273600430B7050020AC
:10007000AA9583A5050DE78005007370043073E52C
:1000800040BEE35305FE06459645264673101534DB
:1000900073900530731056BE824092422243B243A1
:1000A000D2456246F246025792572258B258425EF3
:1000B000D25E625FF25F732540BEE35005FA4245AF
:1000C0006161730020301300000013000000010084
:1000D000A4010020A4010020A4010020A40100200C
:1000E000A4010020A4010020A4010020A4010020FC
:1000F000A4010020A4010020A4010020A4010020EC
:10010000A4010020A4010020A4010020A4010020DB
:10011000A4010020A4010020A4010020A4010020CB
:10012000A4010020A4010020A4010020A4010020BB
:10013000A4010020A4010020A4010020A4010020AB
:10014000A4010020A4010020A4010020A40100209B
:10015000A4010020A4010020A4010020A40100208B
:10016000A4010020A4010020A4010020A40100207B
:10017000A4010020A4010020A4010020A40100206B
:10018000A4010020A4010020A4010020A40100205B
:10019000A4010020A4010020A4010020A40100204B
:1001A000029002900981029000000000000000000F
:1001B000000000000000000000000000000000003F
:1001C00006005250ABB3605388170020060052500F
:1001D000861C030298170020060052505422A29D4C
:1001E000A8170020F2EB8871DC170020F41700201C
:1001F0007802002090A31AE7D3DEFFFF420101112D
:100200004403000022020020002008200302000016
:1002100000000020FF06000000000000793512AB4E
:1002200009A09721000093816101172108001301A3
:1002300061DD170500001305F5DC731055307325DB
:1002400040F125E197150000938585601386418173
:1002500021A023A005009105E39DC5FEEF106013CA
:10026000B52AEF10A0120290FDBF884108C2910587
:100270001106E36CD6FE8280F4170020F4170020EC
:100280004C18002000000820000008200000082072
:1002900000100820001008200010082000000000B6
:1002A000828021651305C5DF028500000111B707B3
:1002B00000D022CC26CA4AC84EC606CE83A9070063
:1002C0002A842E89B28421A80F003003230007005E
:1002D00073A007304A85A685EF00D03231E51C4077
:1002E0007377043093963700B316D028F19B2FA66E
:1002F000D744758E6DFE0F0030038306440093775C
:1003000087001840E3D206FC230234010F003003BB
:100310002300070073A00730F2406244D2444249F0
:10032000B249054505618280F2406244D2444249A7
:10033000B2490145056182801C41F376043013986F
:10034000370033180029F19BAFA80745B3F808011F
:10035000E39C08FE0F0030030308450093F7860076
:100360001441634208020F0030032380060073A08B
:100370000730B70700D003870700814763140701E0
:100380003E85828025B7370600D010422302C50083
:100390000F0030032380060073A0073085473E8599
:1003A00082801C417377043093963700B316D028AF
:1003B000F19B2FA6D744758E6DFE0F003003FD57BD
:1003C0002302F5001C410F003003238007009377C0
:1003D000870073A00730332010008280411122C4AF
:1003E00026C26545370400D0B704000206C6292896
:1003F00004DC04CC13056009EF00700F13056009DD
:1004000004D0EF00D00EF5B7B316A028370700D000
:10041000B787034034C3910714D3B347F5209843FB
:100420008566BE96134707041377070C378602408C
:1004300098C23365C52015478D6658C1B697130716
:10044000001098C3828039713713002022CC2A848F
:100450001305836F06CE2ED232D436D63AD83EDA82
:1004600042DC46DEEF10A01E01CC4C1022852EC6C9
:10047000EF00706C3715002013058570EF10201DFC
:100480000545EF007070F37604303727002013071E
:10049000B79D1318370033180029719BAF28074503
:1004A000B3F80801E39C08FE0F00300313D73500B2
:1004B0003A950347050093F77500B317F028337892
:1004C000F700631108025D8F2300E5000F00300381
:1004D000B72700209387079DA3850700A18A73A0F3
:1004E000063082804111328506C6B13F3727002091
:1004F0000345C780DD469307150093F7F70F63F3B5
:10050000F600C1472306F7808280B7260020938635
:10051000069D8147130600020F0030033387F60063
:10052000230007008507E399C7FE828081463D4886
:100530001D459305400393F736008A073317F800EB
:1005400013D626004207518F733037BEB317F5001C
:10055000C207D18F73A037BE8506E39EB6FC8280AA
:100560009357550086073315A028C176E98E138767
:1005700017004205558F5D8D91C9733025BE7330CC
:1005800027BE732005BE732007BE8280733005BE70
:10059000733007BE8280411126C206C622C44AC0FB
:1005A000AE8473790430B72700209387979D139703
:1005B00037003317E028F19BAFA6E744F98EEDFE34
:1005C0000F003003F327503013054503F19BB34769
:1005D000F5209843B70700209387471A1314250086
:1005E0006306F7006384E500EF00F039F32750302D
:1005F000F19BA29784C30F0030030F003003B7278D
:1006000000209387079DA38407009377890073A038
:100610000730B24022449244024941018280B72708
:1006200000209387079DAE971CC18280011122CCC8
:1006300026CA37240020B724002006CE9307048161
:100640009384848163F897024AC84EC613040481D8
:10065000FD591309F00F1C409DC3493DAA85228511
:100660007D3F231224010F0030032104E36594FE33
:100670004249B249F2406244D24405618280BD35AC
:10068000AA852285693F230234010F00300321042B
:10069000E36394FCF1BFB726002083A786A373779A
:1006A0000430139637003316C028F19BAFA5C7441A
:1006B000F18DEDFD0F00300383A786A30F003003FB
:1006C000238007009377870073A007303320100042
:1006D0000145814582805D7186C6A2C4A6C2CAC09A
:1006E0004EDE52DC56DA5AD85ED662D466D26AD072
:1006F0006ECEF32750BE13970701634A073293D992
:10070000470093F7F91F898393F93900331A302989
:1007100037090B406398073437270020B3C73721C8
:10072000130787A1B3C7E72083AA07008D679387C4
:100730004704CA97B3C92921138B8A0023A0470114
:100740007D54FD54039D8A00232E490363520D08F6
:1007500083D74A009397576063DE071483C76A0004
:100760006396071E83968A0063C3060403A74A01A3
:10077000B3A6D620FD57B3E6E62083AB860003ACD4
:10078000C6006383FB2A0327890283A70901B38676
:10079000EB40998F63F4F60023A879014A85EF00B6
:1007A000C07B63C68501E31FBCF8E37D75F9332088
:1007B0001000B640264496440649F259625AD25A6D
:1007C000425BB25B225C925C025DF24D61618280B1
:1007D00083A74A01B32BAD214A85B3EBFB2003ACC1
:1007E000CB0083AC8B00EF004077E3C385F7630950
:1007F000BC1C634B0C1C03A70B01B707002093879D
:10080000676D83A54B016305F72483978A0003D5A1
:100810002B00C2075D8D02972E87AA8DB3E7ED00EE
:100820006384071A635B0720B386BC41B3BCDC005A
:10083000B307EC40B387974103970B0023A4DB0079
:1008400023A6FB00E34607F003A54A013328E7206F
:10085000131617003368A8208325C8008328880052
:10086000E3C8B7EE6394F500E3E416EF2394EA00DF
:1008700013888A0031A0832886004C46131617007F
:100880003A963366A62063CDB7006381F51E031741
:10089000060032883326E7203366A620E35D07FC96
:1008A0002390EB002310A80183D74A009397576049
:1008B000E3C607EA83A70A017377043093963700EB
:1008C000B316D028F19B2FA6D744758E6DFE0F006E
:1008D000300383D84A00FD572392FA00939858605A
:1008E00083A70A010F003003238007009377870056
:1008F00073A00730E3C408E603A54A0103978A0002
:1009000033A818213368A820032388000326C800D1
:10091000DA85635A070039A8638CC60E039707006F
:10092000BE8563490700B327E720B3E7A720D44774
:10093000E354D6FE23901501831808002310E80025
:10094000E3DE08FA83C76A00E38E07E023830A0028
:1009500003978A007D555A83E30BA7E483A84A01D5
:10096000B327E720BA86B3E7172103D62700BA8555
:100970003A881316566003970700634306023E83C6
:10098000E304A7DEB327E720B3E7172103D6270048
:10099000BA853A881316566003970700E35106FE9E
:1009A00080C7C4C7638AD5002310E30083D68A00BA
:1009B0002390D7002394BA00C286E315A7FC6DB339
:1009C000E36895D9E3590CE203D70B0083A70A012A
:1009D0002394EA007377043093963700B316D02837
:1009E000F19B2FA6D744758E6DFE0F00300383D682
:1009F0002A0083A70A012390DB002391AA010F009C
:100A00003003238007009377870073A0073089B3F2
:100A10009447E375D3F02390150183180800231041
:100A2000E800E3DD08EC39BFE31F7CD585BB054A50
:100A3000D287814937890B40C5B14A853AC6312BE7
:100A40003247B306B501B3B7A6002E97BA97EDB3F8
:100A50009C492E852EC6829725D9B24583AD0500C7
:100A6000D8416DBB854737890B407DB1E3F116E373
:100A700005BD011122CC371400201304447F1C480B
:100A800006CE91CB6244F24037250020130585A3A2
:100A9000A945056169B68D4537050B4026CA4AC888
:100AA0004EC652C45929370A0B408D4423264401AF
:100AB000353CB70700D0230094003727002003A857
:100AC00007001307079D5C482A97B706110018C84E
:100AD0007D56FD16BD450947A300040114C423112A
:100AE000B4002312C4002394E7042149114F954E0A
:100AF000194E1D43A5482948B546394785492D4516
:100B0000B14523909706239CE7072398D7092394A0
:100B1000C70B2390670C2398170F2394071123907A
:100B2000A712239CB7122398D7142394E716239077
:100B3000C70023983703239C270D239C0700B70584
:100B4000002023202A03B727002026859385656D82
:100B500023A287A28934CE8526851934B7270B4076
:100B60006244D244B249224AF24023A027054249B6
:100B700037250020130585A3A94505614DB4AA8733
:100B800008497378043093183500B3181029719907
:100B90002F23154533731301E31C03FE0F003003AD
:100BA0000393270083A84701137588003328632027
:100BB0003368182183A80701634B0308035E08000C
:100BC0002391C7010F0030032380080073200530F4
:100BD00083582800054E13150301F298C60893D8D0
:100BE0001801B3F8C80B232AE8002328D8002324CF
:100BF000B8002326C8002311180133651501984B4E
:100C0000F3760430131637003316C028719BAF25D6
:100C1000C744F18DEDFD0F00300303D64700984B1C
:100C20002310C800239267000F0030032300070041
:100C300013F786007320073003C70700DC47896677
:100C4000938646043317E028B69798C382800F0036
:100C5000300323800800732005307D5582800357C0
:100C6000A50093D7054163D8E7045449B3A7F720FB
:100C70001849B3E7D720F37604301316370033163C
:100C8000C028719B2F28C7443378C800E31C08FE96
:100C90000F00300303D62700B3C5050813F78600FD
:100CA000B3460608630BB6001C490F0030032380CF
:100CB000070073200730014582809396F628239120
:100CC000D70085472303F50014490F003003238024
:100CD0000600732007308346050058450966130651
:100CE0004604B316D02832973E8514C38280011182
:100CF00022CC26CA4EC6AA8406CE4AC8BD241307F3
:100D0000803E3384E402B7070080FD17B3B4E402E9
:100D1000B309A40033B48900AE94269463F4870029
:100D20003E84FD599384A9FF33B934019307F4FF3E
:100D30003E99636A240363068902052C3385A44027
:100D4000B305B940B3B7A4009D8D634AB002CDC9C5
:100D5000A2856244F240D24442494E85B2490561BF
:100D600031ACE3FC99FC1124814401493385A44052
:100D7000B305B940B3B7A4009D8DE35AB0FCF5228A
:100D80003385A44033B5A400B305B940898D63C150
:100D90000502B70600203715002093866669130503
:100DA000457F0147A6854A86D93BFD57E302F5FA00
:100DB000B7060B4037260020DC5263E72701985620
:100DC000E37897F8E316F9F8832786A3737704305E
:100DD00093953700B315B028F19B2FA5B7446D8DBF
:100DE0006DFD0F003003832786A30F00300323809F
:100DF00007009377870073A00730332000006DBF92
:100E000021D9B5BF411122C426C206C6AA842E84A8
:100E1000732750BE9317070163DA07044AC03719D6
:100E200000209307497F03C70700DC473347F720BB
:100E30009C57184BB306F5401D8F63EDE604332035
:100E40000000B7070B40D85301456369B70A9C57A8
:100E50000D8F024933B597003337E0001335150085
:100E6000598DB2402244924441018280B7070B4021
:100E7000D8530145E367B7FE9C57B240224433B5CF
:100E800097000D8F3337E000133515009244598DCC
:100E900041018280D9283385A44033B5A400B3052D
:100EA000B440898D63C20506B7060020A6859386E7
:100EB0006669014722861305497FD131AA856355AA
:100EC000A004B7070B40D853636A87049C5763E5B7
:100ED00097041305497F613337070B405C53014585
:100EE00063EE87001457818F3337F000B3B7960055
:100EF00093B7170002493365F700A5B7B240224403
:100F0000024992444101828037070B405C5363FAE7
:100F1000870002490145B1B7E31D87FA332000007D
:100F20004DBF1857818FB337F00033379700133711
:100F30001700024933E5E7002DB7B787F4BFAA973A
:100F40003725002093B717001305C5A337160020D7
:100F50003E951306C6706FF00FD34C51AA87885781
:100F60002E87CC53E31DB7FE8280B7070B40CC53CE
:100F700088572E87CC53E39DE5FE828037070B40D0
:100F80005C53E3EFB7FE639BF500B7070B4021A06E
:100F9000D8536395E5009857E36CA7FE8280000064
:100FA000B70701403327A5203347F7200328470020
:100FB000C1676373F8005CC31308C5FF854763F618
:100FC0000707372300201303039FB347652083A837
:100FD00007008D67BA97131EB02823A0C7010A0522
:100FE00063990802832807001606856733461601B1
:100FF0001376060EBA9790C3054663710607896794
:10100000BA971316B02890C31A95C16714C15CC370
:10101000828083274301B3D717038507B3A7F7203F
:101020009387E7FFE3DE07FE75BFE39CF5F88D6766
:10103000BA970D4823A007011C47858BF5DF0328CD
:10104000070016068567334606011376060EBA9723
:10105000372300200A0590C31303039F03280700CA
:101060003316B028B3C505018D898CC31C47F18F99
:10107000F5DF71B7B72700209387079F3345F52029
:1010800008418280B727B700938707B0B3D7B7026C
:1010900083280500C206320733E8E6003356F6021D
:1010A00063C40804B787054011676300F506B727D6
:1010B000024098C3B7060240B737024098C3A10662
:1010C0009C42B377F740EDFF0D670CC1110710C5C7
:1010D0002A97930710021CC31C41E3DF07FE232657
:1010E0000501A1471CC382801C4193F7F703E39BD2
:1010F000B7FA1C45D207D183E396C7FA5C45377728
:101100000700F98FE39007FB828021674DB7B7870F
:1011100010403325A5203345F5204CC185471CC11F
:101120008280A1679387A7DF83D7070085458287E1
:10113000B7170E409387878298437DDF0F003003F7
:101140008280B7170E403E871307C7829387C780F8
:101150000F00300323A007009107E39BE7FE828086
:101160008567938707AA378704401CC39307F0025B
:101170005CC7B7B6FA00B7A7044094C35C43E3DF8B
:1011800007FE828082803715002041111305057308
:1011900006C6EFF04FAB411122C426C2372400200F
:1011A000B724002006C6930784819384C48463F91E
:1011B0009700130484811C4011048297E36D94FE10
:1011C000B2402244924441018280B747EFEF9387B7
:1011D000F7B7B72602403707F4039CC25917B73751
:1011E0000240B706024098C3A1069C42B377F7407D
:1011F000EDFF8280B7071150F847A1676303F7003E
:101200008280B727115037070400F8C7828037075C
:1012100000207D17B7370240B706024098C3A106E9
:101220009C42B377F740EDFF8280156541111305AD
:10123000352506C6FD35B240AA870545410182879E
:101240006FF0AFAC411122C406C626C24AC03704B3
:101250000140232204082937B73701400547D8DF6A
:101260007C40E39FE7FE0D47B737014098DB05441C
:10127000370701401C5FE39F87FE37366859A28518
:10128000130606F00947954637050540E53B154727
:1012900037968647BA86A285130606C0378505406D
:1012A000D533B726B700938606B001468945114568
:1012B000C539B7D6F008A2859386061801461545AC
:1012C000C531B776DC02938606C0014681452145CB
:1012D000C139B776DC02938606C0014681452545B3
:1012E000C131B7D6F00893860618014681451945E5
:1012F0004539B7D6F00893860618014681451D4545
:1013000045311145853BB7E71B43938737E8B33435
:10131000F50201441949C9802285A6850504C53B0B
:10132000E31C24FFB24022449244024941018280DE
:1013300011E1828041A4B727002083A707A40111EF
:1013400006CE91CFAA86371500202E8713050533C8
:101350006C007D568297F240054505618280C52C60
:10136000F2400145056182800D45731025BE7D1553
:10137000E35D05FE05651305058073104530736058
:1013800004307310003482800290FDBF411106C604
:10139000E53F411122C426C206C637240020E53BA2
:1013A000B72400209307C4849384C48463F997000E
:1013B0001304C4841C4011048297E36D94FEB24070
:1013C00022449244410182801C412E85B28582874D
:1013D00083475501011126CA4EC652C406CEAA89BA
:1013E0002E8AB284E9C76358C00403C70500A94721
:1013F0006309F706054781476385E40422CC4AC8A0
:1014000056C213091A000544A94A03470900A286D7
:101410000504630657070509E39984FE62444249BF
:10142000924A63C09702269A8347FAFFCD1793B773
:101430001700238AF900F240D244B249224A0561DA
:10144000828003A709003305FA00B385F4400297B0
:10145000269A8347FAFFCD1793B71700238AF9001E
:10146000D9BF83474501D9F71C4137150020130523
:10147000857D894582978547E392F4F86DB70346E9
:10148000F9FF3547E309E6F8B385F6403305FA007E
:1014900063D5D70083A70900829783A70900371572
:1014A00000201305857D89458297A287ADB71C4131
:1014B000F240D244B2495285224AB2850561828700
:1014C000397122DC26DA4AD84ED606DEB28952D4E9
:1014D00056D25AD02A89AE843684413CB7470F0091
:1014E00093870724AA9733B5A700370700803306F0
:1014F000B5007D17BE856374C7003A86FD55B72ACF
:10150000002013850A81EFE03FE3FD572A8B638FAC
:10151000F40839C4371A0020130A0A3D03A40181D4
:101520001DC06394090419A0004811CC1C402686F4
:10153000CA852285F5DB83A7C18099C3E316F4FE33
:10154000029A004865F4631E0B04F250625442593B
:10155000B259225A925A025B2685D2542161828066
:10156000371A0020130A8A3C55BF5ECEA94B19A03A
:1015700000480DC41C402686CA852285F5DB83A75A
:10158000C18099C3E39687FE029A22859305F100F4
:101590000546A3077101029A004869FCF24BE30675
:1015A0000BFA13850A81EFE0DFDF45B74A85D520C6
:1015B000AA8485B7797126D206D622D44ECE52CCD3
:1015C000AA84A307A1005532B7470F0093870724C9
:1015D000AA9733B6A700370700802E967D17BE85E1
:1015E0006374C7003A86FD55372A002013050A8127
:1015F000EFE09FD403A40181AA8905C44AD019A0B1
:10160000004819CC1C4005469305F1002285EDDB0E
:1016100083A7C18099C3E315F4FE5D3B00487DF0CC
:101620000259639A0900B2502254F249624A26854F
:1016300092544561828013050A81EFE09FD6B25033
:101640002254F249624A26859254456182804111B2
:1016500006C622C426C22A842D28AA84854622854D
:10166000A6853686B13D03A4018111C45C4091CBAF
:101670008297004865FCB24022442685924441018D
:101680008280004865F4B24022442685924441019C
:101690008280937735002A879DEFB7867F7F938678
:1016A000F6F7FD5510431107B377D600B697D18FE3
:1016B000D58FE389B7FE8346C7FFB307A7408DCA1E
:1016C0008346D7FF9DC20345E7FF3335A0003E9513
:1016D00079158280F9D28347070005079376370092
:1016E000F5FB098F1305F7FF82801385D7FF8280F2
:0816F0001385C7FF8280000092
:1016F8000A2A2A2A2050414E4943202A2A2A0A0027
:101708000A000000486172647761726520616C614B
:10171800726D20256420616C726561647920636C48
:1017280061696D65640000004861726420617373CB
:101738006572740052656C656173650068747470D5
:10174800733A2F2F6769746875622E636F6D2F72F5
:10175800617370626572727970692F7069636F2D39
:101768006578616D706C65732F747265652F484577
:1017780041442F626C696E6B5F73696D706C6500B4
:10178800322E312E300000007069636F3200000085
:10179800626C696E6B5F73696D706C650000000048
:1017A800446563203238203230323400060052500B
:1017B800D3F075423C170020060052509A23561861
:1017C8004417002006005250BBFF3CB6901700207B
:0417D8000D0A0000F6
:1017DC00B4170020C0170020C0010020CC17002037
:0817EC00CC010020D80100200F
:1017F40000000000000000000000000000000000E5
:10180400000000005018002010000000000000003C
:1018140000000000CA110020F4110020441200202E
:101824000E1200204211002040120020301100202E
:101834002C060020720A0020841100202A120020A5
:08184400681300202C050020B0
:0400000520000220B5
:00000001FF
